{
	"contracts/SolByExample.sol": {
		"Struct": {
			"abi": [
				{
					"inputs": [],
					"name": "get",
					"outputs": [
						{
							"components": [
								{
									"internalType": "uint256",
									"name": "id",
									"type": "uint256"
								},
								{
									"internalType": "string",
									"name": "name",
									"type": "string"
								},
								{
									"internalType": "bool",
									"name": "married",
									"type": "bool"
								}
							],
							"internalType": "struct Struct.Userdetails",
							"name": "",
							"type": "tuple"
						}
					],
					"stateMutability": "view",
					"type": "function"
				},
				{
					"inputs": [
						{
							"internalType": "uint256",
							"name": "_id",
							"type": "uint256"
						},
						{
							"internalType": "string",
							"name": "_name",
							"type": "string"
						},
						{
							"internalType": "bool",
							"name": "_married",
							"type": "bool"
						}
					],
					"name": "set",
					"outputs": [],
					"stateMutability": "nonpayable",
					"type": "function"
				},
				{
					"inputs": [],
					"name": "userdetails",
					"outputs": [
						{
							"internalType": "uint256",
							"name": "id",
							"type": "uint256"
						},
						{
							"internalType": "string",
							"name": "name",
							"type": "string"
						},
						{
							"internalType": "bool",
							"name": "married",
							"type": "bool"
						}
					],
					"stateMutability": "view",
					"type": "function"
				}
			],
			"devdoc": {
				"kind": "dev",
				"methods": {},
				"version": 1
			},
			"evm": {
				"assembly": "    /* \"contracts/SolByExample.sol\":1111:1584  contract Struct{... */\n  mstore(0x40, 0x80)\n  callvalue\n  dup1\n  iszero\n  tag_1\n  jumpi\n  revert(0x00, 0x00)\ntag_1:\n  pop\n  dataSize(sub_0)\n  dup1\n  dataOffset(sub_0)\n  0x00\n  codecopy\n  0x00\n  return\nstop\n\nsub_0: assembly {\n        /* \"contracts/SolByExample.sol\":1111:1584  contract Struct{... */\n      mstore(0x40, 0x80)\n      callvalue\n      dup1\n      iszero\n      tag_1\n      jumpi\n      revert(0x00, 0x00)\n    tag_1:\n      pop\n      jumpi(tag_2, lt(calldatasize, 0x04))\n      shr(0xe0, calldataload(0x00))\n      dup1\n      0x582ab4c9\n      eq\n      tag_3\n      jumpi\n      dup1\n      0x6d4ce63c\n      eq\n      tag_4\n      jumpi\n      dup1\n      0xb3a64001\n      eq\n      tag_5\n      jumpi\n    tag_2:\n      revert(0x00, 0x00)\n        /* \"contracts/SolByExample.sol\":1268:1298  Userdetails public userdetails */\n    tag_3:\n      tag_6\n      tag_7\n      jump\t// in\n    tag_6:\n      mload(0x40)\n      tag_8\n      swap4\n      swap3\n      swap2\n      swap1\n      tag_9\n      jump\t// in\n    tag_8:\n      mload(0x40)\n      dup1\n      swap2\n      sub\n      swap1\n      return\n        /* \"contracts/SolByExample.sol\":1307:1395  function get() public view returns(Userdetails memory) {... */\n    tag_4:\n      tag_10\n      tag_11\n      jump\t// in\n    tag_10:\n      mload(0x40)\n      tag_12\n      swap2\n      swap1\n      tag_13\n      jump\t// in\n    tag_12:\n      mload(0x40)\n      dup1\n      swap2\n      sub\n      swap1\n      return\n        /* \"contracts/SolByExample.sol\":1403:1581  function set(uint256 _id,string memory _name, bool _married) public{... */\n    tag_5:\n      tag_14\n      0x04\n      dup1\n      calldatasize\n      sub\n      dup2\n      add\n      swap1\n      tag_15\n      swap2\n      swap1\n      tag_16\n      jump\t// in\n    tag_15:\n      tag_17\n      jump\t// in\n    tag_14:\n      stop\n        /* \"contracts/SolByExample.sol\":1268:1298  Userdetails public userdetails */\n    tag_7:\n      0x00\n      dup1\n      0x00\n      add\n      sload\n      swap1\n      dup1\n      0x01\n      add\n      dup1\n      sload\n      tag_18\n      swap1\n      tag_19\n      jump\t// in\n    tag_18:\n      dup1\n      0x1f\n      add\n      0x20\n      dup1\n      swap2\n      div\n      mul\n      0x20\n      add\n      mload(0x40)\n      swap1\n      dup2\n      add\n      0x40\n      mstore\n      dup1\n      swap3\n      swap2\n      swap1\n      dup2\n      dup2\n      mstore\n      0x20\n      add\n      dup3\n      dup1\n      sload\n      tag_20\n      swap1\n      tag_19\n      jump\t// in\n    tag_20:\n      dup1\n      iszero\n      tag_21\n      jumpi\n      dup1\n      0x1f\n      lt\n      tag_22\n      jumpi\n      0x0100\n      dup1\n      dup4\n      sload\n      div\n      mul\n      dup4\n      mstore\n      swap2\n      0x20\n      add\n      swap2\n      jump(tag_21)\n    tag_22:\n      dup3\n      add\n      swap2\n      swap1\n      0x00\n      mstore\n      keccak256(0x00, 0x20)\n      swap1\n    tag_23:\n      dup2\n      sload\n      dup2\n      mstore\n      swap1\n      0x01\n      add\n      swap1\n      0x20\n      add\n      dup1\n      dup4\n      gt\n      tag_23\n      jumpi\n      dup3\n      swap1\n      sub\n      0x1f\n      and\n      dup3\n      add\n      swap2\n    tag_21:\n      pop\n      pop\n      pop\n      pop\n      pop\n      swap1\n      dup1\n      0x02\n      add\n      0x00\n      swap1\n      sload\n      swap1\n      0x0100\n      exp\n      swap1\n      div\n      0xff\n      and\n      swap1\n      pop\n      dup4\n      jump\t// out\n        /* \"contracts/SolByExample.sol\":1307:1395  function get() public view returns(Userdetails memory) {... */\n    tag_11:\n        /* \"contracts/SolByExample.sol\":1342:1360  Userdetails memory */\n      tag_24\n      tag_25\n      jump\t// in\n    tag_24:\n        /* \"contracts/SolByExample.sol\":1376:1387  userdetails */\n      0x00\n        /* \"contracts/SolByExample.sol\":1369:1387  return userdetails */\n      mload(0x40)\n      dup1\n      0x60\n      add\n      0x40\n      mstore\n      swap1\n      dup2\n      0x00\n      dup3\n      add\n      sload\n      dup2\n      mstore\n      0x20\n      add\n      0x01\n      dup3\n      add\n      dup1\n      sload\n      tag_27\n      swap1\n      tag_19\n      jump\t// in\n    tag_27:\n      dup1\n      0x1f\n      add\n      0x20\n      dup1\n      swap2\n      div\n      mul\n      0x20\n      add\n      mload(0x40)\n      swap1\n      dup2\n      add\n      0x40\n      mstore\n      dup1\n      swap3\n      swap2\n      swap1\n      dup2\n      dup2\n      mstore\n      0x20\n      add\n      dup3\n      dup1\n      sload\n      tag_28\n      swap1\n      tag_19\n      jump\t// in\n    tag_28:\n      dup1\n      iszero\n      tag_29\n      jumpi\n      dup1\n      0x1f\n      lt\n      tag_30\n      jumpi\n      0x0100\n      dup1\n      dup4\n      sload\n      div\n      mul\n      dup4\n      mstore\n      swap2\n      0x20\n      add\n      swap2\n      jump(tag_29)\n    tag_30:\n      dup3\n      add\n      swap2\n      swap1\n      0x00\n      mstore\n      keccak256(0x00, 0x20)\n      swap1\n    tag_31:\n      dup2\n      sload\n      dup2\n      mstore\n      swap1\n      0x01\n      add\n      swap1\n      0x20\n      add\n      dup1\n      dup4\n      gt\n      tag_31\n      jumpi\n      dup3\n      swap1\n      sub\n      0x1f\n      and\n      dup3\n      add\n      swap2\n    tag_29:\n      pop\n      pop\n      pop\n      pop\n      pop\n      dup2\n      mstore\n      0x20\n      add\n      0x02\n      dup3\n      add\n      0x00\n      swap1\n      sload\n      swap1\n      0x0100\n      exp\n      swap1\n      div\n      0xff\n      and\n      iszero\n      iszero\n      iszero\n      iszero\n      dup2\n      mstore\n      pop\n      pop\n      swap1\n      pop\n        /* \"contracts/SolByExample.sol\":1307:1395  function get() public view returns(Userdetails memory) {... */\n      swap1\n      jump\t// out\n        /* \"contracts/SolByExample.sol\":1403:1581  function set(uint256 _id,string memory _name, bool _married) public{... */\n    tag_17:\n        /* \"contracts/SolByExample.sol\":1496:1499  _id */\n      dup3\n        /* \"contracts/SolByExample.sol\":1481:1492  userdetails */\n      0x00\n        /* \"contracts/SolByExample.sol\":1481:1495  userdetails.id */\n      0x00\n      add\n        /* \"contracts/SolByExample.sol\":1481:1499  userdetails.id=_id */\n      dup2\n      swap1\n      sstore\n      pop\n        /* \"contracts/SolByExample.sol\":1527:1532  _name */\n      dup2\n        /* \"contracts/SolByExample.sol\":1510:1521  userdetails */\n      0x00\n        /* \"contracts/SolByExample.sol\":1510:1526  userdetails.name */\n      0x01\n      add\n        /* \"contracts/SolByExample.sol\":1510:1532  userdetails.name=_name */\n      swap1\n      dup2\n      tag_33\n      swap2\n      swap1\n      tag_34\n      jump\t// in\n    tag_33:\n      pop\n        /* \"contracts/SolByExample.sol\":1563:1571  _married */\n      dup1\n        /* \"contracts/SolByExample.sol\":1543:1554  userdetails */\n      0x00\n        /* \"contracts/SolByExample.sol\":1543:1562  userdetails.married */\n      0x02\n      add\n      0x00\n        /* \"contracts/SolByExample.sol\":1543:1571  userdetails.married=_married */\n      0x0100\n      exp\n      dup2\n      sload\n      dup2\n      0xff\n      mul\n      not\n      and\n      swap1\n      dup4\n      iszero\n      iszero\n      mul\n      or\n      swap1\n      sstore\n      pop\n        /* \"contracts/SolByExample.sol\":1403:1581  function set(uint256 _id,string memory _name, bool _married) public{... */\n      pop\n      pop\n      pop\n      jump\t// out\n    tag_25:\n      mload(0x40)\n      dup1\n      0x60\n      add\n      0x40\n      mstore\n      dup1\n      0x00\n      dup2\n      mstore\n      0x20\n      add\n      0x60\n      dup2\n      mstore\n      0x20\n      add\n      iszero(iszero(0x00))\n      dup2\n      mstore\n      pop\n      swap1\n      jump\t// out\n        /* \"#utility.yul\":7:84   */\n    tag_35:\n        /* \"#utility.yul\":44:51   */\n      0x00\n        /* \"#utility.yul\":73:78   */\n      dup2\n        /* \"#utility.yul\":62:78   */\n      swap1\n      pop\n        /* \"#utility.yul\":7:84   */\n      swap2\n      swap1\n      pop\n      jump\t// out\n        /* \"#utility.yul\":90:208   */\n    tag_36:\n        /* \"#utility.yul\":177:201   */\n      tag_84\n        /* \"#utility.yul\":195:200   */\n      dup2\n        /* \"#utility.yul\":177:201   */\n      tag_35\n      jump\t// in\n    tag_84:\n        /* \"#utility.yul\":172:175   */\n      dup3\n        /* \"#utility.yul\":165:202   */\n      mstore\n        /* \"#utility.yul\":90:208   */\n      pop\n      pop\n      jump\t// out\n        /* \"#utility.yul\":214:313   */\n    tag_37:\n        /* \"#utility.yul\":266:272   */\n      0x00\n        /* \"#utility.yul\":300:305   */\n      dup2\n        /* \"#utility.yul\":294:306   */\n      mload\n        /* \"#utility.yul\":284:306   */\n      swap1\n      pop\n        /* \"#utility.yul\":214:313   */\n      swap2\n      swap1\n      pop\n      jump\t// out\n        /* \"#utility.yul\":319:488   */\n    tag_38:\n        /* \"#utility.yul\":403:414   */\n      0x00\n        /* \"#utility.yul\":437:443   */\n      dup3\n        /* \"#utility.yul\":432:435   */\n      dup3\n        /* \"#utility.yul\":425:444   */\n      mstore\n        /* \"#utility.yul\":477:481   */\n      0x20\n        /* \"#utility.yul\":472:475   */\n      dup3\n        /* \"#utility.yul\":468:482   */\n      add\n        /* \"#utility.yul\":453:482   */\n      swap1\n      pop\n        /* \"#utility.yul\":319:488   */\n      swap3\n      swap2\n      pop\n      pop\n      jump\t// out\n        /* \"#utility.yul\":494:633   */\n    tag_39:\n        /* \"#utility.yul\":583:589   */\n      dup3\n        /* \"#utility.yul\":578:581   */\n      dup2\n        /* \"#utility.yul\":573:576   */\n      dup4\n        /* \"#utility.yul\":567:590   */\n      mcopy\n        /* \"#utility.yul\":624:625   */\n      0x00\n        /* \"#utility.yul\":615:621   */\n      dup4\n        /* \"#utility.yul\":610:613   */\n      dup4\n        /* \"#utility.yul\":606:622   */\n      add\n        /* \"#utility.yul\":599:626   */\n      mstore\n        /* \"#utility.yul\":494:633   */\n      pop\n      pop\n      pop\n      jump\t// out\n        /* \"#utility.yul\":639:741   */\n    tag_40:\n        /* \"#utility.yul\":680:686   */\n      0x00\n        /* \"#utility.yul\":731:733   */\n      0x1f\n        /* \"#utility.yul\":727:734   */\n      not\n        /* \"#utility.yul\":722:724   */\n      0x1f\n        /* \"#utility.yul\":715:720   */\n      dup4\n        /* \"#utility.yul\":711:725   */\n      add\n        /* \"#utility.yul\":707:735   */\n      and\n        /* \"#utility.yul\":697:735   */\n      swap1\n      pop\n        /* \"#utility.yul\":639:741   */\n      swap2\n      swap1\n      pop\n      jump\t// out\n        /* \"#utility.yul\":747:1124   */\n    tag_41:\n        /* \"#utility.yul\":835:838   */\n      0x00\n        /* \"#utility.yul\":863:902   */\n      tag_90\n        /* \"#utility.yul\":896:901   */\n      dup3\n        /* \"#utility.yul\":863:902   */\n      tag_37\n      jump\t// in\n    tag_90:\n        /* \"#utility.yul\":918:989   */\n      tag_91\n        /* \"#utility.yul\":982:988   */\n      dup2\n        /* \"#utility.yul\":977:980   */\n      dup6\n        /* \"#utility.yul\":918:989   */\n      tag_38\n      jump\t// in\n    tag_91:\n        /* \"#utility.yul\":911:989   */\n      swap4\n      pop\n        /* \"#utility.yul\":998:1063   */\n      tag_92\n        /* \"#utility.yul\":1056:1062   */\n      dup2\n        /* \"#utility.yul\":1051:1054   */\n      dup6\n        /* \"#utility.yul\":1044:1048   */\n      0x20\n        /* \"#utility.yul\":1037:1042   */\n      dup7\n        /* \"#utility.yul\":1033:1049   */\n      add\n        /* \"#utility.yul\":998:1063   */\n      tag_39\n      jump\t// in\n    tag_92:\n        /* \"#utility.yul\":1088:1117   */\n      tag_93\n        /* \"#utility.yul\":1110:1116   */\n      dup2\n        /* \"#utility.yul\":1088:1117   */\n      tag_40\n      jump\t// in\n    tag_93:\n        /* \"#utility.yul\":1083:1086   */\n      dup5\n        /* \"#utility.yul\":1079:1118   */\n      add\n        /* \"#utility.yul\":1072:1118   */\n      swap2\n      pop\n        /* \"#utility.yul\":839:1124   */\n      pop\n        /* \"#utility.yul\":747:1124   */\n      swap3\n      swap2\n      pop\n      pop\n      jump\t// out\n        /* \"#utility.yul\":1130:1220   */\n    tag_42:\n        /* \"#utility.yul\":1164:1171   */\n      0x00\n        /* \"#utility.yul\":1207:1212   */\n      dup2\n        /* \"#utility.yul\":1200:1213   */\n      iszero\n        /* \"#utility.yul\":1193:1214   */\n      iszero\n        /* \"#utility.yul\":1182:1214   */\n      swap1\n      pop\n        /* \"#utility.yul\":1130:1220   */\n      swap2\n      swap1\n      pop\n      jump\t// out\n        /* \"#utility.yul\":1226:1335   */\n    tag_43:\n        /* \"#utility.yul\":1307:1328   */\n      tag_96\n        /* \"#utility.yul\":1322:1327   */\n      dup2\n        /* \"#utility.yul\":1307:1328   */\n      tag_42\n      jump\t// in\n    tag_96:\n        /* \"#utility.yul\":1302:1305   */\n      dup3\n        /* \"#utility.yul\":1295:1329   */\n      mstore\n        /* \"#utility.yul\":1226:1335   */\n      pop\n      pop\n      jump\t// out\n        /* \"#utility.yul\":1341:1862   */\n    tag_9:\n        /* \"#utility.yul\":1504:1508   */\n      0x00\n        /* \"#utility.yul\":1542:1544   */\n      0x60\n        /* \"#utility.yul\":1531:1540   */\n      dup3\n        /* \"#utility.yul\":1527:1545   */\n      add\n        /* \"#utility.yul\":1519:1545   */\n      swap1\n      pop\n        /* \"#utility.yul\":1555:1626   */\n      tag_98\n        /* \"#utility.yul\":1623:1624   */\n      0x00\n        /* \"#utility.yul\":1612:1621   */\n      dup4\n        /* \"#utility.yul\":1608:1625   */\n      add\n        /* \"#utility.yul\":1599:1605   */\n      dup7\n        /* \"#utility.yul\":1555:1626   */\n      tag_36\n      jump\t// in\n    tag_98:\n        /* \"#utility.yul\":1673:1682   */\n      dup2\n        /* \"#utility.yul\":1667:1671   */\n      dup2\n        /* \"#utility.yul\":1663:1683   */\n      sub\n        /* \"#utility.yul\":1658:1660   */\n      0x20\n        /* \"#utility.yul\":1647:1656   */\n      dup4\n        /* \"#utility.yul\":1643:1661   */\n      add\n        /* \"#utility.yul\":1636:1684   */\n      mstore\n        /* \"#utility.yul\":1701:1779   */\n      tag_99\n        /* \"#utility.yul\":1774:1778   */\n      dup2\n        /* \"#utility.yul\":1765:1771   */\n      dup6\n        /* \"#utility.yul\":1701:1779   */\n      tag_41\n      jump\t// in\n    tag_99:\n        /* \"#utility.yul\":1693:1779   */\n      swap1\n      pop\n        /* \"#utility.yul\":1789:1855   */\n      tag_100\n        /* \"#utility.yul\":1851:1853   */\n      0x40\n        /* \"#utility.yul\":1840:1849   */\n      dup4\n        /* \"#utility.yul\":1836:1854   */\n      add\n        /* \"#utility.yul\":1827:1833   */\n      dup5\n        /* \"#utility.yul\":1789:1855   */\n      tag_43\n      jump\t// in\n    tag_100:\n        /* \"#utility.yul\":1341:1862   */\n      swap5\n      swap4\n      pop\n      pop\n      pop\n      pop\n      jump\t// out\n        /* \"#utility.yul\":1868:1976   */\n    tag_44:\n        /* \"#utility.yul\":1945:1969   */\n      tag_102\n        /* \"#utility.yul\":1963:1968   */\n      dup2\n        /* \"#utility.yul\":1945:1969   */\n      tag_35\n      jump\t// in\n    tag_102:\n        /* \"#utility.yul\":1940:1943   */\n      dup3\n        /* \"#utility.yul\":1933:1970   */\n      mstore\n        /* \"#utility.yul\":1868:1976   */\n      pop\n      pop\n      jump\t// out\n        /* \"#utility.yul\":1982:2141   */\n    tag_45:\n        /* \"#utility.yul\":2056:2067   */\n      0x00\n        /* \"#utility.yul\":2090:2096   */\n      dup3\n        /* \"#utility.yul\":2085:2088   */\n      dup3\n        /* \"#utility.yul\":2078:2097   */\n      mstore\n        /* \"#utility.yul\":2130:2134   */\n      0x20\n        /* \"#utility.yul\":2125:2128   */\n      dup3\n        /* \"#utility.yul\":2121:2135   */\n      add\n        /* \"#utility.yul\":2106:2135   */\n      swap1\n      pop\n        /* \"#utility.yul\":1982:2141   */\n      swap3\n      swap2\n      pop\n      pop\n      jump\t// out\n        /* \"#utility.yul\":2147:2504   */\n    tag_46:\n        /* \"#utility.yul\":2225:2228   */\n      0x00\n        /* \"#utility.yul\":2253:2292   */\n      tag_105\n        /* \"#utility.yul\":2286:2291   */\n      dup3\n        /* \"#utility.yul\":2253:2292   */\n      tag_37\n      jump\t// in\n    tag_105:\n        /* \"#utility.yul\":2308:2369   */\n      tag_106\n        /* \"#utility.yul\":2362:2368   */\n      dup2\n        /* \"#utility.yul\":2357:2360   */\n      dup6\n        /* \"#utility.yul\":2308:2369   */\n      tag_45\n      jump\t// in\n    tag_106:\n        /* \"#utility.yul\":2301:2369   */\n      swap4\n      pop\n        /* \"#utility.yul\":2378:2443   */\n      tag_107\n        /* \"#utility.yul\":2436:2442   */\n      dup2\n        /* \"#utility.yul\":2431:2434   */\n      dup6\n        /* \"#utility.yul\":2424:2428   */\n      0x20\n        /* \"#utility.yul\":2417:2422   */\n      dup7\n        /* \"#utility.yul\":2413:2429   */\n      add\n        /* \"#utility.yul\":2378:2443   */\n      tag_39\n      jump\t// in\n    tag_107:\n        /* \"#utility.yul\":2468:2497   */\n      tag_108\n        /* \"#utility.yul\":2490:2496   */\n      dup2\n        /* \"#utility.yul\":2468:2497   */\n      tag_40\n      jump\t// in\n    tag_108:\n        /* \"#utility.yul\":2463:2466   */\n      dup5\n        /* \"#utility.yul\":2459:2498   */\n      add\n        /* \"#utility.yul\":2452:2498   */\n      swap2\n      pop\n        /* \"#utility.yul\":2229:2504   */\n      pop\n        /* \"#utility.yul\":2147:2504   */\n      swap3\n      swap2\n      pop\n      pop\n      jump\t// out\n        /* \"#utility.yul\":2510:2609   */\n    tag_47:\n        /* \"#utility.yul\":2581:2602   */\n      tag_110\n        /* \"#utility.yul\":2596:2601   */\n      dup2\n        /* \"#utility.yul\":2581:2602   */\n      tag_42\n      jump\t// in\n    tag_110:\n        /* \"#utility.yul\":2576:2579   */\n      dup3\n        /* \"#utility.yul\":2569:2603   */\n      mstore\n        /* \"#utility.yul\":2510:2609   */\n      pop\n      pop\n      jump\t// out\n        /* \"#utility.yul\":2677:3458   */\n    tag_48:\n        /* \"#utility.yul\":2802:2805   */\n      0x00\n        /* \"#utility.yul\":2838:2842   */\n      0x60\n        /* \"#utility.yul\":2833:2836   */\n      dup4\n        /* \"#utility.yul\":2829:2843   */\n      add\n        /* \"#utility.yul\":2923:2927   */\n      0x00\n        /* \"#utility.yul\":2916:2921   */\n      dup4\n        /* \"#utility.yul\":2912:2928   */\n      add\n        /* \"#utility.yul\":2906:2929   */\n      mload\n        /* \"#utility.yul\":2942:3005   */\n      tag_112\n        /* \"#utility.yul\":2999:3003   */\n      0x00\n        /* \"#utility.yul\":2994:2997   */\n      dup7\n        /* \"#utility.yul\":2990:3004   */\n      add\n        /* \"#utility.yul\":2976:2988   */\n      dup3\n        /* \"#utility.yul\":2942:3005   */\n      tag_44\n      jump\t// in\n    tag_112:\n        /* \"#utility.yul\":2853:3015   */\n      pop\n        /* \"#utility.yul\":3097:3101   */\n      0x20\n        /* \"#utility.yul\":3090:3095   */\n      dup4\n        /* \"#utility.yul\":3086:3102   */\n      add\n        /* \"#utility.yul\":3080:3103   */\n      mload\n        /* \"#utility.yul\":3150:3153   */\n      dup5\n        /* \"#utility.yul\":3144:3148   */\n      dup3\n        /* \"#utility.yul\":3140:3154   */\n      sub\n        /* \"#utility.yul\":3133:3137   */\n      0x20\n        /* \"#utility.yul\":3128:3131   */\n      dup7\n        /* \"#utility.yul\":3124:3138   */\n      add\n        /* \"#utility.yul\":3117:3155   */\n      mstore\n        /* \"#utility.yul\":3176:3249   */\n      tag_113\n        /* \"#utility.yul\":3244:3248   */\n      dup3\n        /* \"#utility.yul\":3230:3242   */\n      dup3\n        /* \"#utility.yul\":3176:3249   */\n      tag_46\n      jump\t// in\n    tag_113:\n        /* \"#utility.yul\":3168:3249   */\n      swap2\n      pop\n        /* \"#utility.yul\":3025:3260   */\n      pop\n        /* \"#utility.yul\":3345:3349   */\n      0x40\n        /* \"#utility.yul\":3338:3343   */\n      dup4\n        /* \"#utility.yul\":3334:3350   */\n      add\n        /* \"#utility.yul\":3328:3351   */\n      mload\n        /* \"#utility.yul\":3364:3421   */\n      tag_114\n        /* \"#utility.yul\":3415:3419   */\n      0x40\n        /* \"#utility.yul\":3410:3413   */\n      dup7\n        /* \"#utility.yul\":3406:3420   */\n      add\n        /* \"#utility.yul\":3392:3404   */\n      dup3\n        /* \"#utility.yul\":3364:3421   */\n      tag_47\n      jump\t// in\n    tag_114:\n        /* \"#utility.yul\":3270:3431   */\n      pop\n        /* \"#utility.yul\":3448:3452   */\n      dup1\n        /* \"#utility.yul\":3441:3452   */\n      swap2\n      pop\n        /* \"#utility.yul\":2807:3458   */\n      pop\n        /* \"#utility.yul\":2677:3458   */\n      swap3\n      swap2\n      pop\n      pop\n      jump\t// out\n        /* \"#utility.yul\":3464:3849   */\n    tag_13:\n        /* \"#utility.yul\":3613:3617   */\n      0x00\n        /* \"#utility.yul\":3651:3653   */\n      0x20\n        /* \"#utility.yul\":3640:3649   */\n      dup3\n        /* \"#utility.yul\":3636:3654   */\n      add\n        /* \"#utility.yul\":3628:3654   */\n      swap1\n      pop\n        /* \"#utility.yul\":3700:3709   */\n      dup2\n        /* \"#utility.yul\":3694:3698   */\n      dup2\n        /* \"#utility.yul\":3690:3710   */\n      sub\n        /* \"#utility.yul\":3686:3687   */\n      0x00\n        /* \"#utility.yul\":3675:3684   */\n      dup4\n        /* \"#utility.yul\":3671:3688   */\n      add\n        /* \"#utility.yul\":3664:3711   */\n      mstore\n        /* \"#utility.yul\":3728:3842   */\n      tag_116\n        /* \"#utility.yul\":3837:3841   */\n      dup2\n        /* \"#utility.yul\":3828:3834   */\n      dup5\n        /* \"#utility.yul\":3728:3842   */\n      tag_48\n      jump\t// in\n    tag_116:\n        /* \"#utility.yul\":3720:3842   */\n      swap1\n      pop\n        /* \"#utility.yul\":3464:3849   */\n      swap3\n      swap2\n      pop\n      pop\n      jump\t// out\n        /* \"#utility.yul\":3855:3930   */\n    tag_49:\n        /* \"#utility.yul\":3888:3894   */\n      0x00\n        /* \"#utility.yul\":3921:3923   */\n      0x40\n        /* \"#utility.yul\":3915:3924   */\n      mload\n        /* \"#utility.yul\":3905:3924   */\n      swap1\n      pop\n        /* \"#utility.yul\":3855:3930   */\n      swap1\n      jump\t// out\n        /* \"#utility.yul\":3936:4053   */\n    tag_50:\n        /* \"#utility.yul\":4045:4046   */\n      0x00\n        /* \"#utility.yul\":4042:4043   */\n      0x00\n        /* \"#utility.yul\":4035:4047   */\n      revert\n        /* \"#utility.yul\":4059:4176   */\n    tag_51:\n        /* \"#utility.yul\":4168:4169   */\n      0x00\n        /* \"#utility.yul\":4165:4166   */\n      0x00\n        /* \"#utility.yul\":4158:4170   */\n      revert\n        /* \"#utility.yul\":4182:4304   */\n    tag_52:\n        /* \"#utility.yul\":4255:4279   */\n      tag_121\n        /* \"#utility.yul\":4273:4278   */\n      dup2\n        /* \"#utility.yul\":4255:4279   */\n      tag_35\n      jump\t// in\n    tag_121:\n        /* \"#utility.yul\":4248:4253   */\n      dup2\n        /* \"#utility.yul\":4245:4280   */\n      eq\n        /* \"#utility.yul\":4235:4298   */\n      tag_122\n      jumpi\n        /* \"#utility.yul\":4294:4295   */\n      0x00\n        /* \"#utility.yul\":4291:4292   */\n      0x00\n        /* \"#utility.yul\":4284:4296   */\n      revert\n        /* \"#utility.yul\":4235:4298   */\n    tag_122:\n        /* \"#utility.yul\":4182:4304   */\n      pop\n      jump\t// out\n        /* \"#utility.yul\":4310:4449   */\n    tag_53:\n        /* \"#utility.yul\":4356:4361   */\n      0x00\n        /* \"#utility.yul\":4394:4400   */\n      dup2\n        /* \"#utility.yul\":4381:4401   */\n      calldataload\n        /* \"#utility.yul\":4372:4401   */\n      swap1\n      pop\n        /* \"#utility.yul\":4410:4443   */\n      tag_124\n        /* \"#utility.yul\":4437:4442   */\n      dup2\n        /* \"#utility.yul\":4410:4443   */\n      tag_52\n      jump\t// in\n    tag_124:\n        /* \"#utility.yul\":4310:4449   */\n      swap3\n      swap2\n      pop\n      pop\n      jump\t// out\n        /* \"#utility.yul\":4455:4572   */\n    tag_54:\n        /* \"#utility.yul\":4564:4565   */\n      0x00\n        /* \"#utility.yul\":4561:4562   */\n      0x00\n        /* \"#utility.yul\":4554:4566   */\n      revert\n        /* \"#utility.yul\":4578:4695   */\n    tag_55:\n        /* \"#utility.yul\":4687:4688   */\n      0x00\n        /* \"#utility.yul\":4684:4685   */\n      0x00\n        /* \"#utility.yul\":4677:4689   */\n      revert\n        /* \"#utility.yul\":4701:4881   */\n    tag_56:\n        /* \"#utility.yul\":4749:4826   */\n      0x4e487b7100000000000000000000000000000000000000000000000000000000\n        /* \"#utility.yul\":4746:4747   */\n      0x00\n        /* \"#utility.yul\":4739:4827   */\n      mstore\n        /* \"#utility.yul\":4846:4850   */\n      0x41\n        /* \"#utility.yul\":4843:4844   */\n      0x04\n        /* \"#utility.yul\":4836:4851   */\n      mstore\n        /* \"#utility.yul\":4870:4874   */\n      0x24\n        /* \"#utility.yul\":4867:4868   */\n      0x00\n        /* \"#utility.yul\":4860:4875   */\n      revert\n        /* \"#utility.yul\":4887:5168   */\n    tag_57:\n        /* \"#utility.yul\":4970:4997   */\n      tag_129\n        /* \"#utility.yul\":4992:4996   */\n      dup3\n        /* \"#utility.yul\":4970:4997   */\n      tag_40\n      jump\t// in\n    tag_129:\n        /* \"#utility.yul\":4962:4968   */\n      dup2\n        /* \"#utility.yul\":4958:4998   */\n      add\n        /* \"#utility.yul\":5100:5106   */\n      dup2\n        /* \"#utility.yul\":5088:5098   */\n      dup2\n        /* \"#utility.yul\":5085:5107   */\n      lt\n        /* \"#utility.yul\":5064:5082   */\n      0xffffffffffffffff\n        /* \"#utility.yul\":5052:5062   */\n      dup3\n        /* \"#utility.yul\":5049:5083   */\n      gt\n        /* \"#utility.yul\":5046:5108   */\n      or\n        /* \"#utility.yul\":5043:5131   */\n      iszero\n      tag_130\n      jumpi\n        /* \"#utility.yul\":5111:5129   */\n      tag_131\n      tag_56\n      jump\t// in\n    tag_131:\n        /* \"#utility.yul\":5043:5131   */\n    tag_130:\n        /* \"#utility.yul\":5151:5161   */\n      dup1\n        /* \"#utility.yul\":5147:5149   */\n      0x40\n        /* \"#utility.yul\":5140:5162   */\n      mstore\n        /* \"#utility.yul\":4930:5168   */\n      pop\n        /* \"#utility.yul\":4887:5168   */\n      pop\n      pop\n      jump\t// out\n        /* \"#utility.yul\":5174:5303   */\n    tag_58:\n        /* \"#utility.yul\":5208:5214   */\n      0x00\n        /* \"#utility.yul\":5235:5255   */\n      tag_133\n      tag_49\n      jump\t// in\n    tag_133:\n        /* \"#utility.yul\":5225:5255   */\n      swap1\n      pop\n        /* \"#utility.yul\":5264:5297   */\n      tag_134\n        /* \"#utility.yul\":5292:5296   */\n      dup3\n        /* \"#utility.yul\":5284:5290   */\n      dup3\n        /* \"#utility.yul\":5264:5297   */\n      tag_57\n      jump\t// in\n    tag_134:\n        /* \"#utility.yul\":5174:5303   */\n      swap2\n      swap1\n      pop\n      jump\t// out\n        /* \"#utility.yul\":5309:5617   */\n    tag_59:\n        /* \"#utility.yul\":5371:5375   */\n      0x00\n        /* \"#utility.yul\":5461:5479   */\n      0xffffffffffffffff\n        /* \"#utility.yul\":5453:5459   */\n      dup3\n        /* \"#utility.yul\":5450:5480   */\n      gt\n        /* \"#utility.yul\":5447:5503   */\n      iszero\n      tag_136\n      jumpi\n        /* \"#utility.yul\":5483:5501   */\n      tag_137\n      tag_56\n      jump\t// in\n    tag_137:\n        /* \"#utility.yul\":5447:5503   */\n    tag_136:\n        /* \"#utility.yul\":5521:5550   */\n      tag_138\n        /* \"#utility.yul\":5543:5549   */\n      dup3\n        /* \"#utility.yul\":5521:5550   */\n      tag_40\n      jump\t// in\n    tag_138:\n        /* \"#utility.yul\":5513:5550   */\n      swap1\n      pop\n        /* \"#utility.yul\":5605:5609   */\n      0x20\n        /* \"#utility.yul\":5599:5603   */\n      dup2\n        /* \"#utility.yul\":5595:5610   */\n      add\n        /* \"#utility.yul\":5587:5610   */\n      swap1\n      pop\n        /* \"#utility.yul\":5309:5617   */\n      swap2\n      swap1\n      pop\n      jump\t// out\n        /* \"#utility.yul\":5623:5771   */\n    tag_60:\n        /* \"#utility.yul\":5721:5727   */\n      dup3\n        /* \"#utility.yul\":5716:5719   */\n      dup2\n        /* \"#utility.yul\":5711:5714   */\n      dup4\n        /* \"#utility.yul\":5698:5728   */\n      calldatacopy\n        /* \"#utility.yul\":5762:5763   */\n      0x00\n        /* \"#utility.yul\":5753:5759   */\n      dup4\n        /* \"#utility.yul\":5748:5751   */\n      dup4\n        /* \"#utility.yul\":5744:5760   */\n      add\n        /* \"#utility.yul\":5737:5764   */\n      mstore\n        /* \"#utility.yul\":5623:5771   */\n      pop\n      pop\n      pop\n      jump\t// out\n        /* \"#utility.yul\":5777:6202   */\n    tag_61:\n        /* \"#utility.yul\":5855:5860   */\n      0x00\n        /* \"#utility.yul\":5880:5946   */\n      tag_141\n        /* \"#utility.yul\":5896:5945   */\n      tag_142\n        /* \"#utility.yul\":5938:5944   */\n      dup5\n        /* \"#utility.yul\":5896:5945   */\n      tag_59\n      jump\t// in\n    tag_142:\n        /* \"#utility.yul\":5880:5946   */\n      tag_58\n      jump\t// in\n    tag_141:\n        /* \"#utility.yul\":5871:5946   */\n      swap1\n      pop\n        /* \"#utility.yul\":5969:5975   */\n      dup3\n        /* \"#utility.yul\":5962:5967   */\n      dup2\n        /* \"#utility.yul\":5955:5976   */\n      mstore\n        /* \"#utility.yul\":6007:6011   */\n      0x20\n        /* \"#utility.yul\":6000:6005   */\n      dup2\n        /* \"#utility.yul\":5996:6012   */\n      add\n        /* \"#utility.yul\":6045:6048   */\n      dup5\n        /* \"#utility.yul\":6036:6042   */\n      dup5\n        /* \"#utility.yul\":6031:6034   */\n      dup5\n        /* \"#utility.yul\":6027:6043   */\n      add\n        /* \"#utility.yul\":6024:6049   */\n      gt\n        /* \"#utility.yul\":6021:6133   */\n      iszero\n      tag_143\n      jumpi\n        /* \"#utility.yul\":6052:6131   */\n      tag_144\n      tag_55\n      jump\t// in\n    tag_144:\n        /* \"#utility.yul\":6021:6133   */\n    tag_143:\n        /* \"#utility.yul\":6142:6196   */\n      tag_145\n        /* \"#utility.yul\":6189:6195   */\n      dup5\n        /* \"#utility.yul\":6184:6187   */\n      dup3\n        /* \"#utility.yul\":6179:6182   */\n      dup6\n        /* \"#utility.yul\":6142:6196   */\n      tag_60\n      jump\t// in\n    tag_145:\n        /* \"#utility.yul\":5861:6202   */\n      pop\n        /* \"#utility.yul\":5777:6202   */\n      swap4\n      swap3\n      pop\n      pop\n      pop\n      jump\t// out\n        /* \"#utility.yul\":6222:6562   */\n    tag_62:\n        /* \"#utility.yul\":6278:6283   */\n      0x00\n        /* \"#utility.yul\":6327:6330   */\n      dup3\n        /* \"#utility.yul\":6320:6324   */\n      0x1f\n        /* \"#utility.yul\":6312:6318   */\n      dup4\n        /* \"#utility.yul\":6308:6325   */\n      add\n        /* \"#utility.yul\":6304:6331   */\n      slt\n        /* \"#utility.yul\":6294:6416   */\n      tag_147\n      jumpi\n        /* \"#utility.yul\":6335:6414   */\n      tag_148\n      tag_54\n      jump\t// in\n    tag_148:\n        /* \"#utility.yul\":6294:6416   */\n    tag_147:\n        /* \"#utility.yul\":6452:6458   */\n      dup2\n        /* \"#utility.yul\":6439:6459   */\n      calldataload\n        /* \"#utility.yul\":6477:6556   */\n      tag_149\n        /* \"#utility.yul\":6552:6555   */\n      dup5\n        /* \"#utility.yul\":6544:6550   */\n      dup3\n        /* \"#utility.yul\":6537:6541   */\n      0x20\n        /* \"#utility.yul\":6529:6535   */\n      dup7\n        /* \"#utility.yul\":6525:6542   */\n      add\n        /* \"#utility.yul\":6477:6556   */\n      tag_61\n      jump\t// in\n    tag_149:\n        /* \"#utility.yul\":6468:6556   */\n      swap2\n      pop\n        /* \"#utility.yul\":6284:6562   */\n      pop\n        /* \"#utility.yul\":6222:6562   */\n      swap3\n      swap2\n      pop\n      pop\n      jump\t// out\n        /* \"#utility.yul\":6568:6684   */\n    tag_63:\n        /* \"#utility.yul\":6638:6659   */\n      tag_151\n        /* \"#utility.yul\":6653:6658   */\n      dup2\n        /* \"#utility.yul\":6638:6659   */\n      tag_42\n      jump\t// in\n    tag_151:\n        /* \"#utility.yul\":6631:6636   */\n      dup2\n        /* \"#utility.yul\":6628:6660   */\n      eq\n        /* \"#utility.yul\":6618:6678   */\n      tag_152\n      jumpi\n        /* \"#utility.yul\":6674:6675   */\n      0x00\n        /* \"#utility.yul\":6671:6672   */\n      0x00\n        /* \"#utility.yul\":6664:6676   */\n      revert\n        /* \"#utility.yul\":6618:6678   */\n    tag_152:\n        /* \"#utility.yul\":6568:6684   */\n      pop\n      jump\t// out\n        /* \"#utility.yul\":6690:6823   */\n    tag_64:\n        /* \"#utility.yul\":6733:6738   */\n      0x00\n        /* \"#utility.yul\":6771:6777   */\n      dup2\n        /* \"#utility.yul\":6758:6778   */\n      calldataload\n        /* \"#utility.yul\":6749:6778   */\n      swap1\n      pop\n        /* \"#utility.yul\":6787:6817   */\n      tag_154\n        /* \"#utility.yul\":6811:6816   */\n      dup2\n        /* \"#utility.yul\":6787:6817   */\n      tag_63\n      jump\t// in\n    tag_154:\n        /* \"#utility.yul\":6690:6823   */\n      swap3\n      swap2\n      pop\n      pop\n      jump\t// out\n        /* \"#utility.yul\":6829:7622   */\n    tag_16:\n        /* \"#utility.yul\":6913:6919   */\n      0x00\n        /* \"#utility.yul\":6921:6927   */\n      0x00\n        /* \"#utility.yul\":6929:6935   */\n      0x00\n        /* \"#utility.yul\":6978:6980   */\n      0x60\n        /* \"#utility.yul\":6966:6975   */\n      dup5\n        /* \"#utility.yul\":6957:6964   */\n      dup7\n        /* \"#utility.yul\":6953:6976   */\n      sub\n        /* \"#utility.yul\":6949:6981   */\n      slt\n        /* \"#utility.yul\":6946:7065   */\n      iszero\n      tag_156\n      jumpi\n        /* \"#utility.yul\":6984:7063   */\n      tag_157\n      tag_50\n      jump\t// in\n    tag_157:\n        /* \"#utility.yul\":6946:7065   */\n    tag_156:\n        /* \"#utility.yul\":7104:7105   */\n      0x00\n        /* \"#utility.yul\":7129:7182   */\n      tag_158\n        /* \"#utility.yul\":7174:7181   */\n      dup7\n        /* \"#utility.yul\":7165:7171   */\n      dup3\n        /* \"#utility.yul\":7154:7163   */\n      dup8\n        /* \"#utility.yul\":7150:7172   */\n      add\n        /* \"#utility.yul\":7129:7182   */\n      tag_53\n      jump\t// in\n    tag_158:\n        /* \"#utility.yul\":7119:7182   */\n      swap4\n      pop\n        /* \"#utility.yul\":7075:7192   */\n      pop\n        /* \"#utility.yul\":7259:7261   */\n      0x20\n        /* \"#utility.yul\":7248:7257   */\n      dup5\n        /* \"#utility.yul\":7244:7262   */\n      add\n        /* \"#utility.yul\":7231:7263   */\n      calldataload\n        /* \"#utility.yul\":7290:7308   */\n      0xffffffffffffffff\n        /* \"#utility.yul\":7282:7288   */\n      dup2\n        /* \"#utility.yul\":7279:7309   */\n      gt\n        /* \"#utility.yul\":7276:7393   */\n      iszero\n      tag_159\n      jumpi\n        /* \"#utility.yul\":7312:7391   */\n      tag_160\n      tag_51\n      jump\t// in\n    tag_160:\n        /* \"#utility.yul\":7276:7393   */\n    tag_159:\n        /* \"#utility.yul\":7417:7480   */\n      tag_161\n        /* \"#utility.yul\":7472:7479   */\n      dup7\n        /* \"#utility.yul\":7463:7469   */\n      dup3\n        /* \"#utility.yul\":7452:7461   */\n      dup8\n        /* \"#utility.yul\":7448:7470   */\n      add\n        /* \"#utility.yul\":7417:7480   */\n      tag_62\n      jump\t// in\n    tag_161:\n        /* \"#utility.yul\":7407:7480   */\n      swap3\n      pop\n        /* \"#utility.yul\":7202:7490   */\n      pop\n        /* \"#utility.yul\":7529:7531   */\n      0x40\n        /* \"#utility.yul\":7555:7605   */\n      tag_162\n        /* \"#utility.yul\":7597:7604   */\n      dup7\n        /* \"#utility.yul\":7588:7594   */\n      dup3\n        /* \"#utility.yul\":7577:7586   */\n      dup8\n        /* \"#utility.yul\":7573:7595   */\n      add\n        /* \"#utility.yul\":7555:7605   */\n      tag_64\n      jump\t// in\n    tag_162:\n        /* \"#utility.yul\":7545:7605   */\n      swap2\n      pop\n        /* \"#utility.yul\":7500:7615   */\n      pop\n        /* \"#utility.yul\":6829:7622   */\n      swap3\n      pop\n      swap3\n      pop\n      swap3\n      jump\t// out\n        /* \"#utility.yul\":7628:7808   */\n    tag_65:\n        /* \"#utility.yul\":7676:7753   */\n      0x4e487b7100000000000000000000000000000000000000000000000000000000\n        /* \"#utility.yul\":7673:7674   */\n      0x00\n        /* \"#utility.yul\":7666:7754   */\n      mstore\n        /* \"#utility.yul\":7773:7777   */\n      0x22\n        /* \"#utility.yul\":7770:7771   */\n      0x04\n        /* \"#utility.yul\":7763:7778   */\n      mstore\n        /* \"#utility.yul\":7797:7801   */\n      0x24\n        /* \"#utility.yul\":7794:7795   */\n      0x00\n        /* \"#utility.yul\":7787:7802   */\n      revert\n        /* \"#utility.yul\":7814:8134   */\n    tag_19:\n        /* \"#utility.yul\":7858:7864   */\n      0x00\n        /* \"#utility.yul\":7895:7896   */\n      0x02\n        /* \"#utility.yul\":7889:7893   */\n      dup3\n        /* \"#utility.yul\":7885:7897   */\n      div\n        /* \"#utility.yul\":7875:7897   */\n      swap1\n      pop\n        /* \"#utility.yul\":7942:7943   */\n      0x01\n        /* \"#utility.yul\":7936:7940   */\n      dup3\n        /* \"#utility.yul\":7932:7944   */\n      and\n        /* \"#utility.yul\":7963:7981   */\n      dup1\n        /* \"#utility.yul\":7953:8034   */\n      tag_165\n      jumpi\n        /* \"#utility.yul\":8019:8023   */\n      0x7f\n        /* \"#utility.yul\":8011:8017   */\n      dup3\n        /* \"#utility.yul\":8007:8024   */\n      and\n        /* \"#utility.yul\":7997:8024   */\n      swap2\n      pop\n        /* \"#utility.yul\":7953:8034   */\n    tag_165:\n        /* \"#utility.yul\":8081:8083   */\n      0x20\n        /* \"#utility.yul\":8073:8079   */\n      dup3\n        /* \"#utility.yul\":8070:8084   */\n      lt\n        /* \"#utility.yul\":8050:8068   */\n      dup2\n        /* \"#utility.yul\":8047:8085   */\n      sub\n        /* \"#utility.yul\":8044:8128   */\n      tag_166\n      jumpi\n        /* \"#utility.yul\":8100:8118   */\n      tag_167\n      tag_65\n      jump\t// in\n    tag_167:\n        /* \"#utility.yul\":8044:8128   */\n    tag_166:\n        /* \"#utility.yul\":7865:8134   */\n      pop\n        /* \"#utility.yul\":7814:8134   */\n      swap2\n      swap1\n      pop\n      jump\t// out\n        /* \"#utility.yul\":8140:8281   */\n    tag_66:\n        /* \"#utility.yul\":8189:8193   */\n      0x00\n        /* \"#utility.yul\":8212:8215   */\n      dup2\n        /* \"#utility.yul\":8204:8215   */\n      swap1\n      pop\n        /* \"#utility.yul\":8235:8238   */\n      dup2\n        /* \"#utility.yul\":8232:8233   */\n      0x00\n        /* \"#utility.yul\":8225:8239   */\n      mstore\n        /* \"#utility.yul\":8269:8273   */\n      0x20\n        /* \"#utility.yul\":8266:8267   */\n      0x00\n        /* \"#utility.yul\":8256:8274   */\n      keccak256\n        /* \"#utility.yul\":8248:8274   */\n      swap1\n      pop\n        /* \"#utility.yul\":8140:8281   */\n      swap2\n      swap1\n      pop\n      jump\t// out\n        /* \"#utility.yul\":8287:8380   */\n    tag_67:\n        /* \"#utility.yul\":8324:8330   */\n      0x00\n        /* \"#utility.yul\":8371:8373   */\n      0x20\n        /* \"#utility.yul\":8366:8368   */\n      0x1f\n        /* \"#utility.yul\":8359:8364   */\n      dup4\n        /* \"#utility.yul\":8355:8369   */\n      add\n        /* \"#utility.yul\":8351:8374   */\n      div\n        /* \"#utility.yul\":8341:8374   */\n      swap1\n      pop\n        /* \"#utility.yul\":8287:8380   */\n      swap2\n      swap1\n      pop\n      jump\t// out\n        /* \"#utility.yul\":8386:8493   */\n    tag_68:\n        /* \"#utility.yul\":8430:8438   */\n      0x00\n        /* \"#utility.yul\":8480:8485   */\n      dup3\n        /* \"#utility.yul\":8474:8478   */\n      dup3\n        /* \"#utility.yul\":8470:8486   */\n      shl\n        /* \"#utility.yul\":8449:8486   */\n      swap1\n      pop\n        /* \"#utility.yul\":8386:8493   */\n      swap3\n      swap2\n      pop\n      pop\n      jump\t// out\n        /* \"#utility.yul\":8499:8892   */\n    tag_69:\n        /* \"#utility.yul\":8568:8574   */\n      0x00\n        /* \"#utility.yul\":8618:8619   */\n      0x08\n        /* \"#utility.yul\":8606:8616   */\n      dup4\n        /* \"#utility.yul\":8602:8620   */\n      mul\n        /* \"#utility.yul\":8641:8738   */\n      tag_172\n        /* \"#utility.yul\":8671:8737   */\n      0xffffffffffffffffffffffffffffffffffffffffffffffffffffffffffffffff\n        /* \"#utility.yul\":8660:8669   */\n      dup3\n        /* \"#utility.yul\":8641:8738   */\n      tag_68\n      jump\t// in\n    tag_172:\n        /* \"#utility.yul\":8759:8798   */\n      tag_173\n        /* \"#utility.yul\":8789:8797   */\n      dup7\n        /* \"#utility.yul\":8778:8787   */\n      dup4\n        /* \"#utility.yul\":8759:8798   */\n      tag_68\n      jump\t// in\n    tag_173:\n        /* \"#utility.yul\":8747:8798   */\n      swap6\n      pop\n        /* \"#utility.yul\":8831:8835   */\n      dup1\n        /* \"#utility.yul\":8827:8836   */\n      not\n        /* \"#utility.yul\":8820:8825   */\n      dup5\n        /* \"#utility.yul\":8816:8837   */\n      and\n        /* \"#utility.yul\":8807:8837   */\n      swap4\n      pop\n        /* \"#utility.yul\":8880:8884   */\n      dup1\n        /* \"#utility.yul\":8870:8878   */\n      dup7\n        /* \"#utility.yul\":8866:8885   */\n      and\n        /* \"#utility.yul\":8859:8864   */\n      dup5\n        /* \"#utility.yul\":8856:8886   */\n      or\n        /* \"#utility.yul\":8846:8886   */\n      swap3\n      pop\n        /* \"#utility.yul\":8575:8892   */\n      pop\n      pop\n        /* \"#utility.yul\":8499:8892   */\n      swap4\n      swap3\n      pop\n      pop\n      pop\n      jump\t// out\n        /* \"#utility.yul\":8898:8958   */\n    tag_70:\n        /* \"#utility.yul\":8926:8929   */\n      0x00\n        /* \"#utility.yul\":8947:8952   */\n      dup2\n        /* \"#utility.yul\":8940:8952   */\n      swap1\n      pop\n        /* \"#utility.yul\":8898:8958   */\n      swap2\n      swap1\n      pop\n      jump\t// out\n        /* \"#utility.yul\":8964:9106   */\n    tag_71:\n        /* \"#utility.yul\":9014:9023   */\n      0x00\n        /* \"#utility.yul\":9047:9100   */\n      tag_176\n        /* \"#utility.yul\":9065:9099   */\n      tag_177\n        /* \"#utility.yul\":9074:9098   */\n      tag_178\n        /* \"#utility.yul\":9092:9097   */\n      dup5\n        /* \"#utility.yul\":9074:9098   */\n      tag_35\n      jump\t// in\n    tag_178:\n        /* \"#utility.yul\":9065:9099   */\n      tag_70\n      jump\t// in\n    tag_177:\n        /* \"#utility.yul\":9047:9100   */\n      tag_35\n      jump\t// in\n    tag_176:\n        /* \"#utility.yul\":9034:9100   */\n      swap1\n      pop\n        /* \"#utility.yul\":8964:9106   */\n      swap2\n      swap1\n      pop\n      jump\t// out\n        /* \"#utility.yul\":9112:9187   */\n    tag_72:\n        /* \"#utility.yul\":9155:9158   */\n      0x00\n        /* \"#utility.yul\":9176:9181   */\n      dup2\n        /* \"#utility.yul\":9169:9181   */\n      swap1\n      pop\n        /* \"#utility.yul\":9112:9187   */\n      swap2\n      swap1\n      pop\n      jump\t// out\n        /* \"#utility.yul\":9193:9462   */\n    tag_73:\n        /* \"#utility.yul\":9303:9342   */\n      tag_181\n        /* \"#utility.yul\":9334:9341   */\n      dup4\n        /* \"#utility.yul\":9303:9342   */\n      tag_71\n      jump\t// in\n    tag_181:\n        /* \"#utility.yul\":9364:9455   */\n      tag_182\n        /* \"#utility.yul\":9413:9454   */\n      tag_183\n        /* \"#utility.yul\":9437:9453   */\n      dup3\n        /* \"#utility.yul\":9413:9454   */\n      tag_72\n      jump\t// in\n    tag_183:\n        /* \"#utility.yul\":9405:9411   */\n      dup5\n        /* \"#utility.yul\":9398:9402   */\n      dup5\n        /* \"#utility.yul\":9392:9403   */\n      sload\n        /* \"#utility.yul\":9364:9455   */\n      tag_69\n      jump\t// in\n    tag_182:\n        /* \"#utility.yul\":9358:9362   */\n      dup3\n        /* \"#utility.yul\":9351:9456   */\n      sstore\n        /* \"#utility.yul\":9269:9462   */\n      pop\n        /* \"#utility.yul\":9193:9462   */\n      pop\n      pop\n      pop\n      jump\t// out\n        /* \"#utility.yul\":9468:9541   */\n    tag_74:\n        /* \"#utility.yul\":9513:9516   */\n      0x00\n        /* \"#utility.yul\":9534:9535   */\n      0x00\n        /* \"#utility.yul\":9527:9535   */\n      swap1\n      pop\n        /* \"#utility.yul\":9468:9541   */\n      swap1\n      jump\t// out\n        /* \"#utility.yul\":9547:9736   */\n    tag_75:\n        /* \"#utility.yul\":9624:9656   */\n      tag_186\n      tag_74\n      jump\t// in\n    tag_186:\n        /* \"#utility.yul\":9665:9730   */\n      tag_187\n        /* \"#utility.yul\":9723:9729   */\n      dup2\n        /* \"#utility.yul\":9715:9721   */\n      dup5\n        /* \"#utility.yul\":9709:9713   */\n      dup5\n        /* \"#utility.yul\":9665:9730   */\n      tag_73\n      jump\t// in\n    tag_187:\n        /* \"#utility.yul\":9600:9736   */\n      pop\n        /* \"#utility.yul\":9547:9736   */\n      pop\n      pop\n      jump\t// out\n        /* \"#utility.yul\":9742:9928   */\n    tag_76:\n        /* \"#utility.yul\":9802:9922   */\n    tag_189:\n        /* \"#utility.yul\":9819:9822   */\n      dup2\n        /* \"#utility.yul\":9812:9817   */\n      dup2\n        /* \"#utility.yul\":9809:9823   */\n      lt\n        /* \"#utility.yul\":9802:9922   */\n      iszero\n      tag_191\n      jumpi\n        /* \"#utility.yul\":9873:9912   */\n      tag_192\n        /* \"#utility.yul\":9910:9911   */\n      0x00\n        /* \"#utility.yul\":9903:9908   */\n      dup3\n        /* \"#utility.yul\":9873:9912   */\n      tag_75\n      jump\t// in\n    tag_192:\n        /* \"#utility.yul\":9846:9847   */\n      0x01\n        /* \"#utility.yul\":9839:9844   */\n      dup2\n        /* \"#utility.yul\":9835:9848   */\n      add\n        /* \"#utility.yul\":9826:9848   */\n      swap1\n      pop\n        /* \"#utility.yul\":9802:9922   */\n      jump(tag_189)\n    tag_191:\n        /* \"#utility.yul\":9742:9928   */\n      pop\n      pop\n      jump\t// out\n        /* \"#utility.yul\":9934:10477   */\n    tag_77:\n        /* \"#utility.yul\":10035:10037   */\n      0x1f\n        /* \"#utility.yul\":10030:10033   */\n      dup3\n        /* \"#utility.yul\":10027:10038   */\n      gt\n        /* \"#utility.yul\":10024:10470   */\n      iszero\n      tag_194\n      jumpi\n        /* \"#utility.yul\":10069:10107   */\n      tag_195\n        /* \"#utility.yul\":10101:10106   */\n      dup2\n        /* \"#utility.yul\":10069:10107   */\n      tag_66\n      jump\t// in\n    tag_195:\n        /* \"#utility.yul\":10153:10182   */\n      tag_196\n        /* \"#utility.yul\":10171:10181   */\n      dup5\n        /* \"#utility.yul\":10153:10182   */\n      tag_67\n      jump\t// in\n    tag_196:\n        /* \"#utility.yul\":10143:10151   */\n      dup2\n        /* \"#utility.yul\":10139:10183   */\n      add\n        /* \"#utility.yul\":10336:10338   */\n      0x20\n        /* \"#utility.yul\":10324:10334   */\n      dup6\n        /* \"#utility.yul\":10321:10339   */\n      lt\n        /* \"#utility.yul\":10318:10367   */\n      iszero\n      tag_197\n      jumpi\n        /* \"#utility.yul\":10357:10365   */\n      dup2\n        /* \"#utility.yul\":10342:10365   */\n      swap1\n      pop\n        /* \"#utility.yul\":10318:10367   */\n    tag_197:\n        /* \"#utility.yul\":10380:10460   */\n      tag_198\n        /* \"#utility.yul\":10436:10458   */\n      tag_199\n        /* \"#utility.yul\":10454:10457   */\n      dup6\n        /* \"#utility.yul\":10436:10458   */\n      tag_67\n      jump\t// in\n    tag_199:\n        /* \"#utility.yul\":10426:10434   */\n      dup4\n        /* \"#utility.yul\":10422:10459   */\n      add\n        /* \"#utility.yul\":10409:10420   */\n      dup3\n        /* \"#utility.yul\":10380:10460   */\n      tag_76\n      jump\t// in\n    tag_198:\n        /* \"#utility.yul\":10039:10470   */\n      pop\n      pop\n        /* \"#utility.yul\":10024:10470   */\n    tag_194:\n        /* \"#utility.yul\":9934:10477   */\n      pop\n      pop\n      pop\n      jump\t// out\n        /* \"#utility.yul\":10483:10600   */\n    tag_78:\n        /* \"#utility.yul\":10537:10545   */\n      0x00\n        /* \"#utility.yul\":10587:10592   */\n      dup3\n        /* \"#utility.yul\":10581:10585   */\n      dup3\n        /* \"#utility.yul\":10577:10593   */\n      shr\n        /* \"#utility.yul\":10556:10593   */\n      swap1\n      pop\n        /* \"#utility.yul\":10483:10600   */\n      swap3\n      swap2\n      pop\n      pop\n      jump\t// out\n        /* \"#utility.yul\":10606:10775   */\n    tag_79:\n        /* \"#utility.yul\":10650:10656   */\n      0x00\n        /* \"#utility.yul\":10683:10734   */\n      tag_202\n        /* \"#utility.yul\":10731:10732   */\n      0x00\n        /* \"#utility.yul\":10727:10733   */\n      not\n        /* \"#utility.yul\":10719:10724   */\n      dup5\n        /* \"#utility.yul\":10716:10717   */\n      0x08\n        /* \"#utility.yul\":10712:10725   */\n      mul\n        /* \"#utility.yul\":10683:10734   */\n      tag_78\n      jump\t// in\n    tag_202:\n        /* \"#utility.yul\":10679:10735   */\n      not\n        /* \"#utility.yul\":10764:10768   */\n      dup1\n        /* \"#utility.yul\":10758:10762   */\n      dup4\n        /* \"#utility.yul\":10754:10769   */\n      and\n        /* \"#utility.yul\":10744:10769   */\n      swap2\n      pop\n        /* \"#utility.yul\":10657:10775   */\n      pop\n        /* \"#utility.yul\":10606:10775   */\n      swap3\n      swap2\n      pop\n      pop\n      jump\t// out\n        /* \"#utility.yul\":10780:11075   */\n    tag_80:\n        /* \"#utility.yul\":10856:10860   */\n      0x00\n        /* \"#utility.yul\":11002:11031   */\n      tag_204\n        /* \"#utility.yul\":11027:11030   */\n      dup4\n        /* \"#utility.yul\":11021:11025   */\n      dup4\n        /* \"#utility.yul\":11002:11031   */\n      tag_79\n      jump\t// in\n    tag_204:\n        /* \"#utility.yul\":10994:11031   */\n      swap2\n      pop\n        /* \"#utility.yul\":11064:11067   */\n      dup3\n        /* \"#utility.yul\":11061:11062   */\n      0x02\n        /* \"#utility.yul\":11057:11068   */\n      mul\n        /* \"#utility.yul\":11051:11055   */\n      dup3\n        /* \"#utility.yul\":11048:11069   */\n      or\n        /* \"#utility.yul\":11040:11069   */\n      swap1\n      pop\n        /* \"#utility.yul\":10780:11075   */\n      swap3\n      swap2\n      pop\n      pop\n      jump\t// out\n        /* \"#utility.yul\":11080:12475   */\n    tag_34:\n        /* \"#utility.yul\":11197:11234   */\n      tag_206\n        /* \"#utility.yul\":11230:11233   */\n      dup3\n        /* \"#utility.yul\":11197:11234   */\n      tag_37\n      jump\t// in\n    tag_206:\n        /* \"#utility.yul\":11299:11317   */\n      0xffffffffffffffff\n        /* \"#utility.yul\":11291:11297   */\n      dup2\n        /* \"#utility.yul\":11288:11318   */\n      gt\n        /* \"#utility.yul\":11285:11341   */\n      iszero\n      tag_207\n      jumpi\n        /* \"#utility.yul\":11321:11339   */\n      tag_208\n      tag_56\n      jump\t// in\n    tag_208:\n        /* \"#utility.yul\":11285:11341   */\n    tag_207:\n        /* \"#utility.yul\":11365:11403   */\n      tag_209\n        /* \"#utility.yul\":11397:11401   */\n      dup3\n        /* \"#utility.yul\":11391:11402   */\n      sload\n        /* \"#utility.yul\":11365:11403   */\n      tag_19\n      jump\t// in\n    tag_209:\n        /* \"#utility.yul\":11450:11517   */\n      tag_210\n        /* \"#utility.yul\":11510:11516   */\n      dup3\n        /* \"#utility.yul\":11502:11508   */\n      dup3\n        /* \"#utility.yul\":11496:11500   */\n      dup6\n        /* \"#utility.yul\":11450:11517   */\n      tag_77\n      jump\t// in\n    tag_210:\n        /* \"#utility.yul\":11544:11545   */\n      0x00\n        /* \"#utility.yul\":11568:11572   */\n      0x20\n        /* \"#utility.yul\":11555:11572   */\n      swap1\n      pop\n        /* \"#utility.yul\":11600:11602   */\n      0x1f\n        /* \"#utility.yul\":11592:11598   */\n      dup4\n        /* \"#utility.yul\":11589:11603   */\n      gt\n        /* \"#utility.yul\":11617:11618   */\n      0x01\n        /* \"#utility.yul\":11612:12230   */\n      dup2\n      eq\n      tag_212\n      jumpi\n        /* \"#utility.yul\":12274:12275   */\n      0x00\n        /* \"#utility.yul\":12291:12297   */\n      dup5\n        /* \"#utility.yul\":12288:12365   */\n      iszero\n      tag_213\n      jumpi\n        /* \"#utility.yul\":12340:12349   */\n      dup3\n        /* \"#utility.yul\":12335:12338   */\n      dup8\n        /* \"#utility.yul\":12331:12350   */\n      add\n        /* \"#utility.yul\":12325:12351   */\n      mload\n        /* \"#utility.yul\":12316:12351   */\n      swap1\n      pop\n        /* \"#utility.yul\":12288:12365   */\n    tag_213:\n        /* \"#utility.yul\":12391:12458   */\n      tag_214\n        /* \"#utility.yul\":12451:12457   */\n      dup6\n        /* \"#utility.yul\":12444:12449   */\n      dup3\n        /* \"#utility.yul\":12391:12458   */\n      tag_80\n      jump\t// in\n    tag_214:\n        /* \"#utility.yul\":12385:12389   */\n      dup7\n        /* \"#utility.yul\":12378:12459   */\n      sstore\n        /* \"#utility.yul\":12247:12469   */\n      pop\n        /* \"#utility.yul\":11582:12469   */\n      jump(tag_211)\n        /* \"#utility.yul\":11612:12230   */\n    tag_212:\n        /* \"#utility.yul\":11664:11668   */\n      0x1f\n        /* \"#utility.yul\":11660:11669   */\n      not\n        /* \"#utility.yul\":11652:11658   */\n      dup5\n        /* \"#utility.yul\":11648:11670   */\n      and\n        /* \"#utility.yul\":11698:11735   */\n      tag_215\n        /* \"#utility.yul\":11730:11734   */\n      dup7\n        /* \"#utility.yul\":11698:11735   */\n      tag_66\n      jump\t// in\n    tag_215:\n        /* \"#utility.yul\":11757:11758   */\n      0x00\n        /* \"#utility.yul\":11771:11979   */\n    tag_216:\n        /* \"#utility.yul\":11785:11792   */\n      dup3\n        /* \"#utility.yul\":11782:11783   */\n      dup2\n        /* \"#utility.yul\":11779:11793   */\n      lt\n        /* \"#utility.yul\":11771:11979   */\n      iszero\n      tag_218\n      jumpi\n        /* \"#utility.yul\":11864:11873   */\n      dup5\n        /* \"#utility.yul\":11859:11862   */\n      dup10\n        /* \"#utility.yul\":11855:11874   */\n      add\n        /* \"#utility.yul\":11849:11875   */\n      mload\n        /* \"#utility.yul\":11841:11847   */\n      dup3\n        /* \"#utility.yul\":11834:11876   */\n      sstore\n        /* \"#utility.yul\":11915:11916   */\n      0x01\n        /* \"#utility.yul\":11907:11913   */\n      dup3\n        /* \"#utility.yul\":11903:11917   */\n      add\n        /* \"#utility.yul\":11893:11917   */\n      swap2\n      pop\n        /* \"#utility.yul\":11962:11964   */\n      0x20\n        /* \"#utility.yul\":11951:11960   */\n      dup6\n        /* \"#utility.yul\":11947:11965   */\n      add\n        /* \"#utility.yul\":11934:11965   */\n      swap5\n      pop\n        /* \"#utility.yul\":11808:11812   */\n      0x20\n        /* \"#utility.yul\":11805:11806   */\n      dup2\n        /* \"#utility.yul\":11801:11813   */\n      add\n        /* \"#utility.yul\":11796:11813   */\n      swap1\n      pop\n        /* \"#utility.yul\":11771:11979   */\n      jump(tag_216)\n    tag_218:\n        /* \"#utility.yul\":12007:12013   */\n      dup7\n        /* \"#utility.yul\":11998:12005   */\n      dup4\n        /* \"#utility.yul\":11995:12014   */\n      lt\n        /* \"#utility.yul\":11992:12171   */\n      iszero\n      tag_219\n      jumpi\n        /* \"#utility.yul\":12065:12074   */\n      dup5\n        /* \"#utility.yul\":12060:12063   */\n      dup10\n        /* \"#utility.yul\":12056:12075   */\n      add\n        /* \"#utility.yul\":12050:12076   */\n      mload\n        /* \"#utility.yul\":12108:12156   */\n      tag_220\n        /* \"#utility.yul\":12150:12154   */\n      0x1f\n        /* \"#utility.yul\":12142:12148   */\n      dup10\n        /* \"#utility.yul\":12138:12155   */\n      and\n        /* \"#utility.yul\":12127:12136   */\n      dup3\n        /* \"#utility.yul\":12108:12156   */\n      tag_79\n      jump\t// in\n    tag_220:\n        /* \"#utility.yul\":12100:12106   */\n      dup4\n        /* \"#utility.yul\":12093:12157   */\n      sstore\n        /* \"#utility.yul\":12015:12171   */\n      pop\n        /* \"#utility.yul\":11992:12171   */\n    tag_219:\n        /* \"#utility.yul\":12217:12218   */\n      0x01\n        /* \"#utility.yul\":12213:12214   */\n      0x02\n        /* \"#utility.yul\":12205:12211   */\n      dup9\n        /* \"#utility.yul\":12201:12215   */\n      mul\n        /* \"#utility.yul\":12197:12219   */\n      add\n        /* \"#utility.yul\":12191:12195   */\n      dup9\n        /* \"#utility.yul\":12184:12220   */\n      sstore\n        /* \"#utility.yul\":11619:12230   */\n      pop\n      pop\n      pop\n        /* \"#utility.yul\":11582:12469   */\n    tag_211:\n      pop\n        /* \"#utility.yul\":11172:12475   */\n      pop\n      pop\n      pop\n        /* \"#utility.yul\":11080:12475   */\n      pop\n      pop\n      jump\t// out\n\n    auxdata: 0xa264697066735822122044f5d83a22a14afd14e17e5f54c3170004b99746d10e3b83670b15d1fb01ec8f64736f6c634300081c0033\n}\n",
				"bytecode": {
					"linkReferences": {},
					"object": "6080604052348015600e575f5ffd5b5061091c8061001c5f395ff3fe608060405234801561000f575f5ffd5b506004361061003f575f3560e01c8063582ab4c9146100435780636d4ce63c14610063578063b3a6400114610081575b5f5ffd5b61004b61009d565b60405161005a9392919061030e565b60405180910390f35b61006b610145565b60405161007891906103fd565b60405180910390f35b61009b600480360381019061009691906105ae565b610211565b005b5f805f0154908060010180546100b290610647565b80601f01602080910402602001604051908101604052809291908181526020018280546100de90610647565b80156101295780601f1061010057610100808354040283529160200191610129565b820191905f5260205f20905b81548152906001019060200180831161010c57829003601f168201915b505050505090806002015f9054906101000a900460ff16905083565b61014d61024b565b5f6040518060600160405290815f820154815260200160018201805461017290610647565b80601f016020809104026020016040519081016040528092919081815260200182805461019e90610647565b80156101e95780601f106101c0576101008083540402835291602001916101e9565b820191905f5260205f20905b8154815290600101906020018083116101cc57829003601f168201915b50505050508152602001600282015f9054906101000a900460ff161515151581525050905090565b825f5f0181905550815f600101908161022a9190610817565b50805f6002015f6101000a81548160ff021916908315150217905550505050565b60405180606001604052805f8152602001606081526020015f151581525090565b5f819050919050565b61027e8161026c565b82525050565b5f81519050919050565b5f82825260208201905092915050565b8281835e5f83830152505050565b5f601f19601f8301169050919050565b5f6102c682610284565b6102d0818561028e565b93506102e081856020860161029e565b6102e9816102ac565b840191505092915050565b5f8115159050919050565b610308816102f4565b82525050565b5f6060820190506103215f830186610275565b818103602083015261033381856102bc565b905061034260408301846102ff565b949350505050565b6103538161026c565b82525050565b5f82825260208201905092915050565b5f61037382610284565b61037d8185610359565b935061038d81856020860161029e565b610396816102ac565b840191505092915050565b6103aa816102f4565b82525050565b5f606083015f8301516103c55f86018261034a565b50602083015184820360208601526103dd8282610369565b91505060408301516103f260408601826103a1565b508091505092915050565b5f6020820190508181035f83015261041581846103b0565b905092915050565b5f604051905090565b5f5ffd5b5f5ffd5b6104378161026c565b8114610441575f5ffd5b50565b5f813590506104528161042e565b92915050565b5f5ffd5b5f5ffd5b7f4e487b71000000000000000000000000000000000000000000000000000000005f52604160045260245ffd5b610496826102ac565b810181811067ffffffffffffffff821117156104b5576104b4610460565b5b80604052505050565b5f6104c761041d565b90506104d3828261048d565b919050565b5f67ffffffffffffffff8211156104f2576104f1610460565b5b6104fb826102ac565b9050602081019050919050565b828183375f83830152505050565b5f610528610523846104d8565b6104be565b9050828152602081018484840111156105445761054361045c565b5b61054f848285610508565b509392505050565b5f82601f83011261056b5761056a610458565b5b813561057b848260208601610516565b91505092915050565b61058d816102f4565b8114610597575f5ffd5b50565b5f813590506105a881610584565b92915050565b5f5f5f606084860312156105c5576105c4610426565b5b5f6105d286828701610444565b935050602084013567ffffffffffffffff8111156105f3576105f261042a565b5b6105ff86828701610557565b92505060406106108682870161059a565b9150509250925092565b7f4e487b71000000000000000000000000000000000000000000000000000000005f52602260045260245ffd5b5f600282049050600182168061065e57607f821691505b6020821081036106715761067061061a565b5b50919050565b5f819050815f5260205f209050919050565b5f6020601f8301049050919050565b5f82821b905092915050565b5f600883026106d37fffffffffffffffffffffffffffffffffffffffffffffffffffffffffffffffff82610698565b6106dd8683610698565b95508019841693508086168417925050509392505050565b5f819050919050565b5f61071861071361070e8461026c565b6106f5565b61026c565b9050919050565b5f819050919050565b610731836106fe565b61074561073d8261071f565b8484546106a4565b825550505050565b5f5f905090565b61075c61074d565b610767818484610728565b505050565b5b8181101561078a5761077f5f82610754565b60018101905061076d565b5050565b601f8211156107cf576107a081610677565b6107a984610689565b810160208510156107b8578190505b6107cc6107c485610689565b83018261076c565b50505b505050565b5f82821c905092915050565b5f6107ef5f19846008026107d4565b1980831691505092915050565b5f61080783836107e0565b9150826002028217905092915050565b61082082610284565b67ffffffffffffffff81111561083957610838610460565b5b6108438254610647565b61084e82828561078e565b5f60209050601f83116001811461087f575f841561086d578287015190505b61087785826107fc565b8655506108de565b601f19841661088d86610677565b5f5b828110156108b45784890151825560018201915060208501945060208101905061088f565b868310156108d157848901516108cd601f8916826107e0565b8355505b6001600288020188555050505b50505050505056fea264697066735822122044f5d83a22a14afd14e17e5f54c3170004b99746d10e3b83670b15d1fb01ec8f64736f6c634300081c0033",
					"opcodes": "PUSH1 0x80 PUSH1 0x40 MSTORE CALLVALUE DUP1 ISZERO PUSH1 0xE JUMPI PUSH0 PUSH0 REVERT JUMPDEST POP PUSH2 0x91C DUP1 PUSH2 0x1C PUSH0 CODECOPY PUSH0 RETURN INVALID PUSH1 0x80 PUSH1 0x40 MSTORE CALLVALUE DUP1 ISZERO PUSH2 0xF JUMPI PUSH0 PUSH0 REVERT JUMPDEST POP PUSH1 0x4 CALLDATASIZE LT PUSH2 0x3F JUMPI PUSH0 CALLDATALOAD PUSH1 0xE0 SHR DUP1 PUSH4 0x582AB4C9 EQ PUSH2 0x43 JUMPI DUP1 PUSH4 0x6D4CE63C EQ PUSH2 0x63 JUMPI DUP1 PUSH4 0xB3A64001 EQ PUSH2 0x81 JUMPI JUMPDEST PUSH0 PUSH0 REVERT JUMPDEST PUSH2 0x4B PUSH2 0x9D JUMP JUMPDEST PUSH1 0x40 MLOAD PUSH2 0x5A SWAP4 SWAP3 SWAP2 SWAP1 PUSH2 0x30E JUMP JUMPDEST PUSH1 0x40 MLOAD DUP1 SWAP2 SUB SWAP1 RETURN JUMPDEST PUSH2 0x6B PUSH2 0x145 JUMP JUMPDEST PUSH1 0x40 MLOAD PUSH2 0x78 SWAP2 SWAP1 PUSH2 0x3FD JUMP JUMPDEST PUSH1 0x40 MLOAD DUP1 SWAP2 SUB SWAP1 RETURN JUMPDEST PUSH2 0x9B PUSH1 0x4 DUP1 CALLDATASIZE SUB DUP2 ADD SWAP1 PUSH2 0x96 SWAP2 SWAP1 PUSH2 0x5AE JUMP JUMPDEST PUSH2 0x211 JUMP JUMPDEST STOP JUMPDEST PUSH0 DUP1 PUSH0 ADD SLOAD SWAP1 DUP1 PUSH1 0x1 ADD DUP1 SLOAD PUSH2 0xB2 SWAP1 PUSH2 0x647 JUMP JUMPDEST DUP1 PUSH1 0x1F ADD PUSH1 0x20 DUP1 SWAP2 DIV MUL PUSH1 0x20 ADD PUSH1 0x40 MLOAD SWAP1 DUP2 ADD PUSH1 0x40 MSTORE DUP1 SWAP3 SWAP2 SWAP1 DUP2 DUP2 MSTORE PUSH1 0x20 ADD DUP3 DUP1 SLOAD PUSH2 0xDE SWAP1 PUSH2 0x647 JUMP JUMPDEST DUP1 ISZERO PUSH2 0x129 JUMPI DUP1 PUSH1 0x1F LT PUSH2 0x100 JUMPI PUSH2 0x100 DUP1 DUP4 SLOAD DIV MUL DUP4 MSTORE SWAP2 PUSH1 0x20 ADD SWAP2 PUSH2 0x129 JUMP JUMPDEST DUP3 ADD SWAP2 SWAP1 PUSH0 MSTORE PUSH1 0x20 PUSH0 KECCAK256 SWAP1 JUMPDEST DUP2 SLOAD DUP2 MSTORE SWAP1 PUSH1 0x1 ADD SWAP1 PUSH1 0x20 ADD DUP1 DUP4 GT PUSH2 0x10C JUMPI DUP3 SWAP1 SUB PUSH1 0x1F AND DUP3 ADD SWAP2 JUMPDEST POP POP POP POP POP SWAP1 DUP1 PUSH1 0x2 ADD PUSH0 SWAP1 SLOAD SWAP1 PUSH2 0x100 EXP SWAP1 DIV PUSH1 0xFF AND SWAP1 POP DUP4 JUMP JUMPDEST PUSH2 0x14D PUSH2 0x24B JUMP JUMPDEST PUSH0 PUSH1 0x40 MLOAD DUP1 PUSH1 0x60 ADD PUSH1 0x40 MSTORE SWAP1 DUP2 PUSH0 DUP3 ADD SLOAD DUP2 MSTORE PUSH1 0x20 ADD PUSH1 0x1 DUP3 ADD DUP1 SLOAD PUSH2 0x172 SWAP1 PUSH2 0x647 JUMP JUMPDEST DUP1 PUSH1 0x1F ADD PUSH1 0x20 DUP1 SWAP2 DIV MUL PUSH1 0x20 ADD PUSH1 0x40 MLOAD SWAP1 DUP2 ADD PUSH1 0x40 MSTORE DUP1 SWAP3 SWAP2 SWAP1 DUP2 DUP2 MSTORE PUSH1 0x20 ADD DUP3 DUP1 SLOAD PUSH2 0x19E SWAP1 PUSH2 0x647 JUMP JUMPDEST DUP1 ISZERO PUSH2 0x1E9 JUMPI DUP1 PUSH1 0x1F LT PUSH2 0x1C0 JUMPI PUSH2 0x100 DUP1 DUP4 SLOAD DIV MUL DUP4 MSTORE SWAP2 PUSH1 0x20 ADD SWAP2 PUSH2 0x1E9 JUMP JUMPDEST DUP3 ADD SWAP2 SWAP1 PUSH0 MSTORE PUSH1 0x20 PUSH0 KECCAK256 SWAP1 JUMPDEST DUP2 SLOAD DUP2 MSTORE SWAP1 PUSH1 0x1 ADD SWAP1 PUSH1 0x20 ADD DUP1 DUP4 GT PUSH2 0x1CC JUMPI DUP3 SWAP1 SUB PUSH1 0x1F AND DUP3 ADD SWAP2 JUMPDEST POP POP POP POP POP DUP2 MSTORE PUSH1 0x20 ADD PUSH1 0x2 DUP3 ADD PUSH0 SWAP1 SLOAD SWAP1 PUSH2 0x100 EXP SWAP1 DIV PUSH1 0xFF AND ISZERO ISZERO ISZERO ISZERO DUP2 MSTORE POP POP SWAP1 POP SWAP1 JUMP JUMPDEST DUP3 PUSH0 PUSH0 ADD DUP2 SWAP1 SSTORE POP DUP2 PUSH0 PUSH1 0x1 ADD SWAP1 DUP2 PUSH2 0x22A SWAP2 SWAP1 PUSH2 0x817 JUMP JUMPDEST POP DUP1 PUSH0 PUSH1 0x2 ADD PUSH0 PUSH2 0x100 EXP DUP2 SLOAD DUP2 PUSH1 0xFF MUL NOT AND SWAP1 DUP4 ISZERO ISZERO MUL OR SWAP1 SSTORE POP POP POP POP JUMP JUMPDEST PUSH1 0x40 MLOAD DUP1 PUSH1 0x60 ADD PUSH1 0x40 MSTORE DUP1 PUSH0 DUP2 MSTORE PUSH1 0x20 ADD PUSH1 0x60 DUP2 MSTORE PUSH1 0x20 ADD PUSH0 ISZERO ISZERO DUP2 MSTORE POP SWAP1 JUMP JUMPDEST PUSH0 DUP2 SWAP1 POP SWAP2 SWAP1 POP JUMP JUMPDEST PUSH2 0x27E DUP2 PUSH2 0x26C JUMP JUMPDEST DUP3 MSTORE POP POP JUMP JUMPDEST PUSH0 DUP2 MLOAD SWAP1 POP SWAP2 SWAP1 POP JUMP JUMPDEST PUSH0 DUP3 DUP3 MSTORE PUSH1 0x20 DUP3 ADD SWAP1 POP SWAP3 SWAP2 POP POP JUMP JUMPDEST DUP3 DUP2 DUP4 MCOPY PUSH0 DUP4 DUP4 ADD MSTORE POP POP POP JUMP JUMPDEST PUSH0 PUSH1 0x1F NOT PUSH1 0x1F DUP4 ADD AND SWAP1 POP SWAP2 SWAP1 POP JUMP JUMPDEST PUSH0 PUSH2 0x2C6 DUP3 PUSH2 0x284 JUMP JUMPDEST PUSH2 0x2D0 DUP2 DUP6 PUSH2 0x28E JUMP JUMPDEST SWAP4 POP PUSH2 0x2E0 DUP2 DUP6 PUSH1 0x20 DUP7 ADD PUSH2 0x29E JUMP JUMPDEST PUSH2 0x2E9 DUP2 PUSH2 0x2AC JUMP JUMPDEST DUP5 ADD SWAP2 POP POP SWAP3 SWAP2 POP POP JUMP JUMPDEST PUSH0 DUP2 ISZERO ISZERO SWAP1 POP SWAP2 SWAP1 POP JUMP JUMPDEST PUSH2 0x308 DUP2 PUSH2 0x2F4 JUMP JUMPDEST DUP3 MSTORE POP POP JUMP JUMPDEST PUSH0 PUSH1 0x60 DUP3 ADD SWAP1 POP PUSH2 0x321 PUSH0 DUP4 ADD DUP7 PUSH2 0x275 JUMP JUMPDEST DUP2 DUP2 SUB PUSH1 0x20 DUP4 ADD MSTORE PUSH2 0x333 DUP2 DUP6 PUSH2 0x2BC JUMP JUMPDEST SWAP1 POP PUSH2 0x342 PUSH1 0x40 DUP4 ADD DUP5 PUSH2 0x2FF JUMP JUMPDEST SWAP5 SWAP4 POP POP POP POP JUMP JUMPDEST PUSH2 0x353 DUP2 PUSH2 0x26C JUMP JUMPDEST DUP3 MSTORE POP POP JUMP JUMPDEST PUSH0 DUP3 DUP3 MSTORE PUSH1 0x20 DUP3 ADD SWAP1 POP SWAP3 SWAP2 POP POP JUMP JUMPDEST PUSH0 PUSH2 0x373 DUP3 PUSH2 0x284 JUMP JUMPDEST PUSH2 0x37D DUP2 DUP6 PUSH2 0x359 JUMP JUMPDEST SWAP4 POP PUSH2 0x38D DUP2 DUP6 PUSH1 0x20 DUP7 ADD PUSH2 0x29E JUMP JUMPDEST PUSH2 0x396 DUP2 PUSH2 0x2AC JUMP JUMPDEST DUP5 ADD SWAP2 POP POP SWAP3 SWAP2 POP POP JUMP JUMPDEST PUSH2 0x3AA DUP2 PUSH2 0x2F4 JUMP JUMPDEST DUP3 MSTORE POP POP JUMP JUMPDEST PUSH0 PUSH1 0x60 DUP4 ADD PUSH0 DUP4 ADD MLOAD PUSH2 0x3C5 PUSH0 DUP7 ADD DUP3 PUSH2 0x34A JUMP JUMPDEST POP PUSH1 0x20 DUP4 ADD MLOAD DUP5 DUP3 SUB PUSH1 0x20 DUP7 ADD MSTORE PUSH2 0x3DD DUP3 DUP3 PUSH2 0x369 JUMP JUMPDEST SWAP2 POP POP PUSH1 0x40 DUP4 ADD MLOAD PUSH2 0x3F2 PUSH1 0x40 DUP7 ADD DUP3 PUSH2 0x3A1 JUMP JUMPDEST POP DUP1 SWAP2 POP POP SWAP3 SWAP2 POP POP JUMP JUMPDEST PUSH0 PUSH1 0x20 DUP3 ADD SWAP1 POP DUP2 DUP2 SUB PUSH0 DUP4 ADD MSTORE PUSH2 0x415 DUP2 DUP5 PUSH2 0x3B0 JUMP JUMPDEST SWAP1 POP SWAP3 SWAP2 POP POP JUMP JUMPDEST PUSH0 PUSH1 0x40 MLOAD SWAP1 POP SWAP1 JUMP JUMPDEST PUSH0 PUSH0 REVERT JUMPDEST PUSH0 PUSH0 REVERT JUMPDEST PUSH2 0x437 DUP2 PUSH2 0x26C JUMP JUMPDEST DUP2 EQ PUSH2 0x441 JUMPI PUSH0 PUSH0 REVERT JUMPDEST POP JUMP JUMPDEST PUSH0 DUP2 CALLDATALOAD SWAP1 POP PUSH2 0x452 DUP2 PUSH2 0x42E JUMP JUMPDEST SWAP3 SWAP2 POP POP JUMP JUMPDEST PUSH0 PUSH0 REVERT JUMPDEST PUSH0 PUSH0 REVERT JUMPDEST PUSH32 0x4E487B7100000000000000000000000000000000000000000000000000000000 PUSH0 MSTORE PUSH1 0x41 PUSH1 0x4 MSTORE PUSH1 0x24 PUSH0 REVERT JUMPDEST PUSH2 0x496 DUP3 PUSH2 0x2AC JUMP JUMPDEST DUP2 ADD DUP2 DUP2 LT PUSH8 0xFFFFFFFFFFFFFFFF DUP3 GT OR ISZERO PUSH2 0x4B5 JUMPI PUSH2 0x4B4 PUSH2 0x460 JUMP JUMPDEST JUMPDEST DUP1 PUSH1 0x40 MSTORE POP POP POP JUMP JUMPDEST PUSH0 PUSH2 0x4C7 PUSH2 0x41D JUMP JUMPDEST SWAP1 POP PUSH2 0x4D3 DUP3 DUP3 PUSH2 0x48D JUMP JUMPDEST SWAP2 SWAP1 POP JUMP JUMPDEST PUSH0 PUSH8 0xFFFFFFFFFFFFFFFF DUP3 GT ISZERO PUSH2 0x4F2 JUMPI PUSH2 0x4F1 PUSH2 0x460 JUMP JUMPDEST JUMPDEST PUSH2 0x4FB DUP3 PUSH2 0x2AC JUMP JUMPDEST SWAP1 POP PUSH1 0x20 DUP2 ADD SWAP1 POP SWAP2 SWAP1 POP JUMP JUMPDEST DUP3 DUP2 DUP4 CALLDATACOPY PUSH0 DUP4 DUP4 ADD MSTORE POP POP POP JUMP JUMPDEST PUSH0 PUSH2 0x528 PUSH2 0x523 DUP5 PUSH2 0x4D8 JUMP JUMPDEST PUSH2 0x4BE JUMP JUMPDEST SWAP1 POP DUP3 DUP2 MSTORE PUSH1 0x20 DUP2 ADD DUP5 DUP5 DUP5 ADD GT ISZERO PUSH2 0x544 JUMPI PUSH2 0x543 PUSH2 0x45C JUMP JUMPDEST JUMPDEST PUSH2 0x54F DUP5 DUP3 DUP6 PUSH2 0x508 JUMP JUMPDEST POP SWAP4 SWAP3 POP POP POP JUMP JUMPDEST PUSH0 DUP3 PUSH1 0x1F DUP4 ADD SLT PUSH2 0x56B JUMPI PUSH2 0x56A PUSH2 0x458 JUMP JUMPDEST JUMPDEST DUP2 CALLDATALOAD PUSH2 0x57B DUP5 DUP3 PUSH1 0x20 DUP7 ADD PUSH2 0x516 JUMP JUMPDEST SWAP2 POP POP SWAP3 SWAP2 POP POP JUMP JUMPDEST PUSH2 0x58D DUP2 PUSH2 0x2F4 JUMP JUMPDEST DUP2 EQ PUSH2 0x597 JUMPI PUSH0 PUSH0 REVERT JUMPDEST POP JUMP JUMPDEST PUSH0 DUP2 CALLDATALOAD SWAP1 POP PUSH2 0x5A8 DUP2 PUSH2 0x584 JUMP JUMPDEST SWAP3 SWAP2 POP POP JUMP JUMPDEST PUSH0 PUSH0 PUSH0 PUSH1 0x60 DUP5 DUP7 SUB SLT ISZERO PUSH2 0x5C5 JUMPI PUSH2 0x5C4 PUSH2 0x426 JUMP JUMPDEST JUMPDEST PUSH0 PUSH2 0x5D2 DUP7 DUP3 DUP8 ADD PUSH2 0x444 JUMP JUMPDEST SWAP4 POP POP PUSH1 0x20 DUP5 ADD CALLDATALOAD PUSH8 0xFFFFFFFFFFFFFFFF DUP2 GT ISZERO PUSH2 0x5F3 JUMPI PUSH2 0x5F2 PUSH2 0x42A JUMP JUMPDEST JUMPDEST PUSH2 0x5FF DUP7 DUP3 DUP8 ADD PUSH2 0x557 JUMP JUMPDEST SWAP3 POP POP PUSH1 0x40 PUSH2 0x610 DUP7 DUP3 DUP8 ADD PUSH2 0x59A JUMP JUMPDEST SWAP2 POP POP SWAP3 POP SWAP3 POP SWAP3 JUMP JUMPDEST PUSH32 0x4E487B7100000000000000000000000000000000000000000000000000000000 PUSH0 MSTORE PUSH1 0x22 PUSH1 0x4 MSTORE PUSH1 0x24 PUSH0 REVERT JUMPDEST PUSH0 PUSH1 0x2 DUP3 DIV SWAP1 POP PUSH1 0x1 DUP3 AND DUP1 PUSH2 0x65E JUMPI PUSH1 0x7F DUP3 AND SWAP2 POP JUMPDEST PUSH1 0x20 DUP3 LT DUP2 SUB PUSH2 0x671 JUMPI PUSH2 0x670 PUSH2 0x61A JUMP JUMPDEST JUMPDEST POP SWAP2 SWAP1 POP JUMP JUMPDEST PUSH0 DUP2 SWAP1 POP DUP2 PUSH0 MSTORE PUSH1 0x20 PUSH0 KECCAK256 SWAP1 POP SWAP2 SWAP1 POP JUMP JUMPDEST PUSH0 PUSH1 0x20 PUSH1 0x1F DUP4 ADD DIV SWAP1 POP SWAP2 SWAP1 POP JUMP JUMPDEST PUSH0 DUP3 DUP3 SHL SWAP1 POP SWAP3 SWAP2 POP POP JUMP JUMPDEST PUSH0 PUSH1 0x8 DUP4 MUL PUSH2 0x6D3 PUSH32 0xFFFFFFFFFFFFFFFFFFFFFFFFFFFFFFFFFFFFFFFFFFFFFFFFFFFFFFFFFFFFFFFF DUP3 PUSH2 0x698 JUMP JUMPDEST PUSH2 0x6DD DUP7 DUP4 PUSH2 0x698 JUMP JUMPDEST SWAP6 POP DUP1 NOT DUP5 AND SWAP4 POP DUP1 DUP7 AND DUP5 OR SWAP3 POP POP POP SWAP4 SWAP3 POP POP POP JUMP JUMPDEST PUSH0 DUP2 SWAP1 POP SWAP2 SWAP1 POP JUMP JUMPDEST PUSH0 PUSH2 0x718 PUSH2 0x713 PUSH2 0x70E DUP5 PUSH2 0x26C JUMP JUMPDEST PUSH2 0x6F5 JUMP JUMPDEST PUSH2 0x26C JUMP JUMPDEST SWAP1 POP SWAP2 SWAP1 POP JUMP JUMPDEST PUSH0 DUP2 SWAP1 POP SWAP2 SWAP1 POP JUMP JUMPDEST PUSH2 0x731 DUP4 PUSH2 0x6FE JUMP JUMPDEST PUSH2 0x745 PUSH2 0x73D DUP3 PUSH2 0x71F JUMP JUMPDEST DUP5 DUP5 SLOAD PUSH2 0x6A4 JUMP JUMPDEST DUP3 SSTORE POP POP POP POP JUMP JUMPDEST PUSH0 PUSH0 SWAP1 POP SWAP1 JUMP JUMPDEST PUSH2 0x75C PUSH2 0x74D JUMP JUMPDEST PUSH2 0x767 DUP2 DUP5 DUP5 PUSH2 0x728 JUMP JUMPDEST POP POP POP JUMP JUMPDEST JUMPDEST DUP2 DUP2 LT ISZERO PUSH2 0x78A JUMPI PUSH2 0x77F PUSH0 DUP3 PUSH2 0x754 JUMP JUMPDEST PUSH1 0x1 DUP2 ADD SWAP1 POP PUSH2 0x76D JUMP JUMPDEST POP POP JUMP JUMPDEST PUSH1 0x1F DUP3 GT ISZERO PUSH2 0x7CF JUMPI PUSH2 0x7A0 DUP2 PUSH2 0x677 JUMP JUMPDEST PUSH2 0x7A9 DUP5 PUSH2 0x689 JUMP JUMPDEST DUP2 ADD PUSH1 0x20 DUP6 LT ISZERO PUSH2 0x7B8 JUMPI DUP2 SWAP1 POP JUMPDEST PUSH2 0x7CC PUSH2 0x7C4 DUP6 PUSH2 0x689 JUMP JUMPDEST DUP4 ADD DUP3 PUSH2 0x76C JUMP JUMPDEST POP POP JUMPDEST POP POP POP JUMP JUMPDEST PUSH0 DUP3 DUP3 SHR SWAP1 POP SWAP3 SWAP2 POP POP JUMP JUMPDEST PUSH0 PUSH2 0x7EF PUSH0 NOT DUP5 PUSH1 0x8 MUL PUSH2 0x7D4 JUMP JUMPDEST NOT DUP1 DUP4 AND SWAP2 POP POP SWAP3 SWAP2 POP POP JUMP JUMPDEST PUSH0 PUSH2 0x807 DUP4 DUP4 PUSH2 0x7E0 JUMP JUMPDEST SWAP2 POP DUP3 PUSH1 0x2 MUL DUP3 OR SWAP1 POP SWAP3 SWAP2 POP POP JUMP JUMPDEST PUSH2 0x820 DUP3 PUSH2 0x284 JUMP JUMPDEST PUSH8 0xFFFFFFFFFFFFFFFF DUP2 GT ISZERO PUSH2 0x839 JUMPI PUSH2 0x838 PUSH2 0x460 JUMP JUMPDEST JUMPDEST PUSH2 0x843 DUP3 SLOAD PUSH2 0x647 JUMP JUMPDEST PUSH2 0x84E DUP3 DUP3 DUP6 PUSH2 0x78E JUMP JUMPDEST PUSH0 PUSH1 0x20 SWAP1 POP PUSH1 0x1F DUP4 GT PUSH1 0x1 DUP2 EQ PUSH2 0x87F JUMPI PUSH0 DUP5 ISZERO PUSH2 0x86D JUMPI DUP3 DUP8 ADD MLOAD SWAP1 POP JUMPDEST PUSH2 0x877 DUP6 DUP3 PUSH2 0x7FC JUMP JUMPDEST DUP7 SSTORE POP PUSH2 0x8DE JUMP JUMPDEST PUSH1 0x1F NOT DUP5 AND PUSH2 0x88D DUP7 PUSH2 0x677 JUMP JUMPDEST PUSH0 JUMPDEST DUP3 DUP2 LT ISZERO PUSH2 0x8B4 JUMPI DUP5 DUP10 ADD MLOAD DUP3 SSTORE PUSH1 0x1 DUP3 ADD SWAP2 POP PUSH1 0x20 DUP6 ADD SWAP5 POP PUSH1 0x20 DUP2 ADD SWAP1 POP PUSH2 0x88F JUMP JUMPDEST DUP7 DUP4 LT ISZERO PUSH2 0x8D1 JUMPI DUP5 DUP10 ADD MLOAD PUSH2 0x8CD PUSH1 0x1F DUP10 AND DUP3 PUSH2 0x7E0 JUMP JUMPDEST DUP4 SSTORE POP JUMPDEST PUSH1 0x1 PUSH1 0x2 DUP9 MUL ADD DUP9 SSTORE POP POP POP JUMPDEST POP POP POP POP POP POP JUMP INVALID LOG2 PUSH5 0x6970667358 0x22 SLT KECCAK256 PREVRANDAO CREATE2 0xD8 GASPRICE 0x22 LOG1 BLOBBASEFEE REVERT EQ 0xE1 PUSH31 0x5F54C3170004B99746D10E3B83670B15D1FB01EC8F64736F6C634300081C00 CALLER "
				},
				"gasEstimates": {
					"creation": {
						"codeDepositCost": "466400",
						"executionCost": "497",
						"totalCost": "466897"
					},
					"external": {
						"get()": "infinite",
						"set(uint256,string,bool)": "infinite",
						"userdetails()": "infinite"
					}
				},
				"methodIdentifiers": {
					"get()": "6d4ce63c",
					"set(uint256,string,bool)": "b3a64001",
					"userdetails()": "582ab4c9"
				}
			},
			"storageLayout": {
				"storage": [
					{
						"astId": 135,
						"contract": "contracts/SolByExample.sol:Struct",
						"label": "userdetails",
						"offset": 0,
						"slot": "0",
						"type": "t_struct(Userdetails)132_storage"
					}
				],
				"types": {
					"t_bool": {
						"encoding": "inplace",
						"label": "bool",
						"numberOfBytes": "1"
					},
					"t_string_storage": {
						"encoding": "bytes",
						"label": "string",
						"numberOfBytes": "32"
					},
					"t_struct(Userdetails)132_storage": {
						"encoding": "inplace",
						"label": "struct Struct.Userdetails",
						"members": [
							{
								"astId": 127,
								"contract": "contracts/SolByExample.sol:Struct",
								"label": "id",
								"offset": 0,
								"slot": "0",
								"type": "t_uint256"
							},
							{
								"astId": 129,
								"contract": "contracts/SolByExample.sol:Struct",
								"label": "name",
								"offset": 0,
								"slot": "1",
								"type": "t_string_storage"
							},
							{
								"astId": 131,
								"contract": "contracts/SolByExample.sol:Struct",
								"label": "married",
								"offset": 0,
								"slot": "2",
								"type": "t_bool"
							}
						],
						"numberOfBytes": "96"
					},
					"t_uint256": {
						"encoding": "inplace",
						"label": "uint256",
						"numberOfBytes": "32"
					}
				}
			},
			"userdoc": {
				"kind": "user",
				"methods": {},
				"version": 1
			}
		}
	}
}