{
	"contracts/SolByExample.sol": {
		"A": {
			"abi": [
				{
					"anonymous": false,
					"inputs": [
						{
							"indexed": false,
							"internalType": "address",
							"name": "ca",
							"type": "address"
						},
						{
							"indexed": false,
							"internalType": "uint256",
							"name": "amount",
							"type": "uint256"
						},
						{
							"indexed": false,
							"internalType": "bool",
							"name": "res",
							"type": "bool"
						}
					],
					"name": "delegateRes",
					"type": "event"
				},
				{
					"inputs": [
						{
							"internalType": "address payable",
							"name": "_CA",
							"type": "address"
						},
						{
							"internalType": "uint256",
							"name": "_num",
							"type": "uint256"
						}
					],
					"name": "modify",
					"outputs": [],
					"stateMutability": "payable",
					"type": "function"
				},
				{
					"inputs": [],
					"name": "num",
					"outputs": [
						{
							"internalType": "uint256",
							"name": "",
							"type": "uint256"
						}
					],
					"stateMutability": "view",
					"type": "function"
				}
			],
			"devdoc": {
				"kind": "dev",
				"methods": {},
				"version": 1
			},
			"evm": {
				"assembly": "    /* \"contracts/SolByExample.sol\":248:602  contract A{... */\n  mstore(0x40, 0x80)\n  callvalue\n  dup1\n  iszero\n  tag_1\n  jumpi\n  0x00\n  dup1\n  revert\ntag_1:\n  pop\n  dataSize(sub_0)\n  dup1\n  dataOffset(sub_0)\n  0x00\n  codecopy\n  0x00\n  return\nstop\n\nsub_0: assembly {\n        /* \"contracts/SolByExample.sol\":248:602  contract A{... */\n      mstore(0x40, 0x80)\n      jumpi(tag_1, lt(calldatasize, 0x04))\n      shr(0xe0, calldataload(0x00))\n      dup1\n      0x4e70b1dc\n      eq\n      tag_2\n      jumpi\n      dup1\n      0x96a418d4\n      eq\n      tag_3\n      jumpi\n    tag_1:\n      0x00\n      dup1\n      revert\n        /* \"contracts/SolByExample.sol\":266:284  uint256 public num */\n    tag_2:\n      callvalue\n      dup1\n      iszero\n      tag_4\n      jumpi\n      0x00\n      dup1\n      revert\n    tag_4:\n      pop\n      tag_5\n      tag_6\n      jump\t// in\n    tag_5:\n      mload(0x40)\n      tag_7\n      swap2\n      swap1\n      tag_8\n      jump\t// in\n    tag_7:\n      mload(0x40)\n      dup1\n      swap2\n      sub\n      swap1\n      return\n        /* \"contracts/SolByExample.sol\":372:593  function modify(address payable  _CA, uint256 _num) public payable  {... */\n    tag_3:\n      tag_9\n      0x04\n      dup1\n      calldatasize\n      sub\n      dup2\n      add\n      swap1\n      tag_10\n      swap2\n      swap1\n      tag_11\n      jump\t// in\n    tag_10:\n      tag_12\n      jump\t// in\n    tag_9:\n      stop\n        /* \"contracts/SolByExample.sol\":266:284  uint256 public num */\n    tag_6:\n      sload(0x00)\n      dup2\n      jump\t// out\n        /* \"contracts/SolByExample.sol\":372:593  function modify(address payable  _CA, uint256 _num) public payable  {... */\n    tag_12:\n        /* \"contracts/SolByExample.sol\":448:460  bool success */\n      0x00\n        /* \"contracts/SolByExample.sol\":465:468  _CA */\n      dup3\n        /* \"contracts/SolByExample.sol\":465:481  _CA.delegatecall */\n      0xffffffffffffffffffffffffffffffffffffffff\n      and\n        /* \"contracts/SolByExample.sol\":530:534  _num */\n      dup3\n        /* \"contracts/SolByExample.sol\":535:538  _CA */\n      dup5\n        /* \"contracts/SolByExample.sol\":482:539  abi.encodeWithSignature(\"foo(uint256,address)\", _num,_CA) */\n      add(0x24, mload(0x40))\n      tag_14\n      swap3\n      swap2\n      swap1\n      tag_15\n      jump\t// in\n    tag_14:\n      mload(0x40)\n      0x20\n      dup2\n      dup4\n      sub\n      sub\n      dup2\n      mstore\n      swap1\n      0x40\n      mstore\n      and(not(0xffffffffffffffffffffffffffffffffffffffffffffffffffffffff), 0xa68b44f800000000000000000000000000000000000000000000000000000000)\n      0x20\n      dup3\n      add\n      dup1\n      mload\n      0xffffffffffffffffffffffffffffffffffffffffffffffffffffffff\n      dup4\n      dup2\n      dup4\n      and\n      or\n      dup4\n      mstore\n      pop\n      pop\n      pop\n      pop\n        /* \"contracts/SolByExample.sol\":465:540  _CA.delegatecall(abi.encodeWithSignature(\"foo(uint256,address)\", _num,_CA)) */\n      mload(0x40)\n      tag_16\n      swap2\n      swap1\n      tag_17\n      jump\t// in\n    tag_16:\n      0x00\n      mload(0x40)\n      dup1\n      dup4\n      sub\n      dup2\n      dup6\n      gas\n      delegatecall\n      swap2\n      pop\n      pop\n      returndatasize\n      dup1\n      0x00\n      dup2\n      eq\n      tag_20\n      jumpi\n      mload(0x40)\n      swap2\n      pop\n      and(add(returndatasize, 0x3f), not(0x1f))\n      dup3\n      add\n      0x40\n      mstore\n      returndatasize\n      dup3\n      mstore\n      returndatasize\n      0x00\n      0x20\n      dup5\n      add\n      returndatacopy\n      jump(tag_19)\n    tag_20:\n      0x60\n      swap2\n      pop\n    tag_19:\n      pop\n        /* \"contracts/SolByExample.sol\":447:540  (bool success,) = _CA.delegatecall(abi.encodeWithSignature(\"foo(uint256,address)\", _num,_CA)) */\n      pop\n      swap1\n      pop\n        /* \"contracts/SolByExample.sol\":554:585  delegateRes(_CA, _num, success) */\n      0xd8e40fa776ad137e8c6368abb00d330a8c406dce1093f7ab758d6d13e26781d9\n        /* \"contracts/SolByExample.sol\":566:569  _CA */\n      dup4\n        /* \"contracts/SolByExample.sol\":571:575  _num */\n      dup4\n        /* \"contracts/SolByExample.sol\":577:584  success */\n      dup4\n        /* \"contracts/SolByExample.sol\":554:585  delegateRes(_CA, _num, success) */\n      mload(0x40)\n      tag_21\n      swap4\n      swap3\n      swap2\n      swap1\n      tag_22\n      jump\t// in\n    tag_21:\n      mload(0x40)\n      dup1\n      swap2\n      sub\n      swap1\n      log1\n        /* \"contracts/SolByExample.sol\":440:593  {... */\n      pop\n        /* \"contracts/SolByExample.sol\":372:593  function modify(address payable  _CA, uint256 _num) public payable  {... */\n      pop\n      pop\n      jump\t// out\n        /* \"#utility.yul\":7:84   */\n    tag_23:\n        /* \"#utility.yul\":44:51   */\n      0x00\n        /* \"#utility.yul\":73:78   */\n      dup2\n        /* \"#utility.yul\":62:78   */\n      swap1\n      pop\n        /* \"#utility.yul\":7:84   */\n      swap2\n      swap1\n      pop\n      jump\t// out\n        /* \"#utility.yul\":90:208   */\n    tag_24:\n        /* \"#utility.yul\":177:201   */\n      tag_49\n        /* \"#utility.yul\":195:200   */\n      dup2\n        /* \"#utility.yul\":177:201   */\n      tag_23\n      jump\t// in\n    tag_49:\n        /* \"#utility.yul\":172:175   */\n      dup3\n        /* \"#utility.yul\":165:202   */\n      mstore\n        /* \"#utility.yul\":90:208   */\n      pop\n      pop\n      jump\t// out\n        /* \"#utility.yul\":214:436   */\n    tag_8:\n        /* \"#utility.yul\":307:311   */\n      0x00\n        /* \"#utility.yul\":345:347   */\n      0x20\n        /* \"#utility.yul\":334:343   */\n      dup3\n        /* \"#utility.yul\":330:348   */\n      add\n        /* \"#utility.yul\":322:348   */\n      swap1\n      pop\n        /* \"#utility.yul\":358:429   */\n      tag_51\n        /* \"#utility.yul\":426:427   */\n      0x00\n        /* \"#utility.yul\":415:424   */\n      dup4\n        /* \"#utility.yul\":411:428   */\n      add\n        /* \"#utility.yul\":402:408   */\n      dup5\n        /* \"#utility.yul\":358:429   */\n      tag_24\n      jump\t// in\n    tag_51:\n        /* \"#utility.yul\":214:436   */\n      swap3\n      swap2\n      pop\n      pop\n      jump\t// out\n        /* \"#utility.yul\":523:640   */\n    tag_26:\n        /* \"#utility.yul\":632:633   */\n      0x00\n        /* \"#utility.yul\":629:630   */\n      dup1\n        /* \"#utility.yul\":622:634   */\n      revert\n        /* \"#utility.yul\":769:895   */\n    tag_28:\n        /* \"#utility.yul\":806:813   */\n      0x00\n        /* \"#utility.yul\":846:888   */\n      0xffffffffffffffffffffffffffffffffffffffff\n        /* \"#utility.yul\":839:844   */\n      dup3\n        /* \"#utility.yul\":835:889   */\n      and\n        /* \"#utility.yul\":824:889   */\n      swap1\n      pop\n        /* \"#utility.yul\":769:895   */\n      swap2\n      swap1\n      pop\n      jump\t// out\n        /* \"#utility.yul\":901:1005   */\n    tag_29:\n        /* \"#utility.yul\":946:953   */\n      0x00\n        /* \"#utility.yul\":975:999   */\n      tag_57\n        /* \"#utility.yul\":993:998   */\n      dup3\n        /* \"#utility.yul\":975:999   */\n      tag_28\n      jump\t// in\n    tag_57:\n        /* \"#utility.yul\":964:999   */\n      swap1\n      pop\n        /* \"#utility.yul\":901:1005   */\n      swap2\n      swap1\n      pop\n      jump\t// out\n        /* \"#utility.yul\":1011:1149   */\n    tag_30:\n        /* \"#utility.yul\":1092:1124   */\n      tag_59\n        /* \"#utility.yul\":1118:1123   */\n      dup2\n        /* \"#utility.yul\":1092:1124   */\n      tag_29\n      jump\t// in\n    tag_59:\n        /* \"#utility.yul\":1085:1090   */\n      dup2\n        /* \"#utility.yul\":1082:1125   */\n      eq\n        /* \"#utility.yul\":1072:1143   */\n      tag_60\n      jumpi\n        /* \"#utility.yul\":1139:1140   */\n      0x00\n        /* \"#utility.yul\":1136:1137   */\n      dup1\n        /* \"#utility.yul\":1129:1141   */\n      revert\n        /* \"#utility.yul\":1072:1143   */\n    tag_60:\n        /* \"#utility.yul\":1011:1149   */\n      pop\n      jump\t// out\n        /* \"#utility.yul\":1155:1310   */\n    tag_31:\n        /* \"#utility.yul\":1209:1214   */\n      0x00\n        /* \"#utility.yul\":1247:1253   */\n      dup2\n        /* \"#utility.yul\":1234:1254   */\n      calldataload\n        /* \"#utility.yul\":1225:1254   */\n      swap1\n      pop\n        /* \"#utility.yul\":1263:1304   */\n      tag_62\n        /* \"#utility.yul\":1298:1303   */\n      dup2\n        /* \"#utility.yul\":1263:1304   */\n      tag_30\n      jump\t// in\n    tag_62:\n        /* \"#utility.yul\":1155:1310   */\n      swap3\n      swap2\n      pop\n      pop\n      jump\t// out\n        /* \"#utility.yul\":1316:1438   */\n    tag_32:\n        /* \"#utility.yul\":1389:1413   */\n      tag_64\n        /* \"#utility.yul\":1407:1412   */\n      dup2\n        /* \"#utility.yul\":1389:1413   */\n      tag_23\n      jump\t// in\n    tag_64:\n        /* \"#utility.yul\":1382:1387   */\n      dup2\n        /* \"#utility.yul\":1379:1414   */\n      eq\n        /* \"#utility.yul\":1369:1432   */\n      tag_65\n      jumpi\n        /* \"#utility.yul\":1428:1429   */\n      0x00\n        /* \"#utility.yul\":1425:1426   */\n      dup1\n        /* \"#utility.yul\":1418:1430   */\n      revert\n        /* \"#utility.yul\":1369:1432   */\n    tag_65:\n        /* \"#utility.yul\":1316:1438   */\n      pop\n      jump\t// out\n        /* \"#utility.yul\":1444:1583   */\n    tag_33:\n        /* \"#utility.yul\":1490:1495   */\n      0x00\n        /* \"#utility.yul\":1528:1534   */\n      dup2\n        /* \"#utility.yul\":1515:1535   */\n      calldataload\n        /* \"#utility.yul\":1506:1535   */\n      swap1\n      pop\n        /* \"#utility.yul\":1544:1577   */\n      tag_67\n        /* \"#utility.yul\":1571:1576   */\n      dup2\n        /* \"#utility.yul\":1544:1577   */\n      tag_32\n      jump\t// in\n    tag_67:\n        /* \"#utility.yul\":1444:1583   */\n      swap3\n      swap2\n      pop\n      pop\n      jump\t// out\n        /* \"#utility.yul\":1589:2079   */\n    tag_11:\n        /* \"#utility.yul\":1665:1671   */\n      0x00\n        /* \"#utility.yul\":1673:1679   */\n      dup1\n        /* \"#utility.yul\":1722:1724   */\n      0x40\n        /* \"#utility.yul\":1710:1719   */\n      dup4\n        /* \"#utility.yul\":1701:1708   */\n      dup6\n        /* \"#utility.yul\":1697:1720   */\n      sub\n        /* \"#utility.yul\":1693:1725   */\n      slt\n        /* \"#utility.yul\":1690:1809   */\n      iszero\n      tag_69\n      jumpi\n        /* \"#utility.yul\":1728:1807   */\n      tag_70\n      tag_26\n      jump\t// in\n    tag_70:\n        /* \"#utility.yul\":1690:1809   */\n    tag_69:\n        /* \"#utility.yul\":1848:1849   */\n      0x00\n        /* \"#utility.yul\":1873:1934   */\n      tag_71\n        /* \"#utility.yul\":1926:1933   */\n      dup6\n        /* \"#utility.yul\":1917:1923   */\n      dup3\n        /* \"#utility.yul\":1906:1915   */\n      dup7\n        /* \"#utility.yul\":1902:1924   */\n      add\n        /* \"#utility.yul\":1873:1934   */\n      tag_31\n      jump\t// in\n    tag_71:\n        /* \"#utility.yul\":1863:1934   */\n      swap3\n      pop\n        /* \"#utility.yul\":1819:1944   */\n      pop\n        /* \"#utility.yul\":1983:1985   */\n      0x20\n        /* \"#utility.yul\":2009:2062   */\n      tag_72\n        /* \"#utility.yul\":2054:2061   */\n      dup6\n        /* \"#utility.yul\":2045:2051   */\n      dup3\n        /* \"#utility.yul\":2034:2043   */\n      dup7\n        /* \"#utility.yul\":2030:2052   */\n      add\n        /* \"#utility.yul\":2009:2062   */\n      tag_33\n      jump\t// in\n    tag_72:\n        /* \"#utility.yul\":1999:2062   */\n      swap2\n      pop\n        /* \"#utility.yul\":1954:2072   */\n      pop\n        /* \"#utility.yul\":1589:2079   */\n      swap3\n      pop\n      swap3\n      swap1\n      pop\n      jump\t// out\n        /* \"#utility.yul\":2085:2227   */\n    tag_34:\n        /* \"#utility.yul\":2188:2220   */\n      tag_74\n        /* \"#utility.yul\":2214:2219   */\n      dup2\n        /* \"#utility.yul\":2188:2220   */\n      tag_29\n      jump\t// in\n    tag_74:\n        /* \"#utility.yul\":2183:2186   */\n      dup3\n        /* \"#utility.yul\":2176:2221   */\n      mstore\n        /* \"#utility.yul\":2085:2227   */\n      pop\n      pop\n      jump\t// out\n        /* \"#utility.yul\":2233:2597   */\n    tag_15:\n        /* \"#utility.yul\":2370:2374   */\n      0x00\n        /* \"#utility.yul\":2408:2410   */\n      0x40\n        /* \"#utility.yul\":2397:2406   */\n      dup3\n        /* \"#utility.yul\":2393:2411   */\n      add\n        /* \"#utility.yul\":2385:2411   */\n      swap1\n      pop\n        /* \"#utility.yul\":2421:2492   */\n      tag_76\n        /* \"#utility.yul\":2489:2490   */\n      0x00\n        /* \"#utility.yul\":2478:2487   */\n      dup4\n        /* \"#utility.yul\":2474:2491   */\n      add\n        /* \"#utility.yul\":2465:2471   */\n      dup6\n        /* \"#utility.yul\":2421:2492   */\n      tag_24\n      jump\t// in\n    tag_76:\n        /* \"#utility.yul\":2502:2590   */\n      tag_77\n        /* \"#utility.yul\":2586:2588   */\n      0x20\n        /* \"#utility.yul\":2575:2584   */\n      dup4\n        /* \"#utility.yul\":2571:2589   */\n      add\n        /* \"#utility.yul\":2562:2568   */\n      dup5\n        /* \"#utility.yul\":2502:2590   */\n      tag_34\n      jump\t// in\n    tag_77:\n        /* \"#utility.yul\":2233:2597   */\n      swap4\n      swap3\n      pop\n      pop\n      pop\n      jump\t// out\n        /* \"#utility.yul\":2603:2701   */\n    tag_35:\n        /* \"#utility.yul\":2654:2660   */\n      0x00\n        /* \"#utility.yul\":2688:2693   */\n      dup2\n        /* \"#utility.yul\":2682:2694   */\n      mload\n        /* \"#utility.yul\":2672:2694   */\n      swap1\n      pop\n        /* \"#utility.yul\":2603:2701   */\n      swap2\n      swap1\n      pop\n      jump\t// out\n        /* \"#utility.yul\":2707:2854   */\n    tag_36:\n        /* \"#utility.yul\":2808:2819   */\n      0x00\n        /* \"#utility.yul\":2845:2848   */\n      dup2\n        /* \"#utility.yul\":2830:2848   */\n      swap1\n      pop\n        /* \"#utility.yul\":2707:2854   */\n      swap3\n      swap2\n      pop\n      pop\n      jump\t// out\n        /* \"#utility.yul\":2860:2999   */\n    tag_37:\n        /* \"#utility.yul\":2949:2955   */\n      dup3\n        /* \"#utility.yul\":2944:2947   */\n      dup2\n        /* \"#utility.yul\":2939:2942   */\n      dup4\n        /* \"#utility.yul\":2933:2956   */\n      mcopy\n        /* \"#utility.yul\":2990:2991   */\n      0x00\n        /* \"#utility.yul\":2981:2987   */\n      dup4\n        /* \"#utility.yul\":2976:2979   */\n      dup4\n        /* \"#utility.yul\":2972:2988   */\n      add\n        /* \"#utility.yul\":2965:2992   */\n      mstore\n        /* \"#utility.yul\":2860:2999   */\n      pop\n      pop\n      pop\n      jump\t// out\n        /* \"#utility.yul\":3005:3391   */\n    tag_38:\n        /* \"#utility.yul\":3109:3112   */\n      0x00\n        /* \"#utility.yul\":3137:3175   */\n      tag_82\n        /* \"#utility.yul\":3169:3174   */\n      dup3\n        /* \"#utility.yul\":3137:3175   */\n      tag_35\n      jump\t// in\n    tag_82:\n        /* \"#utility.yul\":3191:3279   */\n      tag_83\n        /* \"#utility.yul\":3272:3278   */\n      dup2\n        /* \"#utility.yul\":3267:3270   */\n      dup6\n        /* \"#utility.yul\":3191:3279   */\n      tag_36\n      jump\t// in\n    tag_83:\n        /* \"#utility.yul\":3184:3279   */\n      swap4\n      pop\n        /* \"#utility.yul\":3288:3353   */\n      tag_84\n        /* \"#utility.yul\":3346:3352   */\n      dup2\n        /* \"#utility.yul\":3341:3344   */\n      dup6\n        /* \"#utility.yul\":3334:3338   */\n      0x20\n        /* \"#utility.yul\":3327:3332   */\n      dup7\n        /* \"#utility.yul\":3323:3339   */\n      add\n        /* \"#utility.yul\":3288:3353   */\n      tag_37\n      jump\t// in\n    tag_84:\n        /* \"#utility.yul\":3378:3384   */\n      dup1\n        /* \"#utility.yul\":3373:3376   */\n      dup5\n        /* \"#utility.yul\":3369:3385   */\n      add\n        /* \"#utility.yul\":3362:3385   */\n      swap2\n      pop\n        /* \"#utility.yul\":3113:3391   */\n      pop\n        /* \"#utility.yul\":3005:3391   */\n      swap3\n      swap2\n      pop\n      pop\n      jump\t// out\n        /* \"#utility.yul\":3397:3668   */\n    tag_17:\n        /* \"#utility.yul\":3527:3530   */\n      0x00\n        /* \"#utility.yul\":3549:3642   */\n      tag_86\n        /* \"#utility.yul\":3638:3641   */\n      dup3\n        /* \"#utility.yul\":3629:3635   */\n      dup5\n        /* \"#utility.yul\":3549:3642   */\n      tag_38\n      jump\t// in\n    tag_86:\n        /* \"#utility.yul\":3542:3642   */\n      swap2\n      pop\n        /* \"#utility.yul\":3659:3662   */\n      dup2\n        /* \"#utility.yul\":3652:3662   */\n      swap1\n      pop\n        /* \"#utility.yul\":3397:3668   */\n      swap3\n      swap2\n      pop\n      pop\n      jump\t// out\n        /* \"#utility.yul\":3674:3734   */\n    tag_39:\n        /* \"#utility.yul\":3702:3705   */\n      0x00\n        /* \"#utility.yul\":3723:3728   */\n      dup2\n        /* \"#utility.yul\":3716:3728   */\n      swap1\n      pop\n        /* \"#utility.yul\":3674:3734   */\n      swap2\n      swap1\n      pop\n      jump\t// out\n        /* \"#utility.yul\":3740:3882   */\n    tag_40:\n        /* \"#utility.yul\":3790:3799   */\n      0x00\n        /* \"#utility.yul\":3823:3876   */\n      tag_89\n        /* \"#utility.yul\":3841:3875   */\n      tag_90\n        /* \"#utility.yul\":3850:3874   */\n      tag_91\n        /* \"#utility.yul\":3868:3873   */\n      dup5\n        /* \"#utility.yul\":3850:3874   */\n      tag_28\n      jump\t// in\n    tag_91:\n        /* \"#utility.yul\":3841:3875   */\n      tag_39\n      jump\t// in\n    tag_90:\n        /* \"#utility.yul\":3823:3876   */\n      tag_28\n      jump\t// in\n    tag_89:\n        /* \"#utility.yul\":3810:3876   */\n      swap1\n      pop\n        /* \"#utility.yul\":3740:3882   */\n      swap2\n      swap1\n      pop\n      jump\t// out\n        /* \"#utility.yul\":3888:4014   */\n    tag_41:\n        /* \"#utility.yul\":3938:3947   */\n      0x00\n        /* \"#utility.yul\":3971:4008   */\n      tag_93\n        /* \"#utility.yul\":4002:4007   */\n      dup3\n        /* \"#utility.yul\":3971:4008   */\n      tag_40\n      jump\t// in\n    tag_93:\n        /* \"#utility.yul\":3958:4008   */\n      swap1\n      pop\n        /* \"#utility.yul\":3888:4014   */\n      swap2\n      swap1\n      pop\n      jump\t// out\n        /* \"#utility.yul\":4020:4154   */\n    tag_42:\n        /* \"#utility.yul\":4078:4087   */\n      0x00\n        /* \"#utility.yul\":4111:4148   */\n      tag_95\n        /* \"#utility.yul\":4142:4147   */\n      dup3\n        /* \"#utility.yul\":4111:4148   */\n      tag_41\n      jump\t// in\n    tag_95:\n        /* \"#utility.yul\":4098:4148   */\n      swap1\n      pop\n        /* \"#utility.yul\":4020:4154   */\n      swap2\n      swap1\n      pop\n      jump\t// out\n        /* \"#utility.yul\":4160:4307   */\n    tag_43:\n        /* \"#utility.yul\":4255:4300   */\n      tag_97\n        /* \"#utility.yul\":4294:4299   */\n      dup2\n        /* \"#utility.yul\":4255:4300   */\n      tag_42\n      jump\t// in\n    tag_97:\n        /* \"#utility.yul\":4250:4253   */\n      dup3\n        /* \"#utility.yul\":4243:4301   */\n      mstore\n        /* \"#utility.yul\":4160:4307   */\n      pop\n      pop\n      jump\t// out\n        /* \"#utility.yul\":4313:4403   */\n    tag_44:\n        /* \"#utility.yul\":4347:4354   */\n      0x00\n        /* \"#utility.yul\":4390:4395   */\n      dup2\n        /* \"#utility.yul\":4383:4396   */\n      iszero\n        /* \"#utility.yul\":4376:4397   */\n      iszero\n        /* \"#utility.yul\":4365:4397   */\n      swap1\n      pop\n        /* \"#utility.yul\":4313:4403   */\n      swap2\n      swap1\n      pop\n      jump\t// out\n        /* \"#utility.yul\":4409:4518   */\n    tag_45:\n        /* \"#utility.yul\":4490:4511   */\n      tag_100\n        /* \"#utility.yul\":4505:4510   */\n      dup2\n        /* \"#utility.yul\":4490:4511   */\n      tag_44\n      jump\t// in\n    tag_100:\n        /* \"#utility.yul\":4485:4488   */\n      dup3\n        /* \"#utility.yul\":4478:4512   */\n      mstore\n        /* \"#utility.yul\":4409:4518   */\n      pop\n      pop\n      jump\t// out\n        /* \"#utility.yul\":4524:4970   */\n    tag_22:\n        /* \"#utility.yul\":4675:4679   */\n      0x00\n        /* \"#utility.yul\":4713:4715   */\n      0x60\n        /* \"#utility.yul\":4702:4711   */\n      dup3\n        /* \"#utility.yul\":4698:4716   */\n      add\n        /* \"#utility.yul\":4690:4716   */\n      swap1\n      pop\n        /* \"#utility.yul\":4726:4805   */\n      tag_102\n        /* \"#utility.yul\":4802:4803   */\n      0x00\n        /* \"#utility.yul\":4791:4800   */\n      dup4\n        /* \"#utility.yul\":4787:4804   */\n      add\n        /* \"#utility.yul\":4778:4784   */\n      dup7\n        /* \"#utility.yul\":4726:4805   */\n      tag_43\n      jump\t// in\n    tag_102:\n        /* \"#utility.yul\":4815:4887   */\n      tag_103\n        /* \"#utility.yul\":4883:4885   */\n      0x20\n        /* \"#utility.yul\":4872:4881   */\n      dup4\n        /* \"#utility.yul\":4868:4886   */\n      add\n        /* \"#utility.yul\":4859:4865   */\n      dup6\n        /* \"#utility.yul\":4815:4887   */\n      tag_24\n      jump\t// in\n    tag_103:\n        /* \"#utility.yul\":4897:4963   */\n      tag_104\n        /* \"#utility.yul\":4959:4961   */\n      0x40\n        /* \"#utility.yul\":4948:4957   */\n      dup4\n        /* \"#utility.yul\":4944:4962   */\n      add\n        /* \"#utility.yul\":4935:4941   */\n      dup5\n        /* \"#utility.yul\":4897:4963   */\n      tag_45\n      jump\t// in\n    tag_104:\n        /* \"#utility.yul\":4524:4970   */\n      swap5\n      swap4\n      pop\n      pop\n      pop\n      pop\n      jump\t// out\n\n    auxdata: 0xa2646970667358221220159684bd83d60bafe6b1d8c0f05fb99eb3cb586ac90be40449f91a16d3475cde64736f6c634300081a0033\n}\n",
				"bytecode": {
					"linkReferences": {},
					"object": "6080604052348015600e575f80fd5b506104228061001c5f395ff3fe608060405260043610610028575f3560e01c80634e70b1dc1461002c57806396a418d414610056575b5f80fd5b348015610037575f80fd5b50610040610072565b60405161004d91906101c5565b60405180910390f35b610070600480360381019061006b9190610266565b610077565b005b5f5481565b5f8273ffffffffffffffffffffffffffffffffffffffff1682846040516024016100a29291906102b3565b6040516020818303038152906040527fa68b44f8000000000000000000000000000000000000000000000000000000007bffffffffffffffffffffffffffffffffffffffffffffffffffffffff19166020820180517bffffffffffffffffffffffffffffffffffffffffffffffffffffffff838183161783525050505060405161012c919061032c565b5f60405180830381855af49150503d805f8114610164576040519150601f19603f3d011682016040523d82523d5f602084013e610169565b606091505b505090507fd8e40fa776ad137e8c6368abb00d330a8c406dce1093f7ab758d6d13e26781d98383836040516101a0939291906103b7565b60405180910390a1505050565b5f819050919050565b6101bf816101ad565b82525050565b5f6020820190506101d85f8301846101b6565b92915050565b5f80fd5b5f73ffffffffffffffffffffffffffffffffffffffff82169050919050565b5f61020b826101e2565b9050919050565b61021b81610201565b8114610225575f80fd5b50565b5f8135905061023681610212565b92915050565b610245816101ad565b811461024f575f80fd5b50565b5f813590506102608161023c565b92915050565b5f806040838503121561027c5761027b6101de565b5b5f61028985828601610228565b925050602061029a85828601610252565b9150509250929050565b6102ad81610201565b82525050565b5f6040820190506102c65f8301856101b6565b6102d360208301846102a4565b9392505050565b5f81519050919050565b5f81905092915050565b8281835e5f83830152505050565b5f610306826102da565b61031081856102e4565b93506103208185602086016102ee565b80840191505092915050565b5f61033782846102fc565b915081905092915050565b5f819050919050565b5f61036561036061035b846101e2565b610342565b6101e2565b9050919050565b5f6103768261034b565b9050919050565b5f6103878261036c565b9050919050565b6103978161037d565b82525050565b5f8115159050919050565b6103b18161039d565b82525050565b5f6060820190506103ca5f83018661038e565b6103d760208301856101b6565b6103e460408301846103a8565b94935050505056fea2646970667358221220159684bd83d60bafe6b1d8c0f05fb99eb3cb586ac90be40449f91a16d3475cde64736f6c634300081a0033",
					"opcodes": "PUSH1 0x80 PUSH1 0x40 MSTORE CALLVALUE DUP1 ISZERO PUSH1 0xE JUMPI PUSH0 DUP1 REVERT JUMPDEST POP PUSH2 0x422 DUP1 PUSH2 0x1C PUSH0 CODECOPY PUSH0 RETURN INVALID PUSH1 0x80 PUSH1 0x40 MSTORE PUSH1 0x4 CALLDATASIZE LT PUSH2 0x28 JUMPI PUSH0 CALLDATALOAD PUSH1 0xE0 SHR DUP1 PUSH4 0x4E70B1DC EQ PUSH2 0x2C JUMPI DUP1 PUSH4 0x96A418D4 EQ PUSH2 0x56 JUMPI JUMPDEST PUSH0 DUP1 REVERT JUMPDEST CALLVALUE DUP1 ISZERO PUSH2 0x37 JUMPI PUSH0 DUP1 REVERT JUMPDEST POP PUSH2 0x40 PUSH2 0x72 JUMP JUMPDEST PUSH1 0x40 MLOAD PUSH2 0x4D SWAP2 SWAP1 PUSH2 0x1C5 JUMP JUMPDEST PUSH1 0x40 MLOAD DUP1 SWAP2 SUB SWAP1 RETURN JUMPDEST PUSH2 0x70 PUSH1 0x4 DUP1 CALLDATASIZE SUB DUP2 ADD SWAP1 PUSH2 0x6B SWAP2 SWAP1 PUSH2 0x266 JUMP JUMPDEST PUSH2 0x77 JUMP JUMPDEST STOP JUMPDEST PUSH0 SLOAD DUP2 JUMP JUMPDEST PUSH0 DUP3 PUSH20 0xFFFFFFFFFFFFFFFFFFFFFFFFFFFFFFFFFFFFFFFF AND DUP3 DUP5 PUSH1 0x40 MLOAD PUSH1 0x24 ADD PUSH2 0xA2 SWAP3 SWAP2 SWAP1 PUSH2 0x2B3 JUMP JUMPDEST PUSH1 0x40 MLOAD PUSH1 0x20 DUP2 DUP4 SUB SUB DUP2 MSTORE SWAP1 PUSH1 0x40 MSTORE PUSH32 0xA68B44F800000000000000000000000000000000000000000000000000000000 PUSH28 0xFFFFFFFFFFFFFFFFFFFFFFFFFFFFFFFFFFFFFFFFFFFFFFFFFFFFFFFF NOT AND PUSH1 0x20 DUP3 ADD DUP1 MLOAD PUSH28 0xFFFFFFFFFFFFFFFFFFFFFFFFFFFFFFFFFFFFFFFFFFFFFFFFFFFFFFFF DUP4 DUP2 DUP4 AND OR DUP4 MSTORE POP POP POP POP PUSH1 0x40 MLOAD PUSH2 0x12C SWAP2 SWAP1 PUSH2 0x32C JUMP JUMPDEST PUSH0 PUSH1 0x40 MLOAD DUP1 DUP4 SUB DUP2 DUP6 GAS DELEGATECALL SWAP2 POP POP RETURNDATASIZE DUP1 PUSH0 DUP2 EQ PUSH2 0x164 JUMPI PUSH1 0x40 MLOAD SWAP2 POP PUSH1 0x1F NOT PUSH1 0x3F RETURNDATASIZE ADD AND DUP3 ADD PUSH1 0x40 MSTORE RETURNDATASIZE DUP3 MSTORE RETURNDATASIZE PUSH0 PUSH1 0x20 DUP5 ADD RETURNDATACOPY PUSH2 0x169 JUMP JUMPDEST PUSH1 0x60 SWAP2 POP JUMPDEST POP POP SWAP1 POP PUSH32 0xD8E40FA776AD137E8C6368ABB00D330A8C406DCE1093F7AB758D6D13E26781D9 DUP4 DUP4 DUP4 PUSH1 0x40 MLOAD PUSH2 0x1A0 SWAP4 SWAP3 SWAP2 SWAP1 PUSH2 0x3B7 JUMP JUMPDEST PUSH1 0x40 MLOAD DUP1 SWAP2 SUB SWAP1 LOG1 POP POP POP JUMP JUMPDEST PUSH0 DUP2 SWAP1 POP SWAP2 SWAP1 POP JUMP JUMPDEST PUSH2 0x1BF DUP2 PUSH2 0x1AD JUMP JUMPDEST DUP3 MSTORE POP POP JUMP JUMPDEST PUSH0 PUSH1 0x20 DUP3 ADD SWAP1 POP PUSH2 0x1D8 PUSH0 DUP4 ADD DUP5 PUSH2 0x1B6 JUMP JUMPDEST SWAP3 SWAP2 POP POP JUMP JUMPDEST PUSH0 DUP1 REVERT JUMPDEST PUSH0 PUSH20 0xFFFFFFFFFFFFFFFFFFFFFFFFFFFFFFFFFFFFFFFF DUP3 AND SWAP1 POP SWAP2 SWAP1 POP JUMP JUMPDEST PUSH0 PUSH2 0x20B DUP3 PUSH2 0x1E2 JUMP JUMPDEST SWAP1 POP SWAP2 SWAP1 POP JUMP JUMPDEST PUSH2 0x21B DUP2 PUSH2 0x201 JUMP JUMPDEST DUP2 EQ PUSH2 0x225 JUMPI PUSH0 DUP1 REVERT JUMPDEST POP JUMP JUMPDEST PUSH0 DUP2 CALLDATALOAD SWAP1 POP PUSH2 0x236 DUP2 PUSH2 0x212 JUMP JUMPDEST SWAP3 SWAP2 POP POP JUMP JUMPDEST PUSH2 0x245 DUP2 PUSH2 0x1AD JUMP JUMPDEST DUP2 EQ PUSH2 0x24F JUMPI PUSH0 DUP1 REVERT JUMPDEST POP JUMP JUMPDEST PUSH0 DUP2 CALLDATALOAD SWAP1 POP PUSH2 0x260 DUP2 PUSH2 0x23C JUMP JUMPDEST SWAP3 SWAP2 POP POP JUMP JUMPDEST PUSH0 DUP1 PUSH1 0x40 DUP4 DUP6 SUB SLT ISZERO PUSH2 0x27C JUMPI PUSH2 0x27B PUSH2 0x1DE JUMP JUMPDEST JUMPDEST PUSH0 PUSH2 0x289 DUP6 DUP3 DUP7 ADD PUSH2 0x228 JUMP JUMPDEST SWAP3 POP POP PUSH1 0x20 PUSH2 0x29A DUP6 DUP3 DUP7 ADD PUSH2 0x252 JUMP JUMPDEST SWAP2 POP POP SWAP3 POP SWAP3 SWAP1 POP JUMP JUMPDEST PUSH2 0x2AD DUP2 PUSH2 0x201 JUMP JUMPDEST DUP3 MSTORE POP POP JUMP JUMPDEST PUSH0 PUSH1 0x40 DUP3 ADD SWAP1 POP PUSH2 0x2C6 PUSH0 DUP4 ADD DUP6 PUSH2 0x1B6 JUMP JUMPDEST PUSH2 0x2D3 PUSH1 0x20 DUP4 ADD DUP5 PUSH2 0x2A4 JUMP JUMPDEST SWAP4 SWAP3 POP POP POP JUMP JUMPDEST PUSH0 DUP2 MLOAD SWAP1 POP SWAP2 SWAP1 POP JUMP JUMPDEST PUSH0 DUP2 SWAP1 POP SWAP3 SWAP2 POP POP JUMP JUMPDEST DUP3 DUP2 DUP4 MCOPY PUSH0 DUP4 DUP4 ADD MSTORE POP POP POP JUMP JUMPDEST PUSH0 PUSH2 0x306 DUP3 PUSH2 0x2DA JUMP JUMPDEST PUSH2 0x310 DUP2 DUP6 PUSH2 0x2E4 JUMP JUMPDEST SWAP4 POP PUSH2 0x320 DUP2 DUP6 PUSH1 0x20 DUP7 ADD PUSH2 0x2EE JUMP JUMPDEST DUP1 DUP5 ADD SWAP2 POP POP SWAP3 SWAP2 POP POP JUMP JUMPDEST PUSH0 PUSH2 0x337 DUP3 DUP5 PUSH2 0x2FC JUMP JUMPDEST SWAP2 POP DUP2 SWAP1 POP SWAP3 SWAP2 POP POP JUMP JUMPDEST PUSH0 DUP2 SWAP1 POP SWAP2 SWAP1 POP JUMP JUMPDEST PUSH0 PUSH2 0x365 PUSH2 0x360 PUSH2 0x35B DUP5 PUSH2 0x1E2 JUMP JUMPDEST PUSH2 0x342 JUMP JUMPDEST PUSH2 0x1E2 JUMP JUMPDEST SWAP1 POP SWAP2 SWAP1 POP JUMP JUMPDEST PUSH0 PUSH2 0x376 DUP3 PUSH2 0x34B JUMP JUMPDEST SWAP1 POP SWAP2 SWAP1 POP JUMP JUMPDEST PUSH0 PUSH2 0x387 DUP3 PUSH2 0x36C JUMP JUMPDEST SWAP1 POP SWAP2 SWAP1 POP JUMP JUMPDEST PUSH2 0x397 DUP2 PUSH2 0x37D JUMP JUMPDEST DUP3 MSTORE POP POP JUMP JUMPDEST PUSH0 DUP2 ISZERO ISZERO SWAP1 POP SWAP2 SWAP1 POP JUMP JUMPDEST PUSH2 0x3B1 DUP2 PUSH2 0x39D JUMP JUMPDEST DUP3 MSTORE POP POP JUMP JUMPDEST PUSH0 PUSH1 0x60 DUP3 ADD SWAP1 POP PUSH2 0x3CA PUSH0 DUP4 ADD DUP7 PUSH2 0x38E JUMP JUMPDEST PUSH2 0x3D7 PUSH1 0x20 DUP4 ADD DUP6 PUSH2 0x1B6 JUMP JUMPDEST PUSH2 0x3E4 PUSH1 0x40 DUP4 ADD DUP5 PUSH2 0x3A8 JUMP JUMPDEST SWAP5 SWAP4 POP POP POP POP JUMP INVALID LOG2 PUSH5 0x6970667358 0x22 SLT KECCAK256 ISZERO SWAP7 DUP5 0xBD DUP4 0xD6 SIGNEXTEND 0xAF 0xE6 0xB1 0xD8 0xC0 CREATE PUSH0 0xB9 SWAP15 0xB3 0xCB PC PUSH11 0xC90BE40449F91A16D3475C 0xDE PUSH5 0x736F6C6343 STOP ADDMOD BYTE STOP CALLER "
				},
				"gasEstimates": {
					"creation": {
						"codeDepositCost": "211600",
						"executionCost": "255",
						"totalCost": "211855"
					},
					"external": {
						"modify(address,uint256)": "infinite",
						"num()": "2402"
					}
				},
				"methodIdentifiers": {
					"modify(address,uint256)": "96a418d4",
					"num()": "4e70b1dc"
				}
			},
			"storageLayout": {
				"storage": [
					{
						"astId": 24,
						"contract": "contracts/SolByExample.sol:A",
						"label": "num",
						"offset": 0,
						"slot": "0",
						"type": "t_uint256"
					},
					{
						"astId": 26,
						"contract": "contracts/SolByExample.sol:A",
						"label": "hey",
						"offset": 0,
						"slot": "1",
						"type": "t_address"
					}
				],
				"types": {
					"t_address": {
						"encoding": "inplace",
						"label": "address",
						"numberOfBytes": "20"
					},
					"t_uint256": {
						"encoding": "inplace",
						"label": "uint256",
						"numberOfBytes": "32"
					}
				}
			},
			"userdoc": {
				"kind": "user",
				"methods": {},
				"version": 1
			}
		}
	}
}