{
	"contracts/StorageFactory.sol": {
		"SF": {
			"abi": [
				{
					"inputs": [],
					"name": "createContract",
					"outputs": [],
					"stateMutability": "nonpayable",
					"type": "function"
				},
				{
					"inputs": [
						{
							"internalType": "uint256",
							"name": "CA",
							"type": "uint256"
						}
					],
					"name": "sfGet",
					"outputs": [
						{
							"internalType": "uint256",
							"name": "",
							"type": "uint256"
						}
					],
					"stateMutability": "view",
					"type": "function"
				},
				{
					"inputs": [
						{
							"internalType": "uint256",
							"name": "CA",
							"type": "uint256"
						},
						{
							"internalType": "uint256",
							"name": "_value",
							"type": "uint256"
						}
					],
					"name": "sfSet",
					"outputs": [],
					"stateMutability": "nonpayable",
					"type": "function"
				},
				{
					"inputs": [
						{
							"internalType": "uint256",
							"name": "",
							"type": "uint256"
						}
					],
					"name": "sfactory",
					"outputs": [
						{
							"internalType": "contract Storage",
							"name": "",
							"type": "address"
						}
					],
					"stateMutability": "view",
					"type": "function"
				}
			],
			"devdoc": {
				"kind": "dev",
				"methods": {},
				"version": 1
			},
			"evm": {
				"assembly": "    /* \"contracts/StorageFactory.sol\":100:515  contract SF{... */\n  mstore(0x40, 0x80)\n  callvalue\n  dup1\n  iszero\n  tag_1\n  jumpi\n  0x00\n  dup1\n  revert\ntag_1:\n  pop\n  dataSize(sub_0)\n  dup1\n  dataOffset(sub_0)\n  0x00\n  codecopy\n  0x00\n  return\nstop\n\nsub_0: assembly {\n        /* \"contracts/StorageFactory.sol\":100:515  contract SF{... */\n      mstore(0x40, 0x80)\n      callvalue\n      dup1\n      iszero\n      tag_1\n      jumpi\n      0x00\n      dup1\n      revert\n    tag_1:\n      pop\n      jumpi(tag_2, lt(calldatasize, 0x04))\n      shr(0xe0, calldataload(0x00))\n      dup1\n      0x09db6080\n      eq\n      tag_3\n      jumpi\n      dup1\n      0x412a5a6d\n      eq\n      tag_4\n      jumpi\n      dup1\n      0xa2c05e06\n      eq\n      tag_5\n      jumpi\n      dup1\n      0xc5f19c20\n      eq\n      tag_6\n      jumpi\n    tag_2:\n      0x00\n      dup1\n      revert\n        /* \"contracts/StorageFactory.sol\":401:508  function sfSet(uint256 CA, uint256 _value) public  {... */\n    tag_3:\n      tag_7\n      0x04\n      dup1\n      calldatasize\n      sub\n      dup2\n      add\n      swap1\n      tag_8\n      swap2\n      swap1\n      tag_9\n      jump\t// in\n    tag_8:\n      tag_10\n      jump\t// in\n    tag_7:\n      stop\n        /* \"contracts/StorageFactory.sol\":146:257  function createContract() public{... */\n    tag_4:\n      tag_11\n      tag_12\n      jump\t// in\n    tag_11:\n      stop\n        /* \"contracts/StorageFactory.sol\":115:140  Storage[] public sfactory */\n    tag_5:\n      tag_13\n      0x04\n      dup1\n      calldatasize\n      sub\n      dup2\n      add\n      swap1\n      tag_14\n      swap2\n      swap1\n      tag_15\n      jump\t// in\n    tag_14:\n      tag_16\n      jump\t// in\n    tag_13:\n      mload(0x40)\n      tag_17\n      swap2\n      swap1\n      tag_18\n      jump\t// in\n    tag_17:\n      mload(0x40)\n      dup1\n      swap2\n      sub\n      swap1\n      return\n        /* \"contracts/StorageFactory.sol\":261:399  function sfGet(uint256 CA) public view returns(uint256){... */\n    tag_6:\n      tag_19\n      0x04\n      dup1\n      calldatasize\n      sub\n      dup2\n      add\n      swap1\n      tag_20\n      swap2\n      swap1\n      tag_15\n      jump\t// in\n    tag_20:\n      tag_21\n      jump\t// in\n    tag_19:\n      mload(0x40)\n      tag_22\n      swap2\n      swap1\n      tag_23\n      jump\t// in\n    tag_22:\n      mload(0x40)\n      dup1\n      swap2\n      sub\n      swap1\n      return\n        /* \"contracts/StorageFactory.sol\":401:508  function sfSet(uint256 CA, uint256 _value) public  {... */\n    tag_10:\n        /* \"contracts/StorageFactory.sol\":456:469  Storage getCA */\n      0x00\n        /* \"contracts/StorageFactory.sol\":471:479  sfactory */\n      dup1\n        /* \"contracts/StorageFactory.sol\":480:482  CA */\n      dup4\n        /* \"contracts/StorageFactory.sol\":471:483  sfactory[CA] */\n      dup2\n      sload\n      dup2\n      lt\n      tag_25\n      jumpi\n      tag_26\n      tag_27\n      jump\t// in\n    tag_26:\n    tag_25:\n      swap1\n      0x00\n      mstore\n      keccak256(0x00, 0x20)\n      add\n      0x00\n      swap1\n      sload\n      swap1\n      0x0100\n      exp\n      swap1\n      div\n      0xffffffffffffffffffffffffffffffffffffffff\n      and\n        /* \"contracts/StorageFactory.sol\":456:483  Storage getCA= sfactory[CA] */\n      swap1\n      pop\n        /* \"contracts/StorageFactory.sol\":487:492  getCA */\n      dup1\n        /* \"contracts/StorageFactory.sol\":487:496  getCA.set */\n      0xffffffffffffffffffffffffffffffffffffffff\n      and\n      0x60fe47b1\n        /* \"contracts/StorageFactory.sol\":497:503  _value */\n      dup4\n        /* \"contracts/StorageFactory.sol\":487:504  getCA.set(_value) */\n      mload(0x40)\n      dup3\n      0xffffffff\n      and\n      0xe0\n      shl\n      dup2\n      mstore\n      0x04\n      add\n      tag_29\n      swap2\n      swap1\n      tag_23\n      jump\t// in\n    tag_29:\n      0x00\n      mload(0x40)\n      dup1\n      dup4\n      sub\n      dup2\n      0x00\n      dup8\n      dup1\n      extcodesize\n      iszero\n      dup1\n      iszero\n      tag_30\n      jumpi\n      0x00\n      dup1\n      revert\n    tag_30:\n      pop\n      gas\n      call\n      iszero\n      dup1\n      iszero\n      tag_32\n      jumpi\n      returndatasize\n      0x00\n      dup1\n      returndatacopy\n      revert(0x00, returndatasize)\n    tag_32:\n      pop\n      pop\n      pop\n      pop\n        /* \"contracts/StorageFactory.sol\":452:508  {... */\n      pop\n        /* \"contracts/StorageFactory.sol\":401:508  function sfSet(uint256 CA, uint256 _value) public  {... */\n      pop\n      pop\n      jump\t// out\n        /* \"contracts/StorageFactory.sol\":146:257  function createContract() public{... */\n    tag_12:\n        /* \"contracts/StorageFactory.sol\":185:204  Storage newcontract */\n      0x00\n        /* \"contracts/StorageFactory.sol\":206:219  new Storage() */\n      mload(0x40)\n      tag_34\n      swap1\n      tag_35\n      jump\t// in\n    tag_34:\n      mload(0x40)\n      dup1\n      swap2\n      sub\n      swap1\n      0x00\n      create\n      dup1\n      iszero\n      dup1\n      iszero\n      tag_36\n      jumpi\n      returndatasize\n      0x00\n      dup1\n      returndatacopy\n      revert(0x00, returndatasize)\n    tag_36:\n      pop\n        /* \"contracts/StorageFactory.sol\":185:219  Storage newcontract =new Storage() */\n      swap1\n      pop\n        /* \"contracts/StorageFactory.sol\":226:234  sfactory */\n      0x00\n        /* \"contracts/StorageFactory.sol\":240:251  newcontract */\n      dup2\n        /* \"contracts/StorageFactory.sol\":226:252  sfactory.push(newcontract) */\n      swap1\n      dup1\n      0x01\n      dup2\n      sload\n      add\n      dup1\n      dup3\n      sstore\n      dup1\n      swap2\n      pop\n      pop\n      0x01\n      swap1\n      sub\n      swap1\n      0x00\n      mstore\n      keccak256(0x00, 0x20)\n      add\n      0x00\n      swap1\n      swap2\n      swap1\n      swap2\n      swap1\n      swap2\n      0x0100\n      exp\n      dup2\n      sload\n      dup2\n      0xffffffffffffffffffffffffffffffffffffffff\n      mul\n      not\n      and\n      swap1\n      dup4\n      0xffffffffffffffffffffffffffffffffffffffff\n      and\n      mul\n      or\n      swap1\n      sstore\n      pop\n        /* \"contracts/StorageFactory.sol\":178:257  {... */\n      pop\n        /* \"contracts/StorageFactory.sol\":146:257  function createContract() public{... */\n      jump\t// out\n        /* \"contracts/StorageFactory.sol\":115:140  Storage[] public sfactory */\n    tag_16:\n      0x00\n      dup2\n      dup2\n      sload\n      dup2\n      lt\n      tag_38\n      jumpi\n      0x00\n      dup1\n      revert\n    tag_38:\n      swap1\n      0x00\n      mstore\n      keccak256(0x00, 0x20)\n      add\n      0x00\n      swap2\n      pop\n      sload\n      swap1\n      0x0100\n      exp\n      swap1\n      div\n      0xffffffffffffffffffffffffffffffffffffffff\n      and\n      dup2\n      jump\t// out\n        /* \"contracts/StorageFactory.sol\":261:399  function sfGet(uint256 CA) public view returns(uint256){... */\n    tag_21:\n        /* \"contracts/StorageFactory.sol\":308:315  uint256 */\n      0x00\n        /* \"contracts/StorageFactory.sol\":320:333  Storage getCA */\n      dup1\n        /* \"contracts/StorageFactory.sol\":335:343  sfactory */\n      0x00\n        /* \"contracts/StorageFactory.sol\":344:346  CA */\n      dup4\n        /* \"contracts/StorageFactory.sol\":335:347  sfactory[CA] */\n      dup2\n      sload\n      dup2\n      lt\n      tag_41\n      jumpi\n      tag_42\n      tag_27\n      jump\t// in\n    tag_42:\n    tag_41:\n      swap1\n      0x00\n      mstore\n      keccak256(0x00, 0x20)\n      add\n      0x00\n      swap1\n      sload\n      swap1\n      0x0100\n      exp\n      swap1\n      div\n      0xffffffffffffffffffffffffffffffffffffffff\n      and\n        /* \"contracts/StorageFactory.sol\":320:347  Storage getCA= sfactory[CA] */\n      swap1\n      pop\n        /* \"contracts/StorageFactory.sol\":351:364  uint getValue */\n      0x00\n        /* \"contracts/StorageFactory.sol\":366:371  getCA */\n      dup2\n        /* \"contracts/StorageFactory.sol\":366:375  getCA.get */\n      0xffffffffffffffffffffffffffffffffffffffff\n      and\n      0x6d4ce63c\n        /* \"contracts/StorageFactory.sol\":366:377  getCA.get() */\n      mload(0x40)\n      dup2\n      0xffffffff\n      and\n      0xe0\n      shl\n      dup2\n      mstore\n      0x04\n      add\n      0x20\n      mload(0x40)\n      dup1\n      dup4\n      sub\n      dup2\n      dup7\n      gas\n      staticcall\n      iszero\n      dup1\n      iszero\n      tag_45\n      jumpi\n      returndatasize\n      0x00\n      dup1\n      returndatacopy\n      revert(0x00, returndatasize)\n    tag_45:\n      pop\n      pop\n      pop\n      pop\n      mload(0x40)\n      returndatasize\n      not(0x1f)\n      0x1f\n      dup3\n      add\n      and\n      dup3\n      add\n      dup1\n      0x40\n      mstore\n      pop\n      dup2\n      add\n      swap1\n      tag_46\n      swap2\n      swap1\n      tag_47\n      jump\t// in\n    tag_46:\n        /* \"contracts/StorageFactory.sol\":351:377  uint getValue= getCA.get() */\n      swap1\n      pop\n        /* \"contracts/StorageFactory.sol\":387:395  getValue */\n      dup1\n        /* \"contracts/StorageFactory.sol\":380:395  return getValue */\n      swap3\n      pop\n      pop\n      pop\n        /* \"contracts/StorageFactory.sol\":261:399  function sfGet(uint256 CA) public view returns(uint256){... */\n      swap2\n      swap1\n      pop\n      jump\t// out\n    tag_35:\n      dataSize(sub_0)\n      dup1\n      dataOffset(sub_0)\n      dup4\n      codecopy\n      add\n      swap1\n      jump\t// out\n        /* \"#utility.yul\":88:205   */\n    tag_49:\n        /* \"#utility.yul\":197:198   */\n      0x00\n        /* \"#utility.yul\":194:195   */\n      dup1\n        /* \"#utility.yul\":187:199   */\n      revert\n        /* \"#utility.yul\":334:411   */\n    tag_51:\n        /* \"#utility.yul\":371:378   */\n      0x00\n        /* \"#utility.yul\":400:405   */\n      dup2\n        /* \"#utility.yul\":389:405   */\n      swap1\n      pop\n        /* \"#utility.yul\":334:411   */\n      swap2\n      swap1\n      pop\n      jump\t// out\n        /* \"#utility.yul\":417:539   */\n    tag_52:\n        /* \"#utility.yul\":490:514   */\n      tag_68\n        /* \"#utility.yul\":508:513   */\n      dup2\n        /* \"#utility.yul\":490:514   */\n      tag_51\n      jump\t// in\n    tag_68:\n        /* \"#utility.yul\":483:488   */\n      dup2\n        /* \"#utility.yul\":480:515   */\n      eq\n        /* \"#utility.yul\":470:533   */\n      tag_69\n      jumpi\n        /* \"#utility.yul\":529:530   */\n      0x00\n        /* \"#utility.yul\":526:527   */\n      dup1\n        /* \"#utility.yul\":519:531   */\n      revert\n        /* \"#utility.yul\":470:533   */\n    tag_69:\n        /* \"#utility.yul\":417:539   */\n      pop\n      jump\t// out\n        /* \"#utility.yul\":545:684   */\n    tag_53:\n        /* \"#utility.yul\":591:596   */\n      0x00\n        /* \"#utility.yul\":629:635   */\n      dup2\n        /* \"#utility.yul\":616:636   */\n      calldataload\n        /* \"#utility.yul\":607:636   */\n      swap1\n      pop\n        /* \"#utility.yul\":645:678   */\n      tag_71\n        /* \"#utility.yul\":672:677   */\n      dup2\n        /* \"#utility.yul\":645:678   */\n      tag_52\n      jump\t// in\n    tag_71:\n        /* \"#utility.yul\":545:684   */\n      swap3\n      swap2\n      pop\n      pop\n      jump\t// out\n        /* \"#utility.yul\":690:1164   */\n    tag_9:\n        /* \"#utility.yul\":758:764   */\n      0x00\n        /* \"#utility.yul\":766:772   */\n      dup1\n        /* \"#utility.yul\":815:817   */\n      0x40\n        /* \"#utility.yul\":803:812   */\n      dup4\n        /* \"#utility.yul\":794:801   */\n      dup6\n        /* \"#utility.yul\":790:813   */\n      sub\n        /* \"#utility.yul\":786:818   */\n      slt\n        /* \"#utility.yul\":783:902   */\n      iszero\n      tag_73\n      jumpi\n        /* \"#utility.yul\":821:900   */\n      tag_74\n      tag_49\n      jump\t// in\n    tag_74:\n        /* \"#utility.yul\":783:902   */\n    tag_73:\n        /* \"#utility.yul\":941:942   */\n      0x00\n        /* \"#utility.yul\":966:1019   */\n      tag_75\n        /* \"#utility.yul\":1011:1018   */\n      dup6\n        /* \"#utility.yul\":1002:1008   */\n      dup3\n        /* \"#utility.yul\":991:1000   */\n      dup7\n        /* \"#utility.yul\":987:1009   */\n      add\n        /* \"#utility.yul\":966:1019   */\n      tag_53\n      jump\t// in\n    tag_75:\n        /* \"#utility.yul\":956:1019   */\n      swap3\n      pop\n        /* \"#utility.yul\":912:1029   */\n      pop\n        /* \"#utility.yul\":1068:1070   */\n      0x20\n        /* \"#utility.yul\":1094:1147   */\n      tag_76\n        /* \"#utility.yul\":1139:1146   */\n      dup6\n        /* \"#utility.yul\":1130:1136   */\n      dup3\n        /* \"#utility.yul\":1119:1128   */\n      dup7\n        /* \"#utility.yul\":1115:1137   */\n      add\n        /* \"#utility.yul\":1094:1147   */\n      tag_53\n      jump\t// in\n    tag_76:\n        /* \"#utility.yul\":1084:1147   */\n      swap2\n      pop\n        /* \"#utility.yul\":1039:1157   */\n      pop\n        /* \"#utility.yul\":690:1164   */\n      swap3\n      pop\n      swap3\n      swap1\n      pop\n      jump\t// out\n        /* \"#utility.yul\":1170:1499   */\n    tag_15:\n        /* \"#utility.yul\":1229:1235   */\n      0x00\n        /* \"#utility.yul\":1278:1280   */\n      0x20\n        /* \"#utility.yul\":1266:1275   */\n      dup3\n        /* \"#utility.yul\":1257:1264   */\n      dup5\n        /* \"#utility.yul\":1253:1276   */\n      sub\n        /* \"#utility.yul\":1249:1281   */\n      slt\n        /* \"#utility.yul\":1246:1365   */\n      iszero\n      tag_78\n      jumpi\n        /* \"#utility.yul\":1284:1363   */\n      tag_79\n      tag_49\n      jump\t// in\n    tag_79:\n        /* \"#utility.yul\":1246:1365   */\n    tag_78:\n        /* \"#utility.yul\":1404:1405   */\n      0x00\n        /* \"#utility.yul\":1429:1482   */\n      tag_80\n        /* \"#utility.yul\":1474:1481   */\n      dup5\n        /* \"#utility.yul\":1465:1471   */\n      dup3\n        /* \"#utility.yul\":1454:1463   */\n      dup6\n        /* \"#utility.yul\":1450:1472   */\n      add\n        /* \"#utility.yul\":1429:1482   */\n      tag_53\n      jump\t// in\n    tag_80:\n        /* \"#utility.yul\":1419:1482   */\n      swap2\n      pop\n        /* \"#utility.yul\":1375:1492   */\n      pop\n        /* \"#utility.yul\":1170:1499   */\n      swap3\n      swap2\n      pop\n      pop\n      jump\t// out\n        /* \"#utility.yul\":1505:1631   */\n    tag_54:\n        /* \"#utility.yul\":1542:1549   */\n      0x00\n        /* \"#utility.yul\":1582:1624   */\n      0xffffffffffffffffffffffffffffffffffffffff\n        /* \"#utility.yul\":1575:1580   */\n      dup3\n        /* \"#utility.yul\":1571:1625   */\n      and\n        /* \"#utility.yul\":1560:1625   */\n      swap1\n      pop\n        /* \"#utility.yul\":1505:1631   */\n      swap2\n      swap1\n      pop\n      jump\t// out\n        /* \"#utility.yul\":1637:1697   */\n    tag_55:\n        /* \"#utility.yul\":1665:1668   */\n      0x00\n        /* \"#utility.yul\":1686:1691   */\n      dup2\n        /* \"#utility.yul\":1679:1691   */\n      swap1\n      pop\n        /* \"#utility.yul\":1637:1697   */\n      swap2\n      swap1\n      pop\n      jump\t// out\n        /* \"#utility.yul\":1703:1845   */\n    tag_56:\n        /* \"#utility.yul\":1753:1762   */\n      0x00\n        /* \"#utility.yul\":1786:1839   */\n      tag_84\n        /* \"#utility.yul\":1804:1838   */\n      tag_85\n        /* \"#utility.yul\":1813:1837   */\n      tag_86\n        /* \"#utility.yul\":1831:1836   */\n      dup5\n        /* \"#utility.yul\":1813:1837   */\n      tag_54\n      jump\t// in\n    tag_86:\n        /* \"#utility.yul\":1804:1838   */\n      tag_55\n      jump\t// in\n    tag_85:\n        /* \"#utility.yul\":1786:1839   */\n      tag_54\n      jump\t// in\n    tag_84:\n        /* \"#utility.yul\":1773:1839   */\n      swap1\n      pop\n        /* \"#utility.yul\":1703:1845   */\n      swap2\n      swap1\n      pop\n      jump\t// out\n        /* \"#utility.yul\":1851:1977   */\n    tag_57:\n        /* \"#utility.yul\":1901:1910   */\n      0x00\n        /* \"#utility.yul\":1934:1971   */\n      tag_88\n        /* \"#utility.yul\":1965:1970   */\n      dup3\n        /* \"#utility.yul\":1934:1971   */\n      tag_56\n      jump\t// in\n    tag_88:\n        /* \"#utility.yul\":1921:1971   */\n      swap1\n      pop\n        /* \"#utility.yul\":1851:1977   */\n      swap2\n      swap1\n      pop\n      jump\t// out\n        /* \"#utility.yul\":1983:2123   */\n    tag_58:\n        /* \"#utility.yul\":2047:2056   */\n      0x00\n        /* \"#utility.yul\":2080:2117   */\n      tag_90\n        /* \"#utility.yul\":2111:2116   */\n      dup3\n        /* \"#utility.yul\":2080:2117   */\n      tag_57\n      jump\t// in\n    tag_90:\n        /* \"#utility.yul\":2067:2117   */\n      swap1\n      pop\n        /* \"#utility.yul\":1983:2123   */\n      swap2\n      swap1\n      pop\n      jump\t// out\n        /* \"#utility.yul\":2129:2288   */\n    tag_59:\n        /* \"#utility.yul\":2230:2281   */\n      tag_92\n        /* \"#utility.yul\":2275:2280   */\n      dup2\n        /* \"#utility.yul\":2230:2281   */\n      tag_58\n      jump\t// in\n    tag_92:\n        /* \"#utility.yul\":2225:2228   */\n      dup3\n        /* \"#utility.yul\":2218:2282   */\n      mstore\n        /* \"#utility.yul\":2129:2288   */\n      pop\n      pop\n      jump\t// out\n        /* \"#utility.yul\":2294:2544   */\n    tag_18:\n        /* \"#utility.yul\":2401:2405   */\n      0x00\n        /* \"#utility.yul\":2439:2441   */\n      0x20\n        /* \"#utility.yul\":2428:2437   */\n      dup3\n        /* \"#utility.yul\":2424:2442   */\n      add\n        /* \"#utility.yul\":2416:2442   */\n      swap1\n      pop\n        /* \"#utility.yul\":2452:2537   */\n      tag_94\n        /* \"#utility.yul\":2534:2535   */\n      0x00\n        /* \"#utility.yul\":2523:2532   */\n      dup4\n        /* \"#utility.yul\":2519:2536   */\n      add\n        /* \"#utility.yul\":2510:2516   */\n      dup5\n        /* \"#utility.yul\":2452:2537   */\n      tag_59\n      jump\t// in\n    tag_94:\n        /* \"#utility.yul\":2294:2544   */\n      swap3\n      swap2\n      pop\n      pop\n      jump\t// out\n        /* \"#utility.yul\":2550:2668   */\n    tag_60:\n        /* \"#utility.yul\":2637:2661   */\n      tag_96\n        /* \"#utility.yul\":2655:2660   */\n      dup2\n        /* \"#utility.yul\":2637:2661   */\n      tag_51\n      jump\t// in\n    tag_96:\n        /* \"#utility.yul\":2632:2635   */\n      dup3\n        /* \"#utility.yul\":2625:2662   */\n      mstore\n        /* \"#utility.yul\":2550:2668   */\n      pop\n      pop\n      jump\t// out\n        /* \"#utility.yul\":2674:2896   */\n    tag_23:\n        /* \"#utility.yul\":2767:2771   */\n      0x00\n        /* \"#utility.yul\":2805:2807   */\n      0x20\n        /* \"#utility.yul\":2794:2803   */\n      dup3\n        /* \"#utility.yul\":2790:2808   */\n      add\n        /* \"#utility.yul\":2782:2808   */\n      swap1\n      pop\n        /* \"#utility.yul\":2818:2889   */\n      tag_98\n        /* \"#utility.yul\":2886:2887   */\n      0x00\n        /* \"#utility.yul\":2875:2884   */\n      dup4\n        /* \"#utility.yul\":2871:2888   */\n      add\n        /* \"#utility.yul\":2862:2868   */\n      dup5\n        /* \"#utility.yul\":2818:2889   */\n      tag_60\n      jump\t// in\n    tag_98:\n        /* \"#utility.yul\":2674:2896   */\n      swap3\n      swap2\n      pop\n      pop\n      jump\t// out\n        /* \"#utility.yul\":2902:3082   */\n    tag_27:\n        /* \"#utility.yul\":2950:3027   */\n      0x4e487b7100000000000000000000000000000000000000000000000000000000\n        /* \"#utility.yul\":2947:2948   */\n      0x00\n        /* \"#utility.yul\":2940:3028   */\n      mstore\n        /* \"#utility.yul\":3047:3051   */\n      0x32\n        /* \"#utility.yul\":3044:3045   */\n      0x04\n        /* \"#utility.yul\":3037:3052   */\n      mstore\n        /* \"#utility.yul\":3071:3075   */\n      0x24\n        /* \"#utility.yul\":3068:3069   */\n      0x00\n        /* \"#utility.yul\":3061:3076   */\n      revert\n        /* \"#utility.yul\":3088:3231   */\n    tag_61:\n        /* \"#utility.yul\":3145:3150   */\n      0x00\n        /* \"#utility.yul\":3176:3182   */\n      dup2\n        /* \"#utility.yul\":3170:3183   */\n      mload\n        /* \"#utility.yul\":3161:3183   */\n      swap1\n      pop\n        /* \"#utility.yul\":3192:3225   */\n      tag_101\n        /* \"#utility.yul\":3219:3224   */\n      dup2\n        /* \"#utility.yul\":3192:3225   */\n      tag_52\n      jump\t// in\n    tag_101:\n        /* \"#utility.yul\":3088:3231   */\n      swap3\n      swap2\n      pop\n      pop\n      jump\t// out\n        /* \"#utility.yul\":3237:3588   */\n    tag_47:\n        /* \"#utility.yul\":3307:3313   */\n      0x00\n        /* \"#utility.yul\":3356:3358   */\n      0x20\n        /* \"#utility.yul\":3344:3353   */\n      dup3\n        /* \"#utility.yul\":3335:3342   */\n      dup5\n        /* \"#utility.yul\":3331:3354   */\n      sub\n        /* \"#utility.yul\":3327:3359   */\n      slt\n        /* \"#utility.yul\":3324:3443   */\n      iszero\n      tag_103\n      jumpi\n        /* \"#utility.yul\":3362:3441   */\n      tag_104\n      tag_49\n      jump\t// in\n    tag_104:\n        /* \"#utility.yul\":3324:3443   */\n    tag_103:\n        /* \"#utility.yul\":3482:3483   */\n      0x00\n        /* \"#utility.yul\":3507:3571   */\n      tag_105\n        /* \"#utility.yul\":3563:3570   */\n      dup5\n        /* \"#utility.yul\":3554:3560   */\n      dup3\n        /* \"#utility.yul\":3543:3552   */\n      dup6\n        /* \"#utility.yul\":3539:3561   */\n      add\n        /* \"#utility.yul\":3507:3571   */\n      tag_61\n      jump\t// in\n    tag_105:\n        /* \"#utility.yul\":3497:3571   */\n      swap2\n      pop\n        /* \"#utility.yul\":3453:3581   */\n      pop\n        /* \"#utility.yul\":3237:3588   */\n      swap3\n      swap2\n      pop\n      pop\n      jump\t// out\n    stop\n\n    sub_0: assembly {\n            /* \"contracts/Storage.sol\":57:241  contract Storage{... */\n          mstore(0x40, 0x80)\n          callvalue\n          dup1\n          iszero\n          tag_1\n          jumpi\n          0x00\n          dup1\n          revert\n        tag_1:\n          pop\n          dataSize(sub_0)\n          dup1\n          dataOffset(sub_0)\n          0x00\n          codecopy\n          0x00\n          return\n        stop\n\n        sub_0: assembly {\n                /* \"contracts/Storage.sol\":57:241  contract Storage{... */\n              mstore(0x40, 0x80)\n              callvalue\n              dup1\n              iszero\n              tag_1\n              jumpi\n              0x00\n              dup1\n              revert\n            tag_1:\n              pop\n              jumpi(tag_2, lt(calldatasize, 0x04))\n              shr(0xe0, calldataload(0x00))\n              dup1\n              0x60fe47b1\n              eq\n              tag_3\n              jumpi\n              dup1\n              0x6d4ce63c\n              eq\n              tag_4\n              jumpi\n            tag_2:\n              0x00\n              dup1\n              revert\n                /* \"contracts/Storage.sol\":102:162  function set(uint256 _X) public {... */\n            tag_3:\n              tag_5\n              0x04\n              dup1\n              calldatasize\n              sub\n              dup2\n              add\n              swap1\n              tag_6\n              swap2\n              swap1\n              tag_7\n              jump\t// in\n            tag_6:\n              tag_8\n              jump\t// in\n            tag_5:\n              stop\n                /* \"contracts/Storage.sol\":167:239  function get() public view returns(uint256){... */\n            tag_4:\n              tag_9\n              tag_10\n              jump\t// in\n            tag_9:\n              mload(0x40)\n              tag_11\n              swap2\n              swap1\n              tag_12\n              jump\t// in\n            tag_11:\n              mload(0x40)\n              dup1\n              swap2\n              sub\n              swap1\n              return\n                /* \"contracts/Storage.sol\":102:162  function set(uint256 _X) public {... */\n            tag_8:\n                /* \"contracts/Storage.sol\":152:154  _X */\n              dup1\n                /* \"contracts/Storage.sol\":142:149  counter */\n              0x00\n                /* \"contracts/Storage.sol\":142:154  counter = _X */\n              dup2\n              swap1\n              sstore\n              pop\n                /* \"contracts/Storage.sol\":102:162  function set(uint256 _X) public {... */\n              pop\n              jump\t// out\n                /* \"contracts/Storage.sol\":167:239  function get() public view returns(uint256){... */\n            tag_10:\n                /* \"contracts/Storage.sol\":202:209  uint256 */\n              0x00\n                /* \"contracts/Storage.sol\":224:231  counter */\n              dup1\n              sload\n                /* \"contracts/Storage.sol\":217:231  return counter */\n              swap1\n              pop\n                /* \"contracts/Storage.sol\":167:239  function get() public view returns(uint256){... */\n              swap1\n              jump\t// out\n                /* \"#utility.yul\":88:205   */\n            tag_16:\n                /* \"#utility.yul\":197:198   */\n              0x00\n                /* \"#utility.yul\":194:195   */\n              dup1\n                /* \"#utility.yul\":187:199   */\n              revert\n                /* \"#utility.yul\":334:411   */\n            tag_18:\n                /* \"#utility.yul\":371:378   */\n              0x00\n                /* \"#utility.yul\":400:405   */\n              dup2\n                /* \"#utility.yul\":389:405   */\n              swap1\n              pop\n                /* \"#utility.yul\":334:411   */\n              swap2\n              swap1\n              pop\n              jump\t// out\n                /* \"#utility.yul\":417:539   */\n            tag_19:\n                /* \"#utility.yul\":490:514   */\n              tag_28\n                /* \"#utility.yul\":508:513   */\n              dup2\n                /* \"#utility.yul\":490:514   */\n              tag_18\n              jump\t// in\n            tag_28:\n                /* \"#utility.yul\":483:488   */\n              dup2\n                /* \"#utility.yul\":480:515   */\n              eq\n                /* \"#utility.yul\":470:533   */\n              tag_29\n              jumpi\n                /* \"#utility.yul\":529:530   */\n              0x00\n                /* \"#utility.yul\":526:527   */\n              dup1\n                /* \"#utility.yul\":519:531   */\n              revert\n                /* \"#utility.yul\":470:533   */\n            tag_29:\n                /* \"#utility.yul\":417:539   */\n              pop\n              jump\t// out\n                /* \"#utility.yul\":545:684   */\n            tag_20:\n                /* \"#utility.yul\":591:596   */\n              0x00\n                /* \"#utility.yul\":629:635   */\n              dup2\n                /* \"#utility.yul\":616:636   */\n              calldataload\n                /* \"#utility.yul\":607:636   */\n              swap1\n              pop\n                /* \"#utility.yul\":645:678   */\n              tag_31\n                /* \"#utility.yul\":672:677   */\n              dup2\n                /* \"#utility.yul\":645:678   */\n              tag_19\n              jump\t// in\n            tag_31:\n                /* \"#utility.yul\":545:684   */\n              swap3\n              swap2\n              pop\n              pop\n              jump\t// out\n                /* \"#utility.yul\":690:1019   */\n            tag_7:\n                /* \"#utility.yul\":749:755   */\n              0x00\n                /* \"#utility.yul\":798:800   */\n              0x20\n                /* \"#utility.yul\":786:795   */\n              dup3\n                /* \"#utility.yul\":777:784   */\n              dup5\n                /* \"#utility.yul\":773:796   */\n              sub\n                /* \"#utility.yul\":769:801   */\n              slt\n                /* \"#utility.yul\":766:885   */\n              iszero\n              tag_33\n              jumpi\n                /* \"#utility.yul\":804:883   */\n              tag_34\n              tag_16\n              jump\t// in\n            tag_34:\n                /* \"#utility.yul\":766:885   */\n            tag_33:\n                /* \"#utility.yul\":924:925   */\n              0x00\n                /* \"#utility.yul\":949:1002   */\n              tag_35\n                /* \"#utility.yul\":994:1001   */\n              dup5\n                /* \"#utility.yul\":985:991   */\n              dup3\n                /* \"#utility.yul\":974:983   */\n              dup6\n                /* \"#utility.yul\":970:992   */\n              add\n                /* \"#utility.yul\":949:1002   */\n              tag_20\n              jump\t// in\n            tag_35:\n                /* \"#utility.yul\":939:1002   */\n              swap2\n              pop\n                /* \"#utility.yul\":895:1012   */\n              pop\n                /* \"#utility.yul\":690:1019   */\n              swap3\n              swap2\n              pop\n              pop\n              jump\t// out\n                /* \"#utility.yul\":1025:1143   */\n            tag_21:\n                /* \"#utility.yul\":1112:1136   */\n              tag_37\n                /* \"#utility.yul\":1130:1135   */\n              dup2\n                /* \"#utility.yul\":1112:1136   */\n              tag_18\n              jump\t// in\n            tag_37:\n                /* \"#utility.yul\":1107:1110   */\n              dup3\n                /* \"#utility.yul\":1100:1137   */\n              mstore\n                /* \"#utility.yul\":1025:1143   */\n              pop\n              pop\n              jump\t// out\n                /* \"#utility.yul\":1149:1371   */\n            tag_12:\n                /* \"#utility.yul\":1242:1246   */\n              0x00\n                /* \"#utility.yul\":1280:1282   */\n              0x20\n                /* \"#utility.yul\":1269:1278   */\n              dup3\n                /* \"#utility.yul\":1265:1283   */\n              add\n                /* \"#utility.yul\":1257:1283   */\n              swap1\n              pop\n                /* \"#utility.yul\":1293:1364   */\n              tag_39\n                /* \"#utility.yul\":1361:1362   */\n              0x00\n                /* \"#utility.yul\":1350:1359   */\n              dup4\n                /* \"#utility.yul\":1346:1363   */\n              add\n                /* \"#utility.yul\":1337:1343   */\n              dup5\n                /* \"#utility.yul\":1293:1364   */\n              tag_21\n              jump\t// in\n            tag_39:\n                /* \"#utility.yul\":1149:1371   */\n              swap3\n              swap2\n              pop\n              pop\n              jump\t// out\n\n            auxdata: 0xa2646970667358221220c2d552b707cd74edb37a164a160328711b682336431311dd270ec4efb0104c1364736f6c634300081a0033\n        }\n    }\n\n    auxdata: 0xa26469706673582212200bb972ab1d7a4f7c041d89a4a1adbb5f3ab4522f0ff6d13c56b222867ce4ce3664736f6c634300081a0033\n}\n",
				"bytecode": {
					"linkReferences": {},
					"object": "6080604052348015600e575f80fd5b506106648061001c5f395ff3fe608060405234801561000f575f80fd5b506004361061004a575f3560e01c806309db60801461004e578063412a5a6d1461006a578063a2c05e0614610074578063c5f19c20146100a4575b5f80fd5b6100686004803603810190610063919061033f565b6100d4565b005b61007261017d565b005b61008e6004803603810190610089919061037d565b610208565b60405161009b9190610422565b60405180910390f35b6100be60048036038101906100b9919061037d565b610242565b6040516100cb919061044a565b60405180910390f35b5f8083815481106100e8576100e7610463565b5b905f5260205f20015f9054906101000a900473ffffffffffffffffffffffffffffffffffffffff1690508073ffffffffffffffffffffffffffffffffffffffff166360fe47b1836040518263ffffffff1660e01b815260040161014b919061044a565b5f604051808303815f87803b158015610162575f80fd5b505af1158015610174573d5f803e3d5ffd5b50505050505050565b5f60405161018a906102fb565b604051809103905ff0801580156101a3573d5f803e3d5ffd5b5090505f81908060018154018082558091505060019003905f5260205f20015f9091909190916101000a81548173ffffffffffffffffffffffffffffffffffffffff021916908373ffffffffffffffffffffffffffffffffffffffff16021790555050565b5f8181548110610216575f80fd5b905f5260205f20015f915054906101000a900473ffffffffffffffffffffffffffffffffffffffff1681565b5f805f838154811061025757610256610463565b5b905f5260205f20015f9054906101000a900473ffffffffffffffffffffffffffffffffffffffff1690505f8173ffffffffffffffffffffffffffffffffffffffff16636d4ce63c6040518163ffffffff1660e01b8152600401602060405180830381865afa1580156102cb573d5f803e3d5ffd5b505050506040513d601f19601f820116820180604052508101906102ef91906104a4565b90508092505050919050565b61015f806104d083390190565b5f80fd5b5f819050919050565b61031e8161030c565b8114610328575f80fd5b50565b5f8135905061033981610315565b92915050565b5f806040838503121561035557610354610308565b5b5f6103628582860161032b565b92505060206103738582860161032b565b9150509250929050565b5f6020828403121561039257610391610308565b5b5f61039f8482850161032b565b91505092915050565b5f73ffffffffffffffffffffffffffffffffffffffff82169050919050565b5f819050919050565b5f6103ea6103e56103e0846103a8565b6103c7565b6103a8565b9050919050565b5f6103fb826103d0565b9050919050565b5f61040c826103f1565b9050919050565b61041c81610402565b82525050565b5f6020820190506104355f830184610413565b92915050565b6104448161030c565b82525050565b5f60208201905061045d5f83018461043b565b92915050565b7f4e487b71000000000000000000000000000000000000000000000000000000005f52603260045260245ffd5b5f8151905061049e81610315565b92915050565b5f602082840312156104b9576104b8610308565b5b5f6104c684828501610490565b9150509291505056fe6080604052348015600e575f80fd5b506101438061001c5f395ff3fe608060405234801561000f575f80fd5b5060043610610034575f3560e01c806360fe47b1146100385780636d4ce63c14610054575b5f80fd5b610052600480360381019061004d91906100ba565b610072565b005b61005c61007b565b60405161006991906100f4565b60405180910390f35b805f8190555050565b5f8054905090565b5f80fd5b5f819050919050565b61009981610087565b81146100a3575f80fd5b50565b5f813590506100b481610090565b92915050565b5f602082840312156100cf576100ce610083565b5b5f6100dc848285016100a6565b91505092915050565b6100ee81610087565b82525050565b5f6020820190506101075f8301846100e5565b9291505056fea2646970667358221220c2d552b707cd74edb37a164a160328711b682336431311dd270ec4efb0104c1364736f6c634300081a0033a26469706673582212200bb972ab1d7a4f7c041d89a4a1adbb5f3ab4522f0ff6d13c56b222867ce4ce3664736f6c634300081a0033",
					"opcodes": "PUSH1 0x80 PUSH1 0x40 MSTORE CALLVALUE DUP1 ISZERO PUSH1 0xE JUMPI PUSH0 DUP1 REVERT JUMPDEST POP PUSH2 0x664 DUP1 PUSH2 0x1C PUSH0 CODECOPY PUSH0 RETURN INVALID PUSH1 0x80 PUSH1 0x40 MSTORE CALLVALUE DUP1 ISZERO PUSH2 0xF JUMPI PUSH0 DUP1 REVERT JUMPDEST POP PUSH1 0x4 CALLDATASIZE LT PUSH2 0x4A JUMPI PUSH0 CALLDATALOAD PUSH1 0xE0 SHR DUP1 PUSH4 0x9DB6080 EQ PUSH2 0x4E JUMPI DUP1 PUSH4 0x412A5A6D EQ PUSH2 0x6A JUMPI DUP1 PUSH4 0xA2C05E06 EQ PUSH2 0x74 JUMPI DUP1 PUSH4 0xC5F19C20 EQ PUSH2 0xA4 JUMPI JUMPDEST PUSH0 DUP1 REVERT JUMPDEST PUSH2 0x68 PUSH1 0x4 DUP1 CALLDATASIZE SUB DUP2 ADD SWAP1 PUSH2 0x63 SWAP2 SWAP1 PUSH2 0x33F JUMP JUMPDEST PUSH2 0xD4 JUMP JUMPDEST STOP JUMPDEST PUSH2 0x72 PUSH2 0x17D JUMP JUMPDEST STOP JUMPDEST PUSH2 0x8E PUSH1 0x4 DUP1 CALLDATASIZE SUB DUP2 ADD SWAP1 PUSH2 0x89 SWAP2 SWAP1 PUSH2 0x37D JUMP JUMPDEST PUSH2 0x208 JUMP JUMPDEST PUSH1 0x40 MLOAD PUSH2 0x9B SWAP2 SWAP1 PUSH2 0x422 JUMP JUMPDEST PUSH1 0x40 MLOAD DUP1 SWAP2 SUB SWAP1 RETURN JUMPDEST PUSH2 0xBE PUSH1 0x4 DUP1 CALLDATASIZE SUB DUP2 ADD SWAP1 PUSH2 0xB9 SWAP2 SWAP1 PUSH2 0x37D JUMP JUMPDEST PUSH2 0x242 JUMP JUMPDEST PUSH1 0x40 MLOAD PUSH2 0xCB SWAP2 SWAP1 PUSH2 0x44A JUMP JUMPDEST PUSH1 0x40 MLOAD DUP1 SWAP2 SUB SWAP1 RETURN JUMPDEST PUSH0 DUP1 DUP4 DUP2 SLOAD DUP2 LT PUSH2 0xE8 JUMPI PUSH2 0xE7 PUSH2 0x463 JUMP JUMPDEST JUMPDEST SWAP1 PUSH0 MSTORE PUSH1 0x20 PUSH0 KECCAK256 ADD PUSH0 SWAP1 SLOAD SWAP1 PUSH2 0x100 EXP SWAP1 DIV PUSH20 0xFFFFFFFFFFFFFFFFFFFFFFFFFFFFFFFFFFFFFFFF AND SWAP1 POP DUP1 PUSH20 0xFFFFFFFFFFFFFFFFFFFFFFFFFFFFFFFFFFFFFFFF AND PUSH4 0x60FE47B1 DUP4 PUSH1 0x40 MLOAD DUP3 PUSH4 0xFFFFFFFF AND PUSH1 0xE0 SHL DUP2 MSTORE PUSH1 0x4 ADD PUSH2 0x14B SWAP2 SWAP1 PUSH2 0x44A JUMP JUMPDEST PUSH0 PUSH1 0x40 MLOAD DUP1 DUP4 SUB DUP2 PUSH0 DUP8 DUP1 EXTCODESIZE ISZERO DUP1 ISZERO PUSH2 0x162 JUMPI PUSH0 DUP1 REVERT JUMPDEST POP GAS CALL ISZERO DUP1 ISZERO PUSH2 0x174 JUMPI RETURNDATASIZE PUSH0 DUP1 RETURNDATACOPY RETURNDATASIZE PUSH0 REVERT JUMPDEST POP POP POP POP POP POP POP JUMP JUMPDEST PUSH0 PUSH1 0x40 MLOAD PUSH2 0x18A SWAP1 PUSH2 0x2FB JUMP JUMPDEST PUSH1 0x40 MLOAD DUP1 SWAP2 SUB SWAP1 PUSH0 CREATE DUP1 ISZERO DUP1 ISZERO PUSH2 0x1A3 JUMPI RETURNDATASIZE PUSH0 DUP1 RETURNDATACOPY RETURNDATASIZE PUSH0 REVERT JUMPDEST POP SWAP1 POP PUSH0 DUP2 SWAP1 DUP1 PUSH1 0x1 DUP2 SLOAD ADD DUP1 DUP3 SSTORE DUP1 SWAP2 POP POP PUSH1 0x1 SWAP1 SUB SWAP1 PUSH0 MSTORE PUSH1 0x20 PUSH0 KECCAK256 ADD PUSH0 SWAP1 SWAP2 SWAP1 SWAP2 SWAP1 SWAP2 PUSH2 0x100 EXP DUP2 SLOAD DUP2 PUSH20 0xFFFFFFFFFFFFFFFFFFFFFFFFFFFFFFFFFFFFFFFF MUL NOT AND SWAP1 DUP4 PUSH20 0xFFFFFFFFFFFFFFFFFFFFFFFFFFFFFFFFFFFFFFFF AND MUL OR SWAP1 SSTORE POP POP JUMP JUMPDEST PUSH0 DUP2 DUP2 SLOAD DUP2 LT PUSH2 0x216 JUMPI PUSH0 DUP1 REVERT JUMPDEST SWAP1 PUSH0 MSTORE PUSH1 0x20 PUSH0 KECCAK256 ADD PUSH0 SWAP2 POP SLOAD SWAP1 PUSH2 0x100 EXP SWAP1 DIV PUSH20 0xFFFFFFFFFFFFFFFFFFFFFFFFFFFFFFFFFFFFFFFF AND DUP2 JUMP JUMPDEST PUSH0 DUP1 PUSH0 DUP4 DUP2 SLOAD DUP2 LT PUSH2 0x257 JUMPI PUSH2 0x256 PUSH2 0x463 JUMP JUMPDEST JUMPDEST SWAP1 PUSH0 MSTORE PUSH1 0x20 PUSH0 KECCAK256 ADD PUSH0 SWAP1 SLOAD SWAP1 PUSH2 0x100 EXP SWAP1 DIV PUSH20 0xFFFFFFFFFFFFFFFFFFFFFFFFFFFFFFFFFFFFFFFF AND SWAP1 POP PUSH0 DUP2 PUSH20 0xFFFFFFFFFFFFFFFFFFFFFFFFFFFFFFFFFFFFFFFF AND PUSH4 0x6D4CE63C PUSH1 0x40 MLOAD DUP2 PUSH4 0xFFFFFFFF AND PUSH1 0xE0 SHL DUP2 MSTORE PUSH1 0x4 ADD PUSH1 0x20 PUSH1 0x40 MLOAD DUP1 DUP4 SUB DUP2 DUP7 GAS STATICCALL ISZERO DUP1 ISZERO PUSH2 0x2CB JUMPI RETURNDATASIZE PUSH0 DUP1 RETURNDATACOPY RETURNDATASIZE PUSH0 REVERT JUMPDEST POP POP POP POP PUSH1 0x40 MLOAD RETURNDATASIZE PUSH1 0x1F NOT PUSH1 0x1F DUP3 ADD AND DUP3 ADD DUP1 PUSH1 0x40 MSTORE POP DUP2 ADD SWAP1 PUSH2 0x2EF SWAP2 SWAP1 PUSH2 0x4A4 JUMP JUMPDEST SWAP1 POP DUP1 SWAP3 POP POP POP SWAP2 SWAP1 POP JUMP JUMPDEST PUSH2 0x15F DUP1 PUSH2 0x4D0 DUP4 CODECOPY ADD SWAP1 JUMP JUMPDEST PUSH0 DUP1 REVERT JUMPDEST PUSH0 DUP2 SWAP1 POP SWAP2 SWAP1 POP JUMP JUMPDEST PUSH2 0x31E DUP2 PUSH2 0x30C JUMP JUMPDEST DUP2 EQ PUSH2 0x328 JUMPI PUSH0 DUP1 REVERT JUMPDEST POP JUMP JUMPDEST PUSH0 DUP2 CALLDATALOAD SWAP1 POP PUSH2 0x339 DUP2 PUSH2 0x315 JUMP JUMPDEST SWAP3 SWAP2 POP POP JUMP JUMPDEST PUSH0 DUP1 PUSH1 0x40 DUP4 DUP6 SUB SLT ISZERO PUSH2 0x355 JUMPI PUSH2 0x354 PUSH2 0x308 JUMP JUMPDEST JUMPDEST PUSH0 PUSH2 0x362 DUP6 DUP3 DUP7 ADD PUSH2 0x32B JUMP JUMPDEST SWAP3 POP POP PUSH1 0x20 PUSH2 0x373 DUP6 DUP3 DUP7 ADD PUSH2 0x32B JUMP JUMPDEST SWAP2 POP POP SWAP3 POP SWAP3 SWAP1 POP JUMP JUMPDEST PUSH0 PUSH1 0x20 DUP3 DUP5 SUB SLT ISZERO PUSH2 0x392 JUMPI PUSH2 0x391 PUSH2 0x308 JUMP JUMPDEST JUMPDEST PUSH0 PUSH2 0x39F DUP5 DUP3 DUP6 ADD PUSH2 0x32B JUMP JUMPDEST SWAP2 POP POP SWAP3 SWAP2 POP POP JUMP JUMPDEST PUSH0 PUSH20 0xFFFFFFFFFFFFFFFFFFFFFFFFFFFFFFFFFFFFFFFF DUP3 AND SWAP1 POP SWAP2 SWAP1 POP JUMP JUMPDEST PUSH0 DUP2 SWAP1 POP SWAP2 SWAP1 POP JUMP JUMPDEST PUSH0 PUSH2 0x3EA PUSH2 0x3E5 PUSH2 0x3E0 DUP5 PUSH2 0x3A8 JUMP JUMPDEST PUSH2 0x3C7 JUMP JUMPDEST PUSH2 0x3A8 JUMP JUMPDEST SWAP1 POP SWAP2 SWAP1 POP JUMP JUMPDEST PUSH0 PUSH2 0x3FB DUP3 PUSH2 0x3D0 JUMP JUMPDEST SWAP1 POP SWAP2 SWAP1 POP JUMP JUMPDEST PUSH0 PUSH2 0x40C DUP3 PUSH2 0x3F1 JUMP JUMPDEST SWAP1 POP SWAP2 SWAP1 POP JUMP JUMPDEST PUSH2 0x41C DUP2 PUSH2 0x402 JUMP JUMPDEST DUP3 MSTORE POP POP JUMP JUMPDEST PUSH0 PUSH1 0x20 DUP3 ADD SWAP1 POP PUSH2 0x435 PUSH0 DUP4 ADD DUP5 PUSH2 0x413 JUMP JUMPDEST SWAP3 SWAP2 POP POP JUMP JUMPDEST PUSH2 0x444 DUP2 PUSH2 0x30C JUMP JUMPDEST DUP3 MSTORE POP POP JUMP JUMPDEST PUSH0 PUSH1 0x20 DUP3 ADD SWAP1 POP PUSH2 0x45D PUSH0 DUP4 ADD DUP5 PUSH2 0x43B JUMP JUMPDEST SWAP3 SWAP2 POP POP JUMP JUMPDEST PUSH32 0x4E487B7100000000000000000000000000000000000000000000000000000000 PUSH0 MSTORE PUSH1 0x32 PUSH1 0x4 MSTORE PUSH1 0x24 PUSH0 REVERT JUMPDEST PUSH0 DUP2 MLOAD SWAP1 POP PUSH2 0x49E DUP2 PUSH2 0x315 JUMP JUMPDEST SWAP3 SWAP2 POP POP JUMP JUMPDEST PUSH0 PUSH1 0x20 DUP3 DUP5 SUB SLT ISZERO PUSH2 0x4B9 JUMPI PUSH2 0x4B8 PUSH2 0x308 JUMP JUMPDEST JUMPDEST PUSH0 PUSH2 0x4C6 DUP5 DUP3 DUP6 ADD PUSH2 0x490 JUMP JUMPDEST SWAP2 POP POP SWAP3 SWAP2 POP POP JUMP INVALID PUSH1 0x80 PUSH1 0x40 MSTORE CALLVALUE DUP1 ISZERO PUSH1 0xE JUMPI PUSH0 DUP1 REVERT JUMPDEST POP PUSH2 0x143 DUP1 PUSH2 0x1C PUSH0 CODECOPY PUSH0 RETURN INVALID PUSH1 0x80 PUSH1 0x40 MSTORE CALLVALUE DUP1 ISZERO PUSH2 0xF JUMPI PUSH0 DUP1 REVERT JUMPDEST POP PUSH1 0x4 CALLDATASIZE LT PUSH2 0x34 JUMPI PUSH0 CALLDATALOAD PUSH1 0xE0 SHR DUP1 PUSH4 0x60FE47B1 EQ PUSH2 0x38 JUMPI DUP1 PUSH4 0x6D4CE63C EQ PUSH2 0x54 JUMPI JUMPDEST PUSH0 DUP1 REVERT JUMPDEST PUSH2 0x52 PUSH1 0x4 DUP1 CALLDATASIZE SUB DUP2 ADD SWAP1 PUSH2 0x4D SWAP2 SWAP1 PUSH2 0xBA JUMP JUMPDEST PUSH2 0x72 JUMP JUMPDEST STOP JUMPDEST PUSH2 0x5C PUSH2 0x7B JUMP JUMPDEST PUSH1 0x40 MLOAD PUSH2 0x69 SWAP2 SWAP1 PUSH2 0xF4 JUMP JUMPDEST PUSH1 0x40 MLOAD DUP1 SWAP2 SUB SWAP1 RETURN JUMPDEST DUP1 PUSH0 DUP2 SWAP1 SSTORE POP POP JUMP JUMPDEST PUSH0 DUP1 SLOAD SWAP1 POP SWAP1 JUMP JUMPDEST PUSH0 DUP1 REVERT JUMPDEST PUSH0 DUP2 SWAP1 POP SWAP2 SWAP1 POP JUMP JUMPDEST PUSH2 0x99 DUP2 PUSH2 0x87 JUMP JUMPDEST DUP2 EQ PUSH2 0xA3 JUMPI PUSH0 DUP1 REVERT JUMPDEST POP JUMP JUMPDEST PUSH0 DUP2 CALLDATALOAD SWAP1 POP PUSH2 0xB4 DUP2 PUSH2 0x90 JUMP JUMPDEST SWAP3 SWAP2 POP POP JUMP JUMPDEST PUSH0 PUSH1 0x20 DUP3 DUP5 SUB SLT ISZERO PUSH2 0xCF JUMPI PUSH2 0xCE PUSH2 0x83 JUMP JUMPDEST JUMPDEST PUSH0 PUSH2 0xDC DUP5 DUP3 DUP6 ADD PUSH2 0xA6 JUMP JUMPDEST SWAP2 POP POP SWAP3 SWAP2 POP POP JUMP JUMPDEST PUSH2 0xEE DUP2 PUSH2 0x87 JUMP JUMPDEST DUP3 MSTORE POP POP JUMP JUMPDEST PUSH0 PUSH1 0x20 DUP3 ADD SWAP1 POP PUSH2 0x107 PUSH0 DUP4 ADD DUP5 PUSH2 0xE5 JUMP JUMPDEST SWAP3 SWAP2 POP POP JUMP INVALID LOG2 PUSH5 0x6970667358 0x22 SLT KECCAK256 0xC2 0xD5 MSTORE 0xB7 SMOD 0xCD PUSH21 0xEDB37A164A160328711B682336431311DD270EC4EF 0xB0 LT 0x4C SGT PUSH5 0x736F6C6343 STOP ADDMOD BYTE STOP CALLER LOG2 PUSH5 0x6970667358 0x22 SLT KECCAK256 SIGNEXTEND 0xB9 PUSH19 0xAB1D7A4F7C041D89A4A1ADBB5F3AB4522F0FF6 0xD1 EXTCODECOPY JUMP 0xB2 0x22 DUP7 PUSH29 0xE4CE3664736F6C634300081A0033000000000000000000000000000000 "
				},
				"gasEstimates": {
					"creation": {
						"codeDepositCost": "327200",
						"executionCost": "366",
						"totalCost": "327566"
					},
					"external": {
						"createContract()": "infinite",
						"sfGet(uint256)": "infinite",
						"sfSet(uint256,uint256)": "infinite",
						"sfactory(uint256)": "infinite"
					}
				},
				"methodIdentifiers": {
					"createContract()": "412a5a6d",
					"sfGet(uint256)": "c5f19c20",
					"sfSet(uint256,uint256)": "09db6080",
					"sfactory(uint256)": "a2c05e06"
				}
			},
			"storageLayout": {
				"storage": [
					{
						"astId": 30,
						"contract": "contracts/StorageFactory.sol:SF",
						"label": "sfactory",
						"offset": 0,
						"slot": "0",
						"type": "t_array(t_contract(Storage)22)dyn_storage"
					}
				],
				"types": {
					"t_array(t_contract(Storage)22)dyn_storage": {
						"base": "t_contract(Storage)22",
						"encoding": "dynamic_array",
						"label": "contract Storage[]",
						"numberOfBytes": "32"
					},
					"t_contract(Storage)22": {
						"encoding": "inplace",
						"label": "contract Storage",
						"numberOfBytes": "20"
					}
				}
			},
			"userdoc": {
				"kind": "user",
				"methods": {},
				"version": 1
			}
		}
	}
}