{
	"data": {
		"bytecode": {
			"linkReferences": {},
			"object": "6080604052348015600e575f5ffd5b5061043c8061001c5f395ff3fe608060405234801561000f575f5ffd5b5060043610610060575f3560e01c8063200d2ed21461006457806324b8ba5f146100825780636d4ce63c1461009e5780637b73de8e146100bc578063c19d93fb146100da578063d826f88f146100e4575b5f5ffd5b61006c6100ee565b60405161007991906102a3565b60405180910390f35b61009c600480360381019061009791906102e3565b6100ff565b005b6100a661012a565b6040516100b391906102a3565b60405180910390f35b6100c461013e565b6040516100d1919061037e565b60405180910390f35b6100e26101f3565b005b6100ec61021e565b005b5f5f9054906101000a900460ff1681565b805f5f6101000a81548160ff0219169083600281111561012257610121610230565b5b021790555050565b5f5f5f9054906101000a900460ff16905090565b606060028081111561015357610152610230565b5b5f5f9054906101000a900460ff16600281111561017357610172610230565b5b146101b3576040517f08c379a00000000000000000000000000000000000000000000000000000000081526004016101aa906103e8565b60405180910390fd5b5f6040518060400160405280600f81526020017f636f6e67726174756c6174696f6e73000000000000000000000000000000000081525090508091505090565b60025f5f6101000a81548160ff0219169083600281111561021757610216610230565b5b0217905550565b5f5f6101000a81549060ff0219169055565b7f4e487b71000000000000000000000000000000000000000000000000000000005f52602160045260245ffd5b6003811061026e5761026d610230565b5b50565b5f81905061027e8261025d565b919050565b5f61028d82610271565b9050919050565b61029d81610283565b82525050565b5f6020820190506102b65f830184610294565b92915050565b5f5ffd5b600381106102cc575f5ffd5b50565b5f813590506102dd816102c0565b92915050565b5f602082840312156102f8576102f76102bc565b5b5f610305848285016102cf565b91505092915050565b5f81519050919050565b5f82825260208201905092915050565b8281835e5f83830152505050565b5f601f19601f8301169050919050565b5f6103508261030e565b61035a8185610318565b935061036a818560208601610328565b61037381610336565b840191505092915050565b5f6020820190508181035f8301526103968184610346565b905092915050565b7f6e6f7420636f6d706c65746564000000000000000000000000000000000000005f82015250565b5f6103d2600d83610318565b91506103dd8261039e565b602082019050919050565b5f6020820190508181035f8301526103ff816103c6565b905091905056fea2646970667358221220dcc6b935d0b41252e29674cbaa90585a49b0f1d9a539c5023e3e4daa873e875f64736f6c634300081c0033",
			"opcodes": "PUSH1 0x80 PUSH1 0x40 MSTORE CALLVALUE DUP1 ISZERO PUSH1 0xE JUMPI PUSH0 PUSH0 REVERT JUMPDEST POP PUSH2 0x43C DUP1 PUSH2 0x1C PUSH0 CODECOPY PUSH0 RETURN INVALID PUSH1 0x80 PUSH1 0x40 MSTORE CALLVALUE DUP1 ISZERO PUSH2 0xF JUMPI PUSH0 PUSH0 REVERT JUMPDEST POP PUSH1 0x4 CALLDATASIZE LT PUSH2 0x60 JUMPI PUSH0 CALLDATALOAD PUSH1 0xE0 SHR DUP1 PUSH4 0x200D2ED2 EQ PUSH2 0x64 JUMPI DUP1 PUSH4 0x24B8BA5F EQ PUSH2 0x82 JUMPI DUP1 PUSH4 0x6D4CE63C EQ PUSH2 0x9E JUMPI DUP1 PUSH4 0x7B73DE8E EQ PUSH2 0xBC JUMPI DUP1 PUSH4 0xC19D93FB EQ PUSH2 0xDA JUMPI DUP1 PUSH4 0xD826F88F EQ PUSH2 0xE4 JUMPI JUMPDEST PUSH0 PUSH0 REVERT JUMPDEST PUSH2 0x6C PUSH2 0xEE JUMP JUMPDEST PUSH1 0x40 MLOAD PUSH2 0x79 SWAP2 SWAP1 PUSH2 0x2A3 JUMP JUMPDEST PUSH1 0x40 MLOAD DUP1 SWAP2 SUB SWAP1 RETURN JUMPDEST PUSH2 0x9C PUSH1 0x4 DUP1 CALLDATASIZE SUB DUP2 ADD SWAP1 PUSH2 0x97 SWAP2 SWAP1 PUSH2 0x2E3 JUMP JUMPDEST PUSH2 0xFF JUMP JUMPDEST STOP JUMPDEST PUSH2 0xA6 PUSH2 0x12A JUMP JUMPDEST PUSH1 0x40 MLOAD PUSH2 0xB3 SWAP2 SWAP1 PUSH2 0x2A3 JUMP JUMPDEST PUSH1 0x40 MLOAD DUP1 SWAP2 SUB SWAP1 RETURN JUMPDEST PUSH2 0xC4 PUSH2 0x13E JUMP JUMPDEST PUSH1 0x40 MLOAD PUSH2 0xD1 SWAP2 SWAP1 PUSH2 0x37E JUMP JUMPDEST PUSH1 0x40 MLOAD DUP1 SWAP2 SUB SWAP1 RETURN JUMPDEST PUSH2 0xE2 PUSH2 0x1F3 JUMP JUMPDEST STOP JUMPDEST PUSH2 0xEC PUSH2 0x21E JUMP JUMPDEST STOP JUMPDEST PUSH0 PUSH0 SWAP1 SLOAD SWAP1 PUSH2 0x100 EXP SWAP1 DIV PUSH1 0xFF AND DUP2 JUMP JUMPDEST DUP1 PUSH0 PUSH0 PUSH2 0x100 EXP DUP2 SLOAD DUP2 PUSH1 0xFF MUL NOT AND SWAP1 DUP4 PUSH1 0x2 DUP2 GT ISZERO PUSH2 0x122 JUMPI PUSH2 0x121 PUSH2 0x230 JUMP JUMPDEST JUMPDEST MUL OR SWAP1 SSTORE POP POP JUMP JUMPDEST PUSH0 PUSH0 PUSH0 SWAP1 SLOAD SWAP1 PUSH2 0x100 EXP SWAP1 DIV PUSH1 0xFF AND SWAP1 POP SWAP1 JUMP JUMPDEST PUSH1 0x60 PUSH1 0x2 DUP1 DUP2 GT ISZERO PUSH2 0x153 JUMPI PUSH2 0x152 PUSH2 0x230 JUMP JUMPDEST JUMPDEST PUSH0 PUSH0 SWAP1 SLOAD SWAP1 PUSH2 0x100 EXP SWAP1 DIV PUSH1 0xFF AND PUSH1 0x2 DUP2 GT ISZERO PUSH2 0x173 JUMPI PUSH2 0x172 PUSH2 0x230 JUMP JUMPDEST JUMPDEST EQ PUSH2 0x1B3 JUMPI PUSH1 0x40 MLOAD PUSH32 0x8C379A000000000000000000000000000000000000000000000000000000000 DUP2 MSTORE PUSH1 0x4 ADD PUSH2 0x1AA SWAP1 PUSH2 0x3E8 JUMP JUMPDEST PUSH1 0x40 MLOAD DUP1 SWAP2 SUB SWAP1 REVERT JUMPDEST PUSH0 PUSH1 0x40 MLOAD DUP1 PUSH1 0x40 ADD PUSH1 0x40 MSTORE DUP1 PUSH1 0xF DUP2 MSTORE PUSH1 0x20 ADD PUSH32 0x636F6E67726174756C6174696F6E730000000000000000000000000000000000 DUP2 MSTORE POP SWAP1 POP DUP1 SWAP2 POP POP SWAP1 JUMP JUMPDEST PUSH1 0x2 PUSH0 PUSH0 PUSH2 0x100 EXP DUP2 SLOAD DUP2 PUSH1 0xFF MUL NOT AND SWAP1 DUP4 PUSH1 0x2 DUP2 GT ISZERO PUSH2 0x217 JUMPI PUSH2 0x216 PUSH2 0x230 JUMP JUMPDEST JUMPDEST MUL OR SWAP1 SSTORE POP JUMP JUMPDEST PUSH0 PUSH0 PUSH2 0x100 EXP DUP2 SLOAD SWAP1 PUSH1 0xFF MUL NOT AND SWAP1 SSTORE JUMP JUMPDEST PUSH32 0x4E487B7100000000000000000000000000000000000000000000000000000000 PUSH0 MSTORE PUSH1 0x21 PUSH1 0x4 MSTORE PUSH1 0x24 PUSH0 REVERT JUMPDEST PUSH1 0x3 DUP2 LT PUSH2 0x26E JUMPI PUSH2 0x26D PUSH2 0x230 JUMP JUMPDEST JUMPDEST POP JUMP JUMPDEST PUSH0 DUP2 SWAP1 POP PUSH2 0x27E DUP3 PUSH2 0x25D JUMP JUMPDEST SWAP2 SWAP1 POP JUMP JUMPDEST PUSH0 PUSH2 0x28D DUP3 PUSH2 0x271 JUMP JUMPDEST SWAP1 POP SWAP2 SWAP1 POP JUMP JUMPDEST PUSH2 0x29D DUP2 PUSH2 0x283 JUMP JUMPDEST DUP3 MSTORE POP POP JUMP JUMPDEST PUSH0 PUSH1 0x20 DUP3 ADD SWAP1 POP PUSH2 0x2B6 PUSH0 DUP4 ADD DUP5 PUSH2 0x294 JUMP JUMPDEST SWAP3 SWAP2 POP POP JUMP JUMPDEST PUSH0 PUSH0 REVERT JUMPDEST PUSH1 0x3 DUP2 LT PUSH2 0x2CC JUMPI PUSH0 PUSH0 REVERT JUMPDEST POP JUMP JUMPDEST PUSH0 DUP2 CALLDATALOAD SWAP1 POP PUSH2 0x2DD DUP2 PUSH2 0x2C0 JUMP JUMPDEST SWAP3 SWAP2 POP POP JUMP JUMPDEST PUSH0 PUSH1 0x20 DUP3 DUP5 SUB SLT ISZERO PUSH2 0x2F8 JUMPI PUSH2 0x2F7 PUSH2 0x2BC JUMP JUMPDEST JUMPDEST PUSH0 PUSH2 0x305 DUP5 DUP3 DUP6 ADD PUSH2 0x2CF JUMP JUMPDEST SWAP2 POP POP SWAP3 SWAP2 POP POP JUMP JUMPDEST PUSH0 DUP2 MLOAD SWAP1 POP SWAP2 SWAP1 POP JUMP JUMPDEST PUSH0 DUP3 DUP3 MSTORE PUSH1 0x20 DUP3 ADD SWAP1 POP SWAP3 SWAP2 POP POP JUMP JUMPDEST DUP3 DUP2 DUP4 MCOPY PUSH0 DUP4 DUP4 ADD MSTORE POP POP POP JUMP JUMPDEST PUSH0 PUSH1 0x1F NOT PUSH1 0x1F DUP4 ADD AND SWAP1 POP SWAP2 SWAP1 POP JUMP JUMPDEST PUSH0 PUSH2 0x350 DUP3 PUSH2 0x30E JUMP JUMPDEST PUSH2 0x35A DUP2 DUP6 PUSH2 0x318 JUMP JUMPDEST SWAP4 POP PUSH2 0x36A DUP2 DUP6 PUSH1 0x20 DUP7 ADD PUSH2 0x328 JUMP JUMPDEST PUSH2 0x373 DUP2 PUSH2 0x336 JUMP JUMPDEST DUP5 ADD SWAP2 POP POP SWAP3 SWAP2 POP POP JUMP JUMPDEST PUSH0 PUSH1 0x20 DUP3 ADD SWAP1 POP DUP2 DUP2 SUB PUSH0 DUP4 ADD MSTORE PUSH2 0x396 DUP2 DUP5 PUSH2 0x346 JUMP JUMPDEST SWAP1 POP SWAP3 SWAP2 POP POP JUMP JUMPDEST PUSH32 0x6E6F7420636F6D706C6574656400000000000000000000000000000000000000 PUSH0 DUP3 ADD MSTORE POP JUMP JUMPDEST PUSH0 PUSH2 0x3D2 PUSH1 0xD DUP4 PUSH2 0x318 JUMP JUMPDEST SWAP2 POP PUSH2 0x3DD DUP3 PUSH2 0x39E JUMP JUMPDEST PUSH1 0x20 DUP3 ADD SWAP1 POP SWAP2 SWAP1 POP JUMP JUMPDEST PUSH0 PUSH1 0x20 DUP3 ADD SWAP1 POP DUP2 DUP2 SUB PUSH0 DUP4 ADD MSTORE PUSH2 0x3FF DUP2 PUSH2 0x3C6 JUMP JUMPDEST SWAP1 POP SWAP2 SWAP1 POP JUMP INVALID LOG2 PUSH5 0x6970667358 0x22 SLT KECCAK256 0xDC 0xC6 0xB9 CALLDATALOAD 0xD0 0xB4 SLT MSTORE 0xE2 SWAP7 PUSH21 0xCBAA90585A49B0F1D9A539C5023E3E4DAA873E875F PUSH5 0x736F6C6343 STOP ADDMOD SHR STOP CALLER "
		},
		"gasEstimates": {
			"creation": {
				"codeDepositCost": "216800",
				"executionCost": "255",
				"totalCost": "217055"
			},
			"external": {
				"checkmate()": "infinite",
				"get()": "2582",
				"reset()": "24471",
				"set(uint8)": "24644",
				"state()": "24494",
				"status()": "2531"
			}
		},
		"methodIdentifiers": {
			"checkmate()": "7b73de8e",
			"get()": "6d4ce63c",
			"reset()": "d826f88f",
			"set(uint8)": "24b8ba5f",
			"state()": "c19d93fb",
			"status()": "200d2ed2"
		}
	},
	"abi": [
		{
			"inputs": [],
			"name": "checkmate",
			"outputs": [
				{
					"internalType": "string",
					"name": "",
					"type": "string"
				}
			],
			"stateMutability": "view",
			"type": "function"
		},
		{
			"inputs": [],
			"name": "get",
			"outputs": [
				{
					"internalType": "enum Enum.Status",
					"name": "",
					"type": "uint8"
				}
			],
			"stateMutability": "view",
			"type": "function"
		},
		{
			"inputs": [],
			"name": "reset",
			"outputs": [],
			"stateMutability": "nonpayable",
			"type": "function"
		},
		{
			"inputs": [
				{
					"internalType": "enum Enum.Status",
					"name": "_status",
					"type": "uint8"
				}
			],
			"name": "set",
			"outputs": [],
			"stateMutability": "nonpayable",
			"type": "function"
		},
		{
			"inputs": [],
			"name": "state",
			"outputs": [],
			"stateMutability": "nonpayable",
			"type": "function"
		},
		{
			"inputs": [],
			"name": "status",
			"outputs": [
				{
					"internalType": "enum Enum.Status",
					"name": "",
					"type": "uint8"
				}
			],
			"stateMutability": "view",
			"type": "function"
		}
	]
}